{
  "contracts/ConvexMarketManager.sol": {
    "ConvexMarketManager": {
      "abi": [
        {
          "inputs": [
            {
              "internalType": "contract IERC20",
              "name": "token",
              "type": "address"
            },
            {
              "internalType": "address",
              "name": "treasuryAddress",
              "type": "address"
            }
          ],
          "stateMutability": "nonpayable",
          "type": "constructor"
        },
        {
          "inputs": [],
          "name": "AccessControlBadConfirmation",
          "type": "error"
        },
        {
          "inputs": [
            {
              "internalType": "address",
              "name": "account",
              "type": "address"
            },
            {
              "internalType": "bytes32",
              "name": "neededRole",
              "type": "bytes32"
            }
          ],
          "name": "AccessControlUnauthorizedAccount",
          "type": "error"
        },
        {
          "inputs": [],
          "name": "EnforcedPause",
          "type": "error"
        },
        {
          "inputs": [],
          "name": "ExpectedPause",
          "type": "error"
        },
        {
          "inputs": [],
          "name": "InvalidCloseTime",
          "type": "error"
        },
        {
          "inputs": [],
          "name": "InvalidFee",
          "type": "error"
        },
        {
          "inputs": [],
          "name": "InvalidResolver",
          "type": "error"
        },
        {
          "inputs": [],
          "name": "MarketAlreadyResolved",
          "type": "error"
        },
        {
          "inputs": [],
          "name": "MarketClosedOrResolved",
          "type": "error"
        },
        {
          "inputs": [],
          "name": "MarketNotReadyForResolution",
          "type": "error"
        },
        {
          "inputs": [],
          "name": "MarketNotResolved",
          "type": "error"
        },
        {
          "inputs": [],
          "name": "MarketNotVoid",
          "type": "error"
        },
        {
          "inputs": [],
          "name": "MarketTradingClosed",
          "type": "error"
        },
        {
          "inputs": [],
          "name": "NothingToClaim",
          "type": "error"
        },
        {
          "inputs": [],
          "name": "OracleConditionRequired",
          "type": "error"
        },
        {
          "inputs": [],
          "name": "OutcomeRequired",
          "type": "error"
        },
        {
          "inputs": [],
          "name": "ReentrancyGuardReentrantCall",
          "type": "error"
        },
        {
          "inputs": [
            {
              "internalType": "address",
              "name": "token",
              "type": "address"
            }
          ],
          "name": "SafeERC20FailedOperation",
          "type": "error"
        },
        {
          "inputs": [],
          "name": "UnauthorizedCaller",
          "type": "error"
        },
        {
          "inputs": [],
          "name": "UnauthorizedCloser",
          "type": "error"
        },
        {
          "inputs": [],
          "name": "UnauthorizedCreator",
          "type": "error"
        },
        {
          "inputs": [],
          "name": "UnauthorizedResolver",
          "type": "error"
        },
        {
          "inputs": [],
          "name": "ZeroAmount",
          "type": "error"
        },
        {
          "anonymous": false,
          "inputs": [
            {
              "indexed": true,
              "internalType": "uint32",
              "name": "marketId",
              "type": "uint32"
            }
          ],
          "name": "MarketClosed",
          "type": "event"
        },
        {
          "anonymous": false,
          "inputs": [
            {
              "indexed": true,
              "internalType": "uint32",
              "name": "marketId",
              "type": "uint32"
            },
            {
              "indexed": true,
              "internalType": "bytes32",
              "name": "questionId",
              "type": "bytes32"
            },
            {
              "indexed": true,
              "internalType": "address",
              "name": "creator",
              "type": "address"
            },
            {
              "indexed": false,
              "internalType": "address",
              "name": "resolver",
              "type": "address"
            },
            {
              "indexed": false,
              "internalType": "uint64",
              "name": "closeTime",
              "type": "uint64"
            },
            {
              "indexed": false,
              "internalType": "bool",
              "name": "usesOracle",
              "type": "bool"
            },
            {
              "indexed": false,
              "internalType": "uint16",
              "name": "protocolFeeBps",
              "type": "uint16"
            },
            {
              "indexed": false,
              "internalType": "uint16",
              "name": "creatorFeeBps",
              "type": "uint16"
            },
            {
              "indexed": false,
              "internalType": "string",
              "name": "metadataURI",
              "type": "string"
            }
          ],
          "name": "MarketCreated",
          "type": "event"
        },
        {
          "anonymous": false,
          "inputs": [
            {
              "indexed": true,
              "internalType": "uint32",
              "name": "marketId",
              "type": "uint32"
            },
            {
              "indexed": false,
              "internalType": "string",
              "name": "newMetadataURI",
              "type": "string"
            }
          ],
          "name": "MarketMetadataUpdated",
          "type": "event"
        },
        {
          "anonymous": false,
          "inputs": [
            {
              "indexed": true,
              "internalType": "uint32",
              "name": "marketId",
              "type": "uint32"
            },
            {
              "indexed": true,
              "internalType": "bytes32",
              "name": "conditionType",
              "type": "bytes32"
            },
            {
              "indexed": false,
              "internalType": "bytes32",
              "name": "dataFeedIdHash",
              "type": "bytes32"
            },
            {
              "indexed": false,
              "internalType": "int256",
              "name": "targetValue",
              "type": "int256"
            },
            {
              "indexed": false,
              "internalType": "string",
              "name": "targetDescription",
              "type": "string"
            }
          ],
          "name": "MarketOracleConfigured",
          "type": "event"
        },
        {
          "anonymous": false,
          "inputs": [
            {
              "indexed": true,
              "internalType": "uint32",
              "name": "marketId",
              "type": "uint32"
            },
            {
              "indexed": false,
              "internalType": "enum ConvexMarketManager.Outcome",
              "name": "outcome",
              "type": "uint8"
            },
            {
              "indexed": false,
              "internalType": "uint128",
              "name": "payoutPool",
              "type": "uint128"
            },
            {
              "indexed": false,
              "internalType": "uint128",
              "name": "totalWinningStake",
              "type": "uint128"
            }
          ],
          "name": "MarketResolved",
          "type": "event"
        },
        {
          "anonymous": false,
          "inputs": [
            {
              "indexed": true,
              "internalType": "uint32",
              "name": "marketId",
              "type": "uint32"
            },
            {
              "indexed": true,
              "internalType": "address",
              "name": "newResolver",
              "type": "address"
            }
          ],
          "name": "MarketResolverUpdated",
          "type": "event"
        },
        {
          "anonymous": false,
          "inputs": [
            {
              "indexed": true,
              "internalType": "uint32",
              "name": "marketId",
              "type": "uint32"
            }
          ],
          "name": "MarketVoided",
          "type": "event"
        },
        {
          "anonymous": false,
          "inputs": [
            {
              "indexed": false,
              "internalType": "address",
              "name": "account",
              "type": "address"
            }
          ],
          "name": "Paused",
          "type": "event"
        },
        {
          "anonymous": false,
          "inputs": [
            {
              "indexed": true,
              "internalType": "bytes32",
              "name": "role",
              "type": "bytes32"
            },
            {
              "indexed": true,
              "internalType": "bytes32",
              "name": "previousAdminRole",
              "type": "bytes32"
            },
            {
              "indexed": true,
              "internalType": "bytes32",
              "name": "newAdminRole",
              "type": "bytes32"
            }
          ],
          "name": "RoleAdminChanged",
          "type": "event"
        },
        {
          "anonymous": false,
          "inputs": [
            {
              "indexed": true,
              "internalType": "bytes32",
              "name": "role",
              "type": "bytes32"
            },
            {
              "indexed": true,
              "internalType": "address",
              "name": "account",
              "type": "address"
            },
            {
              "indexed": true,
              "internalType": "address",
              "name": "sender",
              "type": "address"
            }
          ],
          "name": "RoleGranted",
          "type": "event"
        },
        {
          "anonymous": false,
          "inputs": [
            {
              "indexed": true,
              "internalType": "bytes32",
              "name": "role",
              "type": "bytes32"
            },
            {
              "indexed": true,
              "internalType": "address",
              "name": "account",
              "type": "address"
            },
            {
              "indexed": true,
              "internalType": "address",
              "name": "sender",
              "type": "address"
            }
          ],
          "name": "RoleRevoked",
          "type": "event"
        },
        {
          "anonymous": false,
          "inputs": [
            {
              "indexed": true,
              "internalType": "uint32",
              "name": "marketId",
              "type": "uint32"
            },
            {
              "indexed": true,
              "internalType": "address",
              "name": "user",
              "type": "address"
            },
            {
              "indexed": false,
              "internalType": "uint256",
              "name": "payout",
              "type": "uint256"
            },
            {
              "indexed": false,
              "internalType": "bool",
              "name": "wasVoid",
              "type": "bool"
            }
          ],
          "name": "StakeClaimed",
          "type": "event"
        },
        {
          "anonymous": false,
          "inputs": [
            {
              "indexed": true,
              "internalType": "uint32",
              "name": "marketId",
              "type": "uint32"
            },
            {
              "indexed": true,
              "internalType": "address",
              "name": "user",
              "type": "address"
            },
            {
              "indexed": false,
              "internalType": "enum ConvexMarketManager.Outcome",
              "name": "outcome",
              "type": "uint8"
            },
            {
              "indexed": false,
              "internalType": "uint256",
              "name": "amount",
              "type": "uint256"
            }
          ],
          "name": "StakePlaced",
          "type": "event"
        },
        {
          "anonymous": false,
          "inputs": [
            {
              "indexed": false,
              "internalType": "address",
              "name": "account",
              "type": "address"
            }
          ],
          "name": "Unpaused",
          "type": "event"
        },
        {
          "inputs": [],
          "name": "BPS_DENOMINATOR",
          "outputs": [
            {
              "internalType": "uint16",
              "name": "",
              "type": "uint16"
            }
          ],
          "stateMutability": "view",
          "type": "function"
        },
        {
          "inputs": [],
          "name": "CREATOR_ROLE",
          "outputs": [
            {
              "internalType": "bytes32",
              "name": "",
              "type": "bytes32"
            }
          ],
          "stateMutability": "view",
          "type": "function"
        },
        {
          "inputs": [],
          "name": "DEFAULT_ADMIN_ROLE",
          "outputs": [
            {
              "internalType": "bytes32",
              "name": "",
              "type": "bytes32"
            }
          ],
          "stateMutability": "view",
          "type": "function"
        },
        {
          "inputs": [],
          "name": "GUARDIAN_ROLE",
          "outputs": [
            {
              "internalType": "bytes32",
              "name": "",
              "type": "bytes32"
            }
          ],
          "stateMutability": "view",
          "type": "function"
        },
        {
          "inputs": [],
          "name": "MAX_CREATOR_FEE_BPS",
          "outputs": [
            {
              "internalType": "uint16",
              "name": "",
              "type": "uint16"
            }
          ],
          "stateMutability": "view",
          "type": "function"
        },
        {
          "inputs": [],
          "name": "MAX_PROTOCOL_FEE_BPS",
          "outputs": [
            {
              "internalType": "uint16",
              "name": "",
              "type": "uint16"
            }
          ],
          "stateMutability": "view",
          "type": "function"
        },
        {
          "inputs": [],
          "name": "RESOLVER_ROLE",
          "outputs": [
            {
              "internalType": "bytes32",
              "name": "",
              "type": "bytes32"
            }
          ],
          "stateMutability": "view",
          "type": "function"
        },
        {
          "inputs": [
            {
              "internalType": "uint32",
              "name": "marketId",
              "type": "uint32"
            }
          ],
          "name": "claim",
          "outputs": [],
          "stateMutability": "nonpayable",
          "type": "function"
        },
        {
          "inputs": [
            {
              "internalType": "uint32",
              "name": "marketId",
              "type": "uint32"
            }
          ],
          "name": "closeMarket",
          "outputs": [],
          "stateMutability": "nonpayable",
          "type": "function"
        },
        {
          "inputs": [
            {
              "components": [
                {
                  "internalType": "bytes32",
                  "name": "questionId",
                  "type": "bytes32"
                },
                {
                  "internalType": "uint64",
                  "name": "closeTime",
                  "type": "uint64"
                },
                {
                  "internalType": "address",
                  "name": "resolver",
                  "type": "address"
                },
                {
                  "internalType": "bool",
                  "name": "usesOracle",
                  "type": "bool"
                },
                {
                  "internalType": "uint16",
                  "name": "protocolFeeBps",
                  "type": "uint16"
                },
                {
                  "internalType": "uint16",
                  "name": "creatorFeeBps",
                  "type": "uint16"
                },
                {
                  "internalType": "string",
                  "name": "metadataURI",
                  "type": "string"
                },
                {
                  "components": [
                    {
                      "internalType": "bytes32",
                      "name": "conditionType",
                      "type": "bytes32"
                    },
                    {
                      "internalType": "string",
                      "name": "dataFeedId",
                      "type": "string"
                    },
                    {
                      "internalType": "int256",
                      "name": "targetValue",
                      "type": "int256"
                    },
                    {
                      "internalType": "string",
                      "name": "targetDescription",
                      "type": "string"
                    },
                    {
                      "internalType": "bytes",
                      "name": "extraData",
                      "type": "bytes"
                    }
                  ],
                  "internalType": "struct ConvexMarketManager.OracleCondition",
                  "name": "condition",
                  "type": "tuple"
                }
              ],
              "internalType": "struct ConvexMarketManager.CreateMarketParams",
              "name": "params",
              "type": "tuple"
            }
          ],
          "name": "createMarket",
          "outputs": [
            {
              "internalType": "uint32",
              "name": "marketId",
              "type": "uint32"
            }
          ],
          "stateMutability": "nonpayable",
          "type": "function"
        },
        {
          "inputs": [
            {
              "internalType": "uint32",
              "name": "marketId",
              "type": "uint32"
            }
          ],
          "name": "getOracleCondition",
          "outputs": [
            {
              "components": [
                {
                  "internalType": "bytes32",
                  "name": "conditionType",
                  "type": "bytes32"
                },
                {
                  "internalType": "string",
                  "name": "dataFeedId",
                  "type": "string"
                },
                {
                  "internalType": "int256",
                  "name": "targetValue",
                  "type": "int256"
                },
                {
                  "internalType": "string",
                  "name": "targetDescription",
                  "type": "string"
                },
                {
                  "internalType": "bytes",
                  "name": "extraData",
                  "type": "bytes"
                }
              ],
              "internalType": "struct ConvexMarketManager.OracleCondition",
              "name": "",
              "type": "tuple"
            }
          ],
          "stateMutability": "view",
          "type": "function"
        },
        {
          "inputs": [
            {
              "internalType": "bytes32",
              "name": "role",
              "type": "bytes32"
            }
          ],
          "name": "getRoleAdmin",
          "outputs": [
            {
              "internalType": "bytes32",
              "name": "",
              "type": "bytes32"
            }
          ],
          "stateMutability": "view",
          "type": "function"
        },
        {
          "inputs": [
            {
              "internalType": "bytes32",
              "name": "role",
              "type": "bytes32"
            },
            {
              "internalType": "address",
              "name": "account",
              "type": "address"
            }
          ],
          "name": "grantRole",
          "outputs": [],
          "stateMutability": "nonpayable",
          "type": "function"
        },
        {
          "inputs": [
            {
              "internalType": "bytes32",
              "name": "role",
              "type": "bytes32"
            },
            {
              "internalType": "address",
              "name": "account",
              "type": "address"
            }
          ],
          "name": "hasRole",
          "outputs": [
            {
              "internalType": "bool",
              "name": "",
              "type": "bool"
            }
          ],
          "stateMutability": "view",
          "type": "function"
        },
        {
          "inputs": [
            {
              "internalType": "uint32",
              "name": "marketId",
              "type": "uint32"
            }
          ],
          "name": "marketPools",
          "outputs": [
            {
              "internalType": "uint128",
              "name": "yesPool",
              "type": "uint128"
            },
            {
              "internalType": "uint128",
              "name": "noPool",
              "type": "uint128"
            }
          ],
          "stateMutability": "view",
          "type": "function"
        },
        {
          "inputs": [
            {
              "internalType": "uint32",
              "name": "",
              "type": "uint32"
            }
          ],
          "name": "markets",
          "outputs": [
            {
              "internalType": "bytes32",
              "name": "questionId",
              "type": "bytes32"
            },
            {
              "internalType": "string",
              "name": "metadataURI",
              "type": "string"
            },
            {
              "internalType": "address",
              "name": "creator",
              "type": "address"
            },
            {
              "internalType": "address",
              "name": "resolver",
              "type": "address"
            },
            {
              "internalType": "uint64",
              "name": "closeTime",
              "type": "uint64"
            },
            {
              "internalType": "uint64",
              "name": "resolveTime",
              "type": "uint64"
            },
            {
              "internalType": "uint16",
              "name": "protocolFeeBps",
              "type": "uint16"
            },
            {
              "internalType": "uint16",
              "name": "creatorFeeBps",
              "type": "uint16"
            },
            {
              "internalType": "uint128",
              "name": "yesPool",
              "type": "uint128"
            },
            {
              "internalType": "uint128",
              "name": "noPool",
              "type": "uint128"
            },
            {
              "internalType": "uint128",
              "name": "payoutPool",
              "type": "uint128"
            },
            {
              "internalType": "uint128",
              "name": "totalWinningStake",
              "type": "uint128"
            },
            {
              "internalType": "enum ConvexMarketManager.MarketStatus",
              "name": "status",
              "type": "uint8"
            },
            {
              "internalType": "enum ConvexMarketManager.Outcome",
              "name": "winningOutcome",
              "type": "uint8"
            },
            {
              "internalType": "bool",
              "name": "usesOracle",
              "type": "bool"
            }
          ],
          "stateMutability": "view",
          "type": "function"
        },
        {
          "inputs": [],
          "name": "nextMarketId",
          "outputs": [
            {
              "internalType": "uint32",
              "name": "",
              "type": "uint32"
            }
          ],
          "stateMutability": "view",
          "type": "function"
        },
        {
          "inputs": [],
          "name": "pause",
          "outputs": [],
          "stateMutability": "nonpayable",
          "type": "function"
        },
        {
          "inputs": [],
          "name": "paused",
          "outputs": [
            {
              "internalType": "bool",
              "name": "",
              "type": "bool"
            }
          ],
          "stateMutability": "view",
          "type": "function"
        },
        {
          "inputs": [
            {
              "internalType": "uint32",
              "name": "marketId",
              "type": "uint32"
            },
            {
              "internalType": "address",
              "name": "user",
              "type": "address"
            }
          ],
          "name": "positionOf",
          "outputs": [
            {
              "internalType": "uint128",
              "name": "yesStake",
              "type": "uint128"
            },
            {
              "internalType": "uint128",
              "name": "noStake",
              "type": "uint128"
            }
          ],
          "stateMutability": "view",
          "type": "function"
        },
        {
          "inputs": [
            {
              "internalType": "bytes32",
              "name": "role",
              "type": "bytes32"
            },
            {
              "internalType": "address",
              "name": "callerConfirmation",
              "type": "address"
            }
          ],
          "name": "renounceRole",
          "outputs": [],
          "stateMutability": "nonpayable",
          "type": "function"
        },
        {
          "inputs": [
            {
              "internalType": "uint32",
              "name": "marketId",
              "type": "uint32"
            },
            {
              "internalType": "enum ConvexMarketManager.Outcome",
              "name": "outcome",
              "type": "uint8"
            }
          ],
          "name": "resolveMarket",
          "outputs": [],
          "stateMutability": "nonpayable",
          "type": "function"
        },
        {
          "inputs": [
            {
              "internalType": "bytes32",
              "name": "role",
              "type": "bytes32"
            },
            {
              "internalType": "address",
              "name": "account",
              "type": "address"
            }
          ],
          "name": "revokeRole",
          "outputs": [],
          "stateMutability": "nonpayable",
          "type": "function"
        },
        {
          "inputs": [
            {
              "internalType": "address",
              "name": "newTreasury",
              "type": "address"
            }
          ],
          "name": "setTreasury",
          "outputs": [],
          "stateMutability": "nonpayable",
          "type": "function"
        },
        {
          "inputs": [
            {
              "internalType": "uint32",
              "name": "marketId",
              "type": "uint32"
            },
            {
              "internalType": "enum ConvexMarketManager.Outcome",
              "name": "outcome",
              "type": "uint8"
            },
            {
              "internalType": "uint128",
              "name": "amount",
              "type": "uint128"
            }
          ],
          "name": "stake",
          "outputs": [],
          "stateMutability": "nonpayable",
          "type": "function"
        },
        {
          "inputs": [],
          "name": "stakingToken",
          "outputs": [
            {
              "internalType": "contract IERC20",
              "name": "",
              "type": "address"
            }
          ],
          "stateMutability": "view",
          "type": "function"
        },
        {
          "inputs": [
            {
              "internalType": "bytes4",
              "name": "interfaceId",
              "type": "bytes4"
            }
          ],
          "name": "supportsInterface",
          "outputs": [
            {
              "internalType": "bool",
              "name": "",
              "type": "bool"
            }
          ],
          "stateMutability": "view",
          "type": "function"
        },
        {
          "inputs": [],
          "name": "treasury",
          "outputs": [
            {
              "internalType": "address",
              "name": "",
              "type": "address"
            }
          ],
          "stateMutability": "view",
          "type": "function"
        },
        {
          "inputs": [],
          "name": "unpause",
          "outputs": [],
          "stateMutability": "nonpayable",
          "type": "function"
        },
        {
          "inputs": [
            {
              "internalType": "uint32",
              "name": "marketId",
              "type": "uint32"
            },
            {
              "internalType": "string",
              "name": "newMetadataURI",
              "type": "string"
            }
          ],
          "name": "updateMetadata",
          "outputs": [],
          "stateMutability": "nonpayable",
          "type": "function"
        },
        {
          "inputs": [
            {
              "internalType": "uint32",
              "name": "marketId",
              "type": "uint32"
            },
            {
              "internalType": "address",
              "name": "newResolver",
              "type": "address"
            }
          ],
          "name": "updateResolver",
          "outputs": [],
          "stateMutability": "nonpayable",
          "type": "function"
        }
      ],
      "evm": {
        "bytecode": {
          "linkReferences": {},
          "object": "60a0346100f657601f612a8938819003918201601f19168301916001600160401b038311848410176100fb5780849260409485528339810103126100f6578051906001600160a01b03821682036100f657602001516001600160a01b03811691908290036100f657600160025581156100e557608052600380546001600160a01b03191691909117905561009233610111565b5061009c3361018d565b506100a633610225565b506100b0336102bd565b5060405161269390816103568239608051818181610732015281816109d301528181611b67015281816120f201526121300152f35b631b68fd9560e21b60005260046000fd5b600080fd5b634e487b7160e01b600052604160045260246000fd5b6001600160a01b0381166000908152600080516020612a69833981519152602052604090205460ff16610187576001600160a01b03166000818152600080516020612a6983398151915260205260408120805460ff191660011790553391906000805160206129e98339815191528180a4600190565b50600090565b6001600160a01b0381166000908152600080516020612a09833981519152602052604090205460ff16610187576001600160a01b03166000818152600080516020612a0983398151915260205260408120805460ff191660011790553391907f55435dd261a4b9b3364963f7738a7a662ad9c84396d64be3365284bb7f0a5041906000805160206129e98339815191529080a4600190565b6001600160a01b0381166000908152600080516020612a29833981519152602052604090205460ff16610187576001600160a01b03166000818152600080516020612a2983398151915260205260408120805460ff191660011790553391907f828634d95e775031b9ff576b159a8509d3053581a8c9c4d7d86899e0afcd882f906000805160206129e98339815191529080a4600190565b6001600160a01b0381166000908152600080516020612a49833981519152602052604090205460ff16610187576001600160a01b03166000818152600080516020612a4983398151915260205260408120805460ff191660011790553391907f92a19c77d2ea87c7f81d50c74403cb2f401780f3ad919571121efe2bdb427eb1906000805160206129e98339815191529080a460019056fe608080604052600436101561001357600080fd5b60003560e01c90816301ffc9a714611cd5575080630495189114611ab05780630f2965fb14611a595780631dcb66e614611a23578063248a9ca3146119ee57806324ea54f4146119b35780632f2ff15d1461197357806336568abe1461192d5780633f4ba83a146118c4578063406ef2ef1461189d57806341a35b0014610dc957806342f9f61d14610d5e57806353e3326414610b7b5780635c837e0e146108ff5780635c975abb146108dc57806361d027b3146108b35780636d947e4b146108965780636e3de5f11461076157806372f702f31461071c57806378fab260146106e15780638456cb59146106885780638aeda25a1461064d57806391d148541461060057806399a9b8381461050c578063a217fddf146104f0578063a844a134146104d3578063d2dfe866146103f0578063d547741f146103a9578063e1a452181461038c578063ece91e35146102245763f0f442601461017457600080fd5b3461021f57602036600319011261021f576004356001600160a01b0381169081900361021f573360009081527fad3228b676f7d3cd4284a5443f17f1962b36e491b30a40b2405849e597ba5fb5602052604090205460ff16156102055780156101f4576bffffffffffffffffffffffff60a01b6003541617600355600080f35b631b68fd9560e21b60005260046000fd5b63e2517d3f60e01b60005233600452600060245260446000fd5b600080fd5b3461021f57602036600319011261021f5763ffffffff610242611d28565b166000526004602052604060002080549060405161026e816102678160018601611dcc565b0382611e6a565b60018060a01b03600283015416906003830154926001600160801b0360048201546001600160401b0360066005850154940154966102c660ff8960801c16966040519a8b526101e060208c01526101e08b0190611d51565b9660408a015260018060a01b03811660608a015260a01c1660808801526001600160401b03811660a088015261ffff8160401c1660c088015261ffff8160501c1660e088015260601c166101008601526001600160801b03811661012086015260801c6101408501526001600160801b038316610160850152600481101561037657839260ff916101808501526103666101a08501838360881c16611e8b565b60901c1615156101c08301520390f35b634e487b7160e01b600052602160045260246000fd5b3461021f57600036600319011261021f5760206040516127108152f35b3461021f57604036600319011261021f576103ee6004356103c8611d3b565b906103e96103e482600052600060205260016040600020015490565b6124ae565b612574565b005b3461021f57604036600319011261021f57610409611d28565b6001600160a01b03610419611d3b565b169081156101f45763ffffffff16806000526004602052604060002060018060a01b036002820154163314158061049a575b6104895760030180546001600160a01b031916831790557feb157cb2668d23f3d3e1924852d2c89a1b69c34be499d0b27336fa4386d8b9ee600080a3005b635c427cd960e01b60005260046000fd5b503360009081527fad3228b676f7d3cd4284a5443f17f1962b36e491b30a40b2405849e597ba5fb5602052604090205460ff161561044b565b3461021f57600036600319011261021f57602060405161012c8152f35b3461021f57600036600319011261021f57602060405160008152f35b3461021f57602036600319011261021f5763ffffffff61052a611d28565b168060005260046020526040600020600681019060ff825460801c166004811015610376576105ef57600201546001600160a01b0316331415806105b6575b6105a557805460ff60801b1916600160801b1790557fe1328b86cdae5dd5994d0d78818f16a4e29f10862635641734790a4dac8a2849600080a2005b630c59ad5760e01b60005260046000fd5b503360009081527f8a40f0b47fdc2a0ce293b772acfc7508c8315a4d462786c1adc3a56f92ca2d05602052604090205460ff1615610569565b63d9693bdd60e01b60005260046000fd5b3461021f57604036600319011261021f57610619611d3b565b600435600052600060205260406000209060018060a01b0316600052602052602060ff604060002054166040519015158152f35b3461021f57600036600319011261021f5760206040517f828634d95e775031b9ff576b159a8509d3053581a8c9c4d7d86899e0afcd882f8152f35b3461021f57600036600319011261021f576106a161243c565b6106a961241f565b600160ff19815416176001557f62e78cea01bee320cd4e420270b5ea74000d11b0c9f74754ebdbfc544b05a2586020604051338152a1005b3461021f57600036600319011261021f5760206040517f92a19c77d2ea87c7f81d50c74403cb2f401780f3ad919571121efe2bdb427eb18152f35b3461021f57600036600319011261021f576040517f00000000000000000000000000000000000000000000000000000000000000006001600160a01b03168152602090f35b3461021f57602036600319011261021f5763ffffffff61077f611d28565b6060608060405161078f81611e4f565b60008152826020820152600060408201528280820152015216600052600560205260406000206040516107c181611e4f565b81548152610892600461087f604051946107e9866107e28160018501611dcc565b0387611e6a565b602085019586526002810154906040860191825261083a6040519161081c836108158160038501611dcc565b0384611e6a565b606088019283526108336040518097819301611dcc565b0385611e6a565b60808601938452610866604051978897602089525160208901525160a0604089015260c0880190611d51565b9151606087015251858203601f19016080870152611d51565b9051838203601f190160a0850152611d51565b0390f35b3461021f57600036600319011261021f5760206040516101f48152f35b3461021f57600036600319011261021f576003546040516001600160a01b039091168152602090f35b3461021f57600036600319011261021f57602060ff600154166040519015158152f35b3461021f57606036600319011261021f57610918611d28565b60243590600382101561021f576044356001600160801b0381169081810361021f5761094261241f565b61094a6123bd565b8115610b6a576000928415610b5b5763ffffffff16928381526004602052604081209060ff600683015460801c166004811015610b4757610b38576001600160401b03600383015460a01c16421015610b29576109f76040516323b872dd60e01b6020820152336024820152306044820152856064820152606481526109d1608482611e6a565b7f00000000000000000000000000000000000000000000000000000000000000006125f6565b848152600660209081526040808320338452909152902060018603610ac95760048392826001600160801b03610a36610a8a9782610a5b975416611eab565b166001600160801b031982541617905501916001600160801b03835460601c16611eab565b81546fffffffffffffffffffffffffffffffff60601b191660609190911b600160601b600160e01b0316179055565b610a976040518094611e8b565b60208301527f5b6c06a6da0b878c1cfcd312bac508d1494fe83c405f922e1273c903b292a48560403393a36001600255005b60056001600160801b0392610b0983610ae987610b14965460801c611eab565b81546001600160801b031660809190911b6001600160801b031916179055565b019282845416611eab565b166001600160801b0319825416179055610a8a565b63de3952ff60e01b8152600490fd5b63d9693bdd60e01b8152600490fd5b634e487b7160e01b82526021600452602482fd5b630f69b88160e11b8452600484fd5b631f2a200560e01b60005260046000fd5b3461021f57604036600319011261021f57610b94611d28565b602435906001600160401b03821161021f573660238301121561021f578160040135906001600160401b03821161021f57366024838501011161021f5763ffffffff16806000526004602052604060002060018060a01b0360028201541633141580610d25575b6104895760010192600092610c1a81610c148754611d92565b8761234a565b8394601f8211600114610c9c57610c6b828087987f910ab093c29152ecb3537abb3dd7e41b43161cc9644949d99c08e3bf4e76e2c6979891610c8e575b508160011b916000199060031b1c19161790565b90555b610c8860405192839260208452602460208501920161239c565b0390a280f35b602491508601013589610c57565b80855260208520601f19831696865b888110610d0a5750837f910ab093c29152ecb3537abb3dd7e41b43161cc9644949d99c08e3bf4e76e2c696979810610ced575b5050600182811b019055610c6e565b840160240135600019600385901b60f8161c191690558680610cde565b90916020600181926024868a01013581550193019101610cab565b503360009081527fad3228b676f7d3cd4284a5443f17f1962b36e491b30a40b2405849e597ba5fb5602052604090205460ff1615610bfb565b3461021f57604036600319011261021f57610d77611d28565b63ffffffff610d84611d3b565b911660009081526006602090815260408083206001600160a01b039094168352928152908290205482516001600160801b038216815260809190911c91810191909152f35b3461021f57602036600319011261021f576001600160401b036004351161021f576101006004353603600319011261021f57610e0361241f565b3360009081527ffb6cfbf0a6e77dfd309859bf4bad2c7342bd2b734e42c01cbc85d3e6dd74f95e602052604090205460ff161561188c57610e48602460043501612279565b6001600160401b03429116111561187b576101f461ffff610e6d60846004350161228d565b1611801561185f575b61184e576001600160a01b03610e9060043560440161229c565b16156101f457610ea46064600435016122b0565b80611832575b6118215760035463ffffffff808260a01c161461180b5763ffffffff60a01b19811660a082811c63ffffffff16600101901b63ffffffff60a01b1617600355610efb6004803560c4810191016122d2565b9190610f0b60446004350161229c565b610f19602460043501612279565b610f2760846004350161228d565b92610f3660a46004350161228d565b90610f456064600435016122b0565b94604051976101e08901948986106001600160401b038711176117f557610f8861ffff96946001600160401b03938896604052600435600401358d523691612304565b9660208b019788523360408c015260018060a01b031660608b0152166080890152600060a08901521660c08701521660e08501526000610100850152600061012085015260006101408501526000610160850152600061018085015260006101a08501526101c08401911515825263ffffffff8360a01c16600052600460205260406000209084518255518051906001600160401b0382116117f55761103e826110356001860154611d92565b6001860161234a565b602090601f83116001146117835791806110739260069594600092611665575b50508160011b916000199060031b1c19161790565b60018201555b6040858101516002830180546001600160a01b0319166001600160a01b0392831617905560608088015160038501805460808b01516001600160e01b0319918216939095169290921760a094851b67ffffffffffffffff60a01b161790559188015160048501805460c08b015160e08c01516101008d0151929096166001600160401b0394909416939093179290951b69ffff0000000000000000169190911760509390931b61ffff60501b169290921792901b600160601b600160e01b031691909117905561012085015161014086015160801b6001600160801b0319166001600160801b039190911617600582015501906001600160801b038061016086015116166001600160801b0319835416178255610180840151936004851015610376576101a09060009584549060ff60801b9060801b169060ff60801b19161784550151600381101561176f576111d09083611ecb565b51815460ff60901b191690151560901b60ff60901b161790556111f76004356064016122b0565b6112ee575b60209061120d60446004350161229c565b61121b602460043501612279565b6001600160401b0361ffff6112346064600435016122b0565b8161124360846004350161228d565b61125160a46004350161228d565b9261126660c4600435016004356004016122d2565b9690976040519960018060a01b03168a52168a8901521515604088015216606086015216608084015260c060a08401527f5aa425d138a43f7411d406ef7b6d8d6c4384330da1ece8f03ec428f715127bc43393806112da600435600401359563ffffffff8960a01c169560c084019161239c565b0390a463ffffffff6040519160a01c168152f35b61130260e4600435016004356004016122bd565b356113b961132761131d60e4600435016004356004016122bd565b60208101906122d2565b6113c8604061134060e4600435016004356004016122bd565b01359161136461135a60e4600435016004356004016122bd565b60608101906122d2565b95906113a361138a61138060e4600435016004356004016122bd565b60808101906122d2565b9790946040519a61139a8c611e4f565b8b523691612304565b9660208901978852604089019586523691612304565b93606087019485523691612304565b926080850193845263ffffffff8660a01c16875260056020526040872094518555518051906001600160401b03821161175b576114158261140c6001890154611d92565b6001890161234a565b602090601f83116001146116f25761144492918991836116e75750508160011b916000199060031b1c19161790565b60018501555b51600284015551805160038401916001600160401b0382116116d35761147a826114748554611d92565b8561234a565b602090601f8311600114611670576114a992918891836116655750508160011b916000199060031b1c19161790565b90555b518051906001600160401b03821161165157936020946114dc836114d36004870154611d92565b6004870161234a565b8591601f84116001146115e65760049361150c939092836115db5750508160011b916000199060031b1c19161790565b9101555b61152460e4600435016004356004016122bd565b356115d37f0d60766cd5d968d42facb85c1aa353dd7bb048f68746369f022109eb2a55344461157361156c61156360e4600435016004356004016122bd565b878101906122d2565b3691612304565b858151910120604061158f60e4600435016004356004016122bd565b0135906115a961135a60e4600435016004356004016122bd565b94906040519384938452898401526060604084015263ffffffff8860a01c1695606084019161239c565b0390a36111fc565b01519050878061105e565b9190600485018352818320925b601f198516811061163a5750918391600193600495601f19811610611621575b505050811b01910155611510565b015160001960f88460031b161c19169055868080611613565b9192876001819286850151815501940192016115f3565b634e487b7160e01b85526041600452602485fd5b01519050888061105e565b8388528188209190601f198416895b8181106116bb57509084600195949392106116a2575b505050811b0190556114ac565b015160001960f88460031b161c19169055878080611695565b9293602060018192878601518155019501930161167f565b634e487b7160e01b87526041600452602487fd5b01519050898061105e565b6001870189528189209190601f1984168a5b818110611743575090846001959493921061172a575b505050811b01600185015561144a565b015160001960f88460031b161c1916905588808061171a565b92936020600181928786015181550195019301611704565b634e487b7160e01b88526041600452602488fd5b634e487b7160e01b85526021600452602485fd5b9060018401600052806000209160005b601f19851681106117dd575091839160019360069695601f198116106117c4575b505050811b016001820155611079565b015160001960f88460031b161c191690558780806117b4565b91926020600181928685015181550194019201611793565b634e487b7160e01b600052604160045260246000fd5b634e487b7160e01b600052601160045260246000fd5b635d807f6760e01b60005260046000fd5b5061184760e4600435016004356004016122bd565b3515610eaa565b6358d620b360e01b60005260046000fd5b5061012c61ffff61187460a46004350161228d565b1611610e76565b6395295d1560e01b60005260046000fd5b638ef0dd5d60e01b60005260046000fd5b3461021f57600036600319011261021f57602063ffffffff60035460a01c16604051908152f35b3461021f57600036600319011261021f576118dd61243c565b60015460ff81161561191c5760ff19166001557f5db9ee0a495bf2e6ff9c91a7834c1ba4fdd244a5e8aa4e537bd38aeae4b073aa6020604051338152a1005b638dfc202b60e01b60005260046000fd5b3461021f57604036600319011261021f57611946611d3b565b336001600160a01b03821603611962576103ee90600435612574565b63334bd91960e11b60005260046000fd5b3461021f57604036600319011261021f576103ee600435611992611d3b565b906119ae6103e482600052600060205260016040600020015490565b6124e9565b3461021f57600036600319011261021f5760206040517f55435dd261a4b9b3364963f7738a7a662ad9c84396d64be3365284bb7f0a50418152f35b3461021f57602036600319011261021f576020611a1b600435600052600060205260016040600020015490565b604051908152f35b3461021f57604036600319011261021f57611a3c611d28565b602435600381101561021f576103ee91611a5461241f565b611efc565b3461021f57602036600319011261021f5763ffffffff611a77611d28565b166000908152600460208181526040928390209182015460059092015483516001600160801b0360609490941c84168152921690820152f35b3461021f57602036600319011261021f5763ffffffff611ace611d28565b611ad66123bd565b16806000526004602052604060002090600682019182549260ff8460801c1691600483101592836103765780158015611cc7575b611cb657600085815260066020908152604080832033845290915290209361037657600314948515611bd4575050506001600160801b03611b528254828160801c9116611eab565b16908115611bc35760009055915b611b8b83337f00000000000000000000000000000000000000000000000000000000000000006123dd565b60405192835260208301527fb2ec9c67b236a39ccca91f6c3f79a7e734543e274dea51c5f3201a42c125c7a260403393a36001600255005b6312d37ee560e31b60005260046000fd5b60ff906088949293941c1691600383101561037657600183148015611ca4576001600160801b03808454165b16918215611bc357611c4b611c569460026001600160801b0397600595600090600014611c9a5789815b168a198554161784555014600014611c7d5780546001600160801b03169055565b015460801c90611e98565b915416908115611c67570491611b60565b634e487b7160e01b600052601260045260246000fd5b80546001600160801b0381166001600160801b0319909116179055565b8980855416611c2a565b6001600160801b03835460801c611c00565b63174b639360e11b60005260046000fd5b506000935060018114611b0a565b3461021f57602036600319011261021f576004359063ffffffff60e01b821680920361021f57602091637965db0b60e01b8114908115611d17575b5015158152f35b6301ffc9a760e01b14905083611d10565b6004359063ffffffff8216820361021f57565b602435906001600160a01b038216820361021f57565b919082519283825260005b848110611d7d575050826000602080949584010152601f8019910116010190565b80602080928401015182828601015201611d5c565b90600182811c92168015611dc2575b6020831014611dac57565b634e487b7160e01b600052602260045260246000fd5b91607f1691611da1565b60009291815491611ddc83611d92565b8083529260018116908115611e325750600114611df857505050565b60009081526020812093945091925b838310611e18575060209250010190565b600181602092949394548385870101520191019190611e07565b915050602093945060ff929192191683830152151560051b010190565b60a081019081106001600160401b038211176117f557604052565b90601f801991011681019081106001600160401b038211176117f557604052565b9060038210156103765752565b8181029291811591840414171561180b57565b906001600160801b03809116911601906001600160801b03821161180b57565b90600381101561037657815460ff60881b191660889190911b60ff60881b16179055565b9190820391821161180b57565b60038210156103765781156122685763ffffffff16908160005260046020526040600020906006820191825460ff8160801c166004811015610376576002146122575760038201546001600160401b038160a01c164210612246576001600160a01b03163314158061220d575b6121fc5760901c60ff16806121e6575b6118215760048101906001600160801b03825460601c169060058101916001600160801b038354166001600160801b03611fb38284611eab565b865467ffffffffffffffff1916426001600160401b0316178755169182156121a2576001600160801b03906000926001891460001461219b57505b1694851561215a57917f718edde5fd22ae91fef18a040ec4d17769889f06d02e71a70758859d556040ce976120a36001600160801b0361ffff9461206960609b9a999897549561206461271061205b8161204d8c8c60401c1686611e98565b049a8b9a60501c1684611e98565b04988992611eef565b611eef565b845460ff60801b1916600160811b17855590506120868a85611ecb565b168096906001600160801b0382549181199060801b169116179055565b80546001600160801b031916861790558061211d575b50806120dc575b50506120cf6040518094611e8b565b60208301526040820152a2565b60029091015461211691906001600160a01b03167f00000000000000000000000000000000000000000000000000000000000000006123dd565b38806120c0565b60035461215491906001600160a01b03167f00000000000000000000000000000000000000000000000000000000000000006123dd565b386120b9565b50865461ffff60801b1916600360801b17909655507ff92a486355d4079c0d685a1ae91c99398e0e0b06b6e4a4924dfd849e11d811e89493508392505050a2565b9050611fee565b5050855461ffff60801b1916600360801b17909555507ff92a486355d4079c0d685a1ae91c99398e0e0b06b6e4a4924dfd849e11d811e893506000925082915050a2565b5083600052600560205260406000205415611f79565b63066fba9760e41b60005260046000fd5b503360009081527f40da0f42a661166d5434d4603ecbff423639c47e2526ad0538d7c3517a623890602052604090205460ff1615611f69565b63573aa9c560e11b60005260046000fd5b63aa43cb2d60e01b60005260046000fd5b630f69b88160e11b60005260046000fd5b356001600160401b038116810361021f5790565b3561ffff8116810361021f5790565b356001600160a01b038116810361021f5790565b35801515810361021f5790565b903590609e198136030182121561021f570190565b903590601e198136030182121561021f57018035906001600160401b03821161021f5760200191813603831361021f57565b9291926001600160401b0382116117f5576040519161232d601f8201601f191660200184611e6a565b82948184528183011161021f578281602093846000960137010152565b601f821161235757505050565b6000526020600020906020601f840160051c83019310612392575b601f0160051c01905b818110612386575050565b6000815560010161237b565b9091508190612372565b908060209392818452848401376000828201840152601f01601f1916010190565b60028054146123cc5760028055565b633ee5aeb560e01b60005260046000fd5b60405163a9059cbb60e01b60208201526001600160a01b03909216602483015260448083019390935291815261241d91612418606483611e6a565b6125f6565b565b60ff6001541661242b57565b63d93c066560e01b60005260046000fd5b3360009081527f8a40f0b47fdc2a0ce293b772acfc7508c8315a4d462786c1adc3a56f92ca2d05602052604090205460ff161561247557565b63e2517d3f60e01b600052336004527f55435dd261a4b9b3364963f7738a7a662ad9c84396d64be3365284bb7f0a504160245260446000fd5b60008181526020818152604080832033845290915290205460ff16156124d15750565b63e2517d3f60e01b6000523360045260245260446000fd5b6000818152602081815260408083206001600160a01b038616845290915290205460ff1661256d576000818152602081815260408083206001600160a01b0395909516808452949091528120805460ff19166001179055339291907f2f8788117e7eff1d82e926ec794901d17c78024a50270940304540a733656f0d9080a4600190565b5050600090565b6000818152602081815260408083206001600160a01b038616845290915290205460ff161561256d576000818152602081815260408083206001600160a01b0395909516808452949091528120805460ff19169055339291907ff6391f5c32d9c69d2a47ea670b442974b53935d1edc7fd64eb21e047a839171b9080a4600190565b906000602091828151910182855af115612651576000513d61264857506001600160a01b0381163b155b6126275750565b635274afe760e01b60009081526001600160a01b0391909116600452602490fd5b60011415612620565b6040513d6000823e3d90fdfea26469706673582212206a7cf798b1c8b2f7f86da9f98c3524815576fc61793456dabcf683a14dd8ca9e64736f6c634300081c00332f8788117e7eff1d82e926ec794901d17c78024a50270940304540a733656f0d8a40f0b47fdc2a0ce293b772acfc7508c8315a4d462786c1adc3a56f92ca2d05fb6cfbf0a6e77dfd309859bf4bad2c7342bd2b734e42c01cbc85d3e6dd74f95e40da0f42a661166d5434d4603ecbff423639c47e2526ad0538d7c3517a623890ad3228b676f7d3cd4284a5443f17f1962b36e491b30a40b2405849e597ba5fb5",
          "opcodes": "PUSH1 0xA0 CALLVALUE PUSH2 0xF6 JUMPI PUSH1 0x1F PUSH2 0x2A89 CODESIZE DUP2 SWAP1 SUB SWAP2 DUP3 ADD PUSH1 0x1F NOT AND DUP4 ADD SWAP2 PUSH1 0x1 PUSH1 0x1 PUSH1 0x40 SHL SUB DUP4 GT DUP5 DUP5 LT OR PUSH2 0xFB JUMPI DUP1 DUP5 SWAP3 PUSH1 0x40 SWAP5 DUP6 MSTORE DUP4 CODECOPY DUP2 ADD SUB SLT PUSH2 0xF6 JUMPI DUP1 MLOAD SWAP1 PUSH1 0x1 PUSH1 0x1 PUSH1 0xA0 SHL SUB DUP3 AND DUP3 SUB PUSH2 0xF6 JUMPI PUSH1 0x20 ADD MLOAD PUSH1 0x1 PUSH1 0x1 PUSH1 0xA0 SHL SUB DUP2 AND SWAP2 SWAP1 DUP3 SWAP1 SUB PUSH2 0xF6 JUMPI PUSH1 0x1 PUSH1 0x2 SSTORE DUP2 ISZERO PUSH2 0xE5 JUMPI PUSH1 0x80 MSTORE PUSH1 0x3 DUP1 SLOAD PUSH1 0x1 PUSH1 0x1 PUSH1 0xA0 SHL SUB NOT AND SWAP2 SWAP1 SWAP2 OR SWAP1 SSTORE PUSH2 0x92 CALLER PUSH2 0x111 JUMP JUMPDEST POP PUSH2 0x9C CALLER PUSH2 0x18D JUMP JUMPDEST POP PUSH2 0xA6 CALLER PUSH2 0x225 JUMP JUMPDEST POP PUSH2 0xB0 CALLER PUSH2 0x2BD JUMP JUMPDEST POP PUSH1 0x40 MLOAD PUSH2 0x2693 SWAP1 DUP2 PUSH2 0x356 DUP3 CODECOPY PUSH1 0x80 MLOAD DUP2 DUP2 DUP2 PUSH2 0x732 ADD MSTORE DUP2 DUP2 PUSH2 0x9D3 ADD MSTORE DUP2 DUP2 PUSH2 0x1B67 ADD MSTORE DUP2 DUP2 PUSH2 0x20F2 ADD MSTORE PUSH2 0x2130 ADD MSTORE RETURN JUMPDEST PUSH4 0x1B68FD95 PUSH1 0xE2 SHL PUSH1 0x0 MSTORE PUSH1 0x4 PUSH1 0x0 REVERT JUMPDEST PUSH1 0x0 DUP1 REVERT JUMPDEST PUSH4 0x4E487B71 PUSH1 0xE0 SHL PUSH1 0x0 MSTORE PUSH1 0x41 PUSH1 0x4 MSTORE PUSH1 0x24 PUSH1 0x0 REVERT JUMPDEST PUSH1 0x1 PUSH1 0x1 PUSH1 0xA0 SHL SUB DUP2 AND PUSH1 0x0 SWAP1 DUP2 MSTORE PUSH1 0x0 DUP1 MLOAD PUSH1 0x20 PUSH2 0x2A69 DUP4 CODECOPY DUP2 MLOAD SWAP2 MSTORE PUSH1 0x20 MSTORE PUSH1 0x40 SWAP1 KECCAK256 SLOAD PUSH1 0xFF AND PUSH2 0x187 JUMPI PUSH1 0x1 PUSH1 0x1 PUSH1 0xA0 SHL SUB AND PUSH1 0x0 DUP2 DUP2 MSTORE PUSH1 0x0 DUP1 MLOAD PUSH1 0x20 PUSH2 0x2A69 DUP4 CODECOPY DUP2 MLOAD SWAP2 MSTORE PUSH1 0x20 MSTORE PUSH1 0x40 DUP2 KECCAK256 DUP1 SLOAD PUSH1 0xFF NOT AND PUSH1 0x1 OR SWAP1 SSTORE CALLER SWAP2 SWAP1 PUSH1 0x0 DUP1 MLOAD PUSH1 0x20 PUSH2 0x29E9 DUP4 CODECOPY DUP2 MLOAD SWAP2 MSTORE DUP2 DUP1 LOG4 PUSH1 0x1 SWAP1 JUMP JUMPDEST POP PUSH1 0x0 SWAP1 JUMP JUMPDEST PUSH1 0x1 PUSH1 0x1 PUSH1 0xA0 SHL SUB DUP2 AND PUSH1 0x0 SWAP1 DUP2 MSTORE PUSH1 0x0 DUP1 MLOAD PUSH1 0x20 PUSH2 0x2A09 DUP4 CODECOPY DUP2 MLOAD SWAP2 MSTORE PUSH1 0x20 MSTORE PUSH1 0x40 SWAP1 KECCAK256 SLOAD PUSH1 0xFF AND PUSH2 0x187 JUMPI PUSH1 0x1 PUSH1 0x1 PUSH1 0xA0 SHL SUB AND PUSH1 0x0 DUP2 DUP2 MSTORE PUSH1 0x0 DUP1 MLOAD PUSH1 0x20 PUSH2 0x2A09 DUP4 CODECOPY DUP2 MLOAD SWAP2 MSTORE PUSH1 0x20 MSTORE PUSH1 0x40 DUP2 KECCAK256 DUP1 SLOAD PUSH1 0xFF NOT AND PUSH1 0x1 OR SWAP1 SSTORE CALLER SWAP2 SWAP1 PUSH32 0x55435DD261A4B9B3364963F7738A7A662AD9C84396D64BE3365284BB7F0A5041 SWAP1 PUSH1 0x0 DUP1 MLOAD PUSH1 0x20 PUSH2 0x29E9 DUP4 CODECOPY DUP2 MLOAD SWAP2 MSTORE SWAP1 DUP1 LOG4 PUSH1 0x1 SWAP1 JUMP JUMPDEST PUSH1 0x1 PUSH1 0x1 PUSH1 0xA0 SHL SUB DUP2 AND PUSH1 0x0 SWAP1 DUP2 MSTORE PUSH1 0x0 DUP1 MLOAD PUSH1 0x20 PUSH2 0x2A29 DUP4 CODECOPY DUP2 MLOAD SWAP2 MSTORE PUSH1 0x20 MSTORE PUSH1 0x40 SWAP1 KECCAK256 SLOAD PUSH1 0xFF AND PUSH2 0x187 JUMPI PUSH1 0x1 PUSH1 0x1 PUSH1 0xA0 SHL SUB AND PUSH1 0x0 DUP2 DUP2 MSTORE PUSH1 0x0 DUP1 MLOAD PUSH1 0x20 PUSH2 0x2A29 DUP4 CODECOPY DUP2 MLOAD SWAP2 MSTORE PUSH1 0x20 MSTORE PUSH1 0x40 DUP2 KECCAK256 DUP1 SLOAD PUSH1 0xFF NOT AND PUSH1 0x1 OR SWAP1 SSTORE CALLER SWAP2 SWAP1 PUSH32 0x828634D95E775031B9FF576B159A8509D3053581A8C9C4D7D86899E0AFCD882F SWAP1 PUSH1 0x0 DUP1 MLOAD PUSH1 0x20 PUSH2 0x29E9 DUP4 CODECOPY DUP2 MLOAD SWAP2 MSTORE SWAP1 DUP1 LOG4 PUSH1 0x1 SWAP1 JUMP JUMPDEST PUSH1 0x1 PUSH1 0x1 PUSH1 0xA0 SHL SUB DUP2 AND PUSH1 0x0 SWAP1 DUP2 MSTORE PUSH1 0x0 DUP1 MLOAD PUSH1 0x20 PUSH2 0x2A49 DUP4 CODECOPY DUP2 MLOAD SWAP2 MSTORE PUSH1 0x20 MSTORE PUSH1 0x40 SWAP1 KECCAK256 SLOAD PUSH1 0xFF AND PUSH2 0x187 JUMPI PUSH1 0x1 PUSH1 0x1 PUSH1 0xA0 SHL SUB AND PUSH1 0x0 DUP2 DUP2 MSTORE PUSH1 0x0 DUP1 MLOAD PUSH1 0x20 PUSH2 0x2A49 DUP4 CODECOPY DUP2 MLOAD SWAP2 MSTORE PUSH1 0x20 MSTORE PUSH1 0x40 DUP2 KECCAK256 DUP1 SLOAD PUSH1 0xFF NOT AND PUSH1 0x1 OR SWAP1 SSTORE CALLER SWAP2 SWAP1 PUSH32 0x92A19C77D2EA87C7F81D50C74403CB2F401780F3AD919571121EFE2BDB427EB1 SWAP1 PUSH1 0x0 DUP1 MLOAD PUSH1 0x20 PUSH2 0x29E9 DUP4 CODECOPY DUP2 MLOAD SWAP2 MSTORE SWAP1 DUP1 LOG4 PUSH1 0x1 SWAP1 JUMP INVALID PUSH1 0x80 DUP1 PUSH1 0x40 MSTORE PUSH1 0x4 CALLDATASIZE LT ISZERO PUSH2 0x13 JUMPI PUSH1 0x0 DUP1 REVERT JUMPDEST PUSH1 0x0 CALLDATALOAD PUSH1 0xE0 SHR SWAP1 DUP2 PUSH4 0x1FFC9A7 EQ PUSH2 0x1CD5 JUMPI POP DUP1 PUSH4 0x4951891 EQ PUSH2 0x1AB0 JUMPI DUP1 PUSH4 0xF2965FB EQ PUSH2 0x1A59 JUMPI DUP1 PUSH4 0x1DCB66E6 EQ PUSH2 0x1A23 JUMPI DUP1 PUSH4 0x248A9CA3 EQ PUSH2 0x19EE JUMPI DUP1 PUSH4 0x24EA54F4 EQ PUSH2 0x19B3 JUMPI DUP1 PUSH4 0x2F2FF15D EQ PUSH2 0x1973 JUMPI DUP1 PUSH4 0x36568ABE EQ PUSH2 0x192D JUMPI DUP1 PUSH4 0x3F4BA83A EQ PUSH2 0x18C4 JUMPI DUP1 PUSH4 0x406EF2EF EQ PUSH2 0x189D JUMPI DUP1 PUSH4 0x41A35B00 EQ PUSH2 0xDC9 JUMPI DUP1 PUSH4 0x42F9F61D EQ PUSH2 0xD5E JUMPI DUP1 PUSH4 0x53E33264 EQ PUSH2 0xB7B JUMPI DUP1 PUSH4 0x5C837E0E EQ PUSH2 0x8FF JUMPI DUP1 PUSH4 0x5C975ABB EQ PUSH2 0x8DC JUMPI DUP1 PUSH4 0x61D027B3 EQ PUSH2 0x8B3 JUMPI DUP1 PUSH4 0x6D947E4B EQ PUSH2 0x896 JUMPI DUP1 PUSH4 0x6E3DE5F1 EQ PUSH2 0x761 JUMPI DUP1 PUSH4 0x72F702F3 EQ PUSH2 0x71C JUMPI DUP1 PUSH4 0x78FAB260 EQ PUSH2 0x6E1 JUMPI DUP1 PUSH4 0x8456CB59 EQ PUSH2 0x688 JUMPI DUP1 PUSH4 0x8AEDA25A EQ PUSH2 0x64D JUMPI DUP1 PUSH4 0x91D14854 EQ PUSH2 0x600 JUMPI DUP1 PUSH4 0x99A9B838 EQ PUSH2 0x50C JUMPI DUP1 PUSH4 0xA217FDDF EQ PUSH2 0x4F0 JUMPI DUP1 PUSH4 0xA844A134 EQ PUSH2 0x4D3 JUMPI DUP1 PUSH4 0xD2DFE866 EQ PUSH2 0x3F0 JUMPI DUP1 PUSH4 0xD547741F EQ PUSH2 0x3A9 JUMPI DUP1 PUSH4 0xE1A45218 EQ PUSH2 0x38C JUMPI DUP1 PUSH4 0xECE91E35 EQ PUSH2 0x224 JUMPI PUSH4 0xF0F44260 EQ PUSH2 0x174 JUMPI PUSH1 0x0 DUP1 REVERT JUMPDEST CALLVALUE PUSH2 0x21F JUMPI PUSH1 0x20 CALLDATASIZE PUSH1 0x3 NOT ADD SLT PUSH2 0x21F JUMPI PUSH1 0x4 CALLDATALOAD PUSH1 0x1 PUSH1 0x1 PUSH1 0xA0 SHL SUB DUP2 AND SWAP1 DUP2 SWAP1 SUB PUSH2 0x21F JUMPI CALLER PUSH1 0x0 SWAP1 DUP2 MSTORE PUSH32 0xAD3228B676F7D3CD4284A5443F17F1962B36E491B30A40B2405849E597BA5FB5 PUSH1 0x20 MSTORE PUSH1 0x40 SWAP1 KECCAK256 SLOAD PUSH1 0xFF AND ISZERO PUSH2 0x205 JUMPI DUP1 ISZERO PUSH2 0x1F4 JUMPI PUSH12 0xFFFFFFFFFFFFFFFFFFFFFFFF PUSH1 0xA0 SHL PUSH1 0x3 SLOAD AND OR PUSH1 0x3 SSTORE PUSH1 0x0 DUP1 RETURN JUMPDEST PUSH4 0x1B68FD95 PUSH1 0xE2 SHL PUSH1 0x0 MSTORE PUSH1 0x4 PUSH1 0x0 REVERT JUMPDEST PUSH4 0xE2517D3F PUSH1 0xE0 SHL PUSH1 0x0 MSTORE CALLER PUSH1 0x4 MSTORE PUSH1 0x0 PUSH1 0x24 MSTORE PUSH1 0x44 PUSH1 0x0 REVERT JUMPDEST PUSH1 0x0 DUP1 REVERT JUMPDEST CALLVALUE PUSH2 0x21F JUMPI PUSH1 0x20 CALLDATASIZE PUSH1 0x3 NOT ADD SLT PUSH2 0x21F JUMPI PUSH4 0xFFFFFFFF PUSH2 0x242 PUSH2 0x1D28 JUMP JUMPDEST AND PUSH1 0x0 MSTORE PUSH1 0x4 PUSH1 0x20 MSTORE PUSH1 0x40 PUSH1 0x0 KECCAK256 DUP1 SLOAD SWAP1 PUSH1 0x40 MLOAD PUSH2 0x26E DUP2 PUSH2 0x267 DUP2 PUSH1 0x1 DUP7 ADD PUSH2 0x1DCC JUMP JUMPDEST SUB DUP3 PUSH2 0x1E6A JUMP JUMPDEST PUSH1 0x1 DUP1 PUSH1 0xA0 SHL SUB PUSH1 0x2 DUP4 ADD SLOAD AND SWAP1 PUSH1 0x3 DUP4 ADD SLOAD SWAP3 PUSH1 0x1 PUSH1 0x1 PUSH1 0x80 SHL SUB PUSH1 0x4 DUP3 ADD SLOAD PUSH1 0x1 PUSH1 0x1 PUSH1 0x40 SHL SUB PUSH1 0x6 PUSH1 0x5 DUP6 ADD SLOAD SWAP5 ADD SLOAD SWAP7 PUSH2 0x2C6 PUSH1 0xFF DUP10 PUSH1 0x80 SHR AND SWAP7 PUSH1 0x40 MLOAD SWAP11 DUP12 MSTORE PUSH2 0x1E0 PUSH1 0x20 DUP13 ADD MSTORE PUSH2 0x1E0 DUP12 ADD SWAP1 PUSH2 0x1D51 JUMP JUMPDEST SWAP7 PUSH1 0x40 DUP11 ADD MSTORE PUSH1 0x1 DUP1 PUSH1 0xA0 SHL SUB DUP2 AND PUSH1 0x60 DUP11 ADD MSTORE PUSH1 0xA0 SHR AND PUSH1 0x80 DUP9 ADD MSTORE PUSH1 0x1 PUSH1 0x1 PUSH1 0x40 SHL SUB DUP2 AND PUSH1 0xA0 DUP9 ADD MSTORE PUSH2 0xFFFF DUP2 PUSH1 0x40 SHR AND PUSH1 0xC0 DUP9 ADD MSTORE PUSH2 0xFFFF DUP2 PUSH1 0x50 SHR AND PUSH1 0xE0 DUP9 ADD MSTORE PUSH1 0x60 SHR AND PUSH2 0x100 DUP7 ADD MSTORE PUSH1 0x1 PUSH1 0x1 PUSH1 0x80 SHL SUB DUP2 AND PUSH2 0x120 DUP7 ADD MSTORE PUSH1 0x80 SHR PUSH2 0x140 DUP6 ADD MSTORE PUSH1 0x1 PUSH1 0x1 PUSH1 0x80 SHL SUB DUP4 AND PUSH2 0x160 DUP6 ADD MSTORE PUSH1 0x4 DUP2 LT ISZERO PUSH2 0x376 JUMPI DUP4 SWAP3 PUSH1 0xFF SWAP2 PUSH2 0x180 DUP6 ADD MSTORE PUSH2 0x366 PUSH2 0x1A0 DUP6 ADD DUP4 DUP4 PUSH1 0x88 SHR AND PUSH2 0x1E8B JUMP JUMPDEST PUSH1 0x90 SHR AND ISZERO ISZERO PUSH2 0x1C0 DUP4 ADD MSTORE SUB SWAP1 RETURN JUMPDEST PUSH4 0x4E487B71 PUSH1 0xE0 SHL PUSH1 0x0 MSTORE PUSH1 0x21 PUSH1 0x4 MSTORE PUSH1 0x24 PUSH1 0x0 REVERT JUMPDEST CALLVALUE PUSH2 0x21F JUMPI PUSH1 0x0 CALLDATASIZE PUSH1 0x3 NOT ADD SLT PUSH2 0x21F JUMPI PUSH1 0x20 PUSH1 0x40 MLOAD PUSH2 0x2710 DUP2 MSTORE RETURN JUMPDEST CALLVALUE PUSH2 0x21F JUMPI PUSH1 0x40 CALLDATASIZE PUSH1 0x3 NOT ADD SLT PUSH2 0x21F JUMPI PUSH2 0x3EE PUSH1 0x4 CALLDATALOAD PUSH2 0x3C8 PUSH2 0x1D3B JUMP JUMPDEST SWAP1 PUSH2 0x3E9 PUSH2 0x3E4 DUP3 PUSH1 0x0 MSTORE PUSH1 0x0 PUSH1 0x20 MSTORE PUSH1 0x1 PUSH1 0x40 PUSH1 0x0 KECCAK256 ADD SLOAD SWAP1 JUMP JUMPDEST PUSH2 0x24AE JUMP JUMPDEST PUSH2 0x2574 JUMP JUMPDEST STOP JUMPDEST CALLVALUE PUSH2 0x21F JUMPI PUSH1 0x40 CALLDATASIZE PUSH1 0x3 NOT ADD SLT PUSH2 0x21F JUMPI PUSH2 0x409 PUSH2 0x1D28 JUMP JUMPDEST PUSH1 0x1 PUSH1 0x1 PUSH1 0xA0 SHL SUB PUSH2 0x419 PUSH2 0x1D3B JUMP JUMPDEST AND SWAP1 DUP2 ISZERO PUSH2 0x1F4 JUMPI PUSH4 0xFFFFFFFF AND DUP1 PUSH1 0x0 MSTORE PUSH1 0x4 PUSH1 0x20 MSTORE PUSH1 0x40 PUSH1 0x0 KECCAK256 PUSH1 0x1 DUP1 PUSH1 0xA0 SHL SUB PUSH1 0x2 DUP3 ADD SLOAD AND CALLER EQ ISZERO DUP1 PUSH2 0x49A JUMPI JUMPDEST PUSH2 0x489 JUMPI PUSH1 0x3 ADD DUP1 SLOAD PUSH1 0x1 PUSH1 0x1 PUSH1 0xA0 SHL SUB NOT AND DUP4 OR SWAP1 SSTORE PUSH32 0xEB157CB2668D23F3D3E1924852D2C89A1B69C34BE499D0B27336FA4386D8B9EE PUSH1 0x0 DUP1 LOG3 STOP JUMPDEST PUSH4 0x5C427CD9 PUSH1 0xE0 SHL PUSH1 0x0 MSTORE PUSH1 0x4 PUSH1 0x0 REVERT JUMPDEST POP CALLER PUSH1 0x0 SWAP1 DUP2 MSTORE PUSH32 0xAD3228B676F7D3CD4284A5443F17F1962B36E491B30A40B2405849E597BA5FB5 PUSH1 0x20 MSTORE PUSH1 0x40 SWAP1 KECCAK256 SLOAD PUSH1 0xFF AND ISZERO PUSH2 0x44B JUMP JUMPDEST CALLVALUE PUSH2 0x21F JUMPI PUSH1 0x0 CALLDATASIZE PUSH1 0x3 NOT ADD SLT PUSH2 0x21F JUMPI PUSH1 0x20 PUSH1 0x40 MLOAD PUSH2 0x12C DUP2 MSTORE RETURN JUMPDEST CALLVALUE PUSH2 0x21F JUMPI PUSH1 0x0 CALLDATASIZE PUSH1 0x3 NOT ADD SLT PUSH2 0x21F JUMPI PUSH1 0x20 PUSH1 0x40 MLOAD PUSH1 0x0 DUP2 MSTORE RETURN JUMPDEST CALLVALUE PUSH2 0x21F JUMPI PUSH1 0x20 CALLDATASIZE PUSH1 0x3 NOT ADD SLT PUSH2 0x21F JUMPI PUSH4 0xFFFFFFFF PUSH2 0x52A PUSH2 0x1D28 JUMP JUMPDEST AND DUP1 PUSH1 0x0 MSTORE PUSH1 0x4 PUSH1 0x20 MSTORE PUSH1 0x40 PUSH1 0x0 KECCAK256 PUSH1 0x6 DUP2 ADD SWAP1 PUSH1 0xFF DUP3 SLOAD PUSH1 0x80 SHR AND PUSH1 0x4 DUP2 LT ISZERO PUSH2 0x376 JUMPI PUSH2 0x5EF JUMPI PUSH1 0x2 ADD SLOAD PUSH1 0x1 PUSH1 0x1 PUSH1 0xA0 SHL SUB AND CALLER EQ ISZERO DUP1 PUSH2 0x5B6 JUMPI JUMPDEST PUSH2 0x5A5 JUMPI DUP1 SLOAD PUSH1 0xFF PUSH1 0x80 SHL NOT AND PUSH1 0x1 PUSH1 0x80 SHL OR SWAP1 SSTORE PUSH32 0xE1328B86CDAE5DD5994D0D78818F16A4E29F10862635641734790A4DAC8A2849 PUSH1 0x0 DUP1 LOG2 STOP JUMPDEST PUSH4 0xC59AD57 PUSH1 0xE0 SHL PUSH1 0x0 MSTORE PUSH1 0x4 PUSH1 0x0 REVERT JUMPDEST POP CALLER PUSH1 0x0 SWAP1 DUP2 MSTORE PUSH32 0x8A40F0B47FDC2A0CE293B772ACFC7508C8315A4D462786C1ADC3A56F92CA2D05 PUSH1 0x20 MSTORE PUSH1 0x40 SWAP1 KECCAK256 SLOAD PUSH1 0xFF AND ISZERO PUSH2 0x569 JUMP JUMPDEST PUSH4 0xD9693BDD PUSH1 0xE0 SHL PUSH1 0x0 MSTORE PUSH1 0x4 PUSH1 0x0 REVERT JUMPDEST CALLVALUE PUSH2 0x21F JUMPI PUSH1 0x40 CALLDATASIZE PUSH1 0x3 NOT ADD SLT PUSH2 0x21F JUMPI PUSH2 0x619 PUSH2 0x1D3B JUMP JUMPDEST PUSH1 0x4 CALLDATALOAD PUSH1 0x0 MSTORE PUSH1 0x0 PUSH1 0x20 MSTORE PUSH1 0x40 PUSH1 0x0 KECCAK256 SWAP1 PUSH1 0x1 DUP1 PUSH1 0xA0 SHL SUB AND PUSH1 0x0 MSTORE PUSH1 0x20 MSTORE PUSH1 0x20 PUSH1 0xFF PUSH1 0x40 PUSH1 0x0 KECCAK256 SLOAD AND PUSH1 0x40 MLOAD SWAP1 ISZERO ISZERO DUP2 MSTORE RETURN JUMPDEST CALLVALUE PUSH2 0x21F JUMPI PUSH1 0x0 CALLDATASIZE PUSH1 0x3 NOT ADD SLT PUSH2 0x21F JUMPI PUSH1 0x20 PUSH1 0x40 MLOAD PUSH32 0x828634D95E775031B9FF576B159A8509D3053581A8C9C4D7D86899E0AFCD882F DUP2 MSTORE RETURN JUMPDEST CALLVALUE PUSH2 0x21F JUMPI PUSH1 0x0 CALLDATASIZE PUSH1 0x3 NOT ADD SLT PUSH2 0x21F JUMPI PUSH2 0x6A1 PUSH2 0x243C JUMP JUMPDEST PUSH2 0x6A9 PUSH2 0x241F JUMP JUMPDEST PUSH1 0x1 PUSH1 0xFF NOT DUP2 SLOAD AND OR PUSH1 0x1 SSTORE PUSH32 0x62E78CEA01BEE320CD4E420270B5EA74000D11B0C9F74754EBDBFC544B05A258 PUSH1 0x20 PUSH1 0x40 MLOAD CALLER DUP2 MSTORE LOG1 STOP JUMPDEST CALLVALUE PUSH2 0x21F JUMPI PUSH1 0x0 CALLDATASIZE PUSH1 0x3 NOT ADD SLT PUSH2 0x21F JUMPI PUSH1 0x20 PUSH1 0x40 MLOAD PUSH32 0x92A19C77D2EA87C7F81D50C74403CB2F401780F3AD919571121EFE2BDB427EB1 DUP2 MSTORE RETURN JUMPDEST CALLVALUE PUSH2 0x21F JUMPI PUSH1 0x0 CALLDATASIZE PUSH1 0x3 NOT ADD SLT PUSH2 0x21F JUMPI PUSH1 0x40 MLOAD PUSH32 0x0 PUSH1 0x1 PUSH1 0x1 PUSH1 0xA0 SHL SUB AND DUP2 MSTORE PUSH1 0x20 SWAP1 RETURN JUMPDEST CALLVALUE PUSH2 0x21F JUMPI PUSH1 0x20 CALLDATASIZE PUSH1 0x3 NOT ADD SLT PUSH2 0x21F JUMPI PUSH4 0xFFFFFFFF PUSH2 0x77F PUSH2 0x1D28 JUMP JUMPDEST PUSH1 0x60 PUSH1 0x80 PUSH1 0x40 MLOAD PUSH2 0x78F DUP2 PUSH2 0x1E4F JUMP JUMPDEST PUSH1 0x0 DUP2 MSTORE DUP3 PUSH1 0x20 DUP3 ADD MSTORE PUSH1 0x0 PUSH1 0x40 DUP3 ADD MSTORE DUP3 DUP1 DUP3 ADD MSTORE ADD MSTORE AND PUSH1 0x0 MSTORE PUSH1 0x5 PUSH1 0x20 MSTORE PUSH1 0x40 PUSH1 0x0 KECCAK256 PUSH1 0x40 MLOAD PUSH2 0x7C1 DUP2 PUSH2 0x1E4F JUMP JUMPDEST DUP2 SLOAD DUP2 MSTORE PUSH2 0x892 PUSH1 0x4 PUSH2 0x87F PUSH1 0x40 MLOAD SWAP5 PUSH2 0x7E9 DUP7 PUSH2 0x7E2 DUP2 PUSH1 0x1 DUP6 ADD PUSH2 0x1DCC JUMP JUMPDEST SUB DUP8 PUSH2 0x1E6A JUMP JUMPDEST PUSH1 0x20 DUP6 ADD SWAP6 DUP7 MSTORE PUSH1 0x2 DUP2 ADD SLOAD SWAP1 PUSH1 0x40 DUP7 ADD SWAP2 DUP3 MSTORE PUSH2 0x83A PUSH1 0x40 MLOAD SWAP2 PUSH2 0x81C DUP4 PUSH2 0x815 DUP2 PUSH1 0x3 DUP6 ADD PUSH2 0x1DCC JUMP JUMPDEST SUB DUP5 PUSH2 0x1E6A JUMP JUMPDEST PUSH1 0x60 DUP9 ADD SWAP3 DUP4 MSTORE PUSH2 0x833 PUSH1 0x40 MLOAD DUP1 SWAP8 DUP2 SWAP4 ADD PUSH2 0x1DCC JUMP JUMPDEST SUB DUP6 PUSH2 0x1E6A JUMP JUMPDEST PUSH1 0x80 DUP7 ADD SWAP4 DUP5 MSTORE PUSH2 0x866 PUSH1 0x40 MLOAD SWAP8 DUP9 SWAP8 PUSH1 0x20 DUP10 MSTORE MLOAD PUSH1 0x20 DUP10 ADD MSTORE MLOAD PUSH1 0xA0 PUSH1 0x40 DUP10 ADD MSTORE PUSH1 0xC0 DUP9 ADD SWAP1 PUSH2 0x1D51 JUMP JUMPDEST SWAP2 MLOAD PUSH1 0x60 DUP8 ADD MSTORE MLOAD DUP6 DUP3 SUB PUSH1 0x1F NOT ADD PUSH1 0x80 DUP8 ADD MSTORE PUSH2 0x1D51 JUMP JUMPDEST SWAP1 MLOAD DUP4 DUP3 SUB PUSH1 0x1F NOT ADD PUSH1 0xA0 DUP6 ADD MSTORE PUSH2 0x1D51 JUMP JUMPDEST SUB SWAP1 RETURN JUMPDEST CALLVALUE PUSH2 0x21F JUMPI PUSH1 0x0 CALLDATASIZE PUSH1 0x3 NOT ADD SLT PUSH2 0x21F JUMPI PUSH1 0x20 PUSH1 0x40 MLOAD PUSH2 0x1F4 DUP2 MSTORE RETURN JUMPDEST CALLVALUE PUSH2 0x21F JUMPI PUSH1 0x0 CALLDATASIZE PUSH1 0x3 NOT ADD SLT PUSH2 0x21F JUMPI PUSH1 0x3 SLOAD PUSH1 0x40 MLOAD PUSH1 0x1 PUSH1 0x1 PUSH1 0xA0 SHL SUB SWAP1 SWAP2 AND DUP2 MSTORE PUSH1 0x20 SWAP1 RETURN JUMPDEST CALLVALUE PUSH2 0x21F JUMPI PUSH1 0x0 CALLDATASIZE PUSH1 0x3 NOT ADD SLT PUSH2 0x21F JUMPI PUSH1 0x20 PUSH1 0xFF PUSH1 0x1 SLOAD AND PUSH1 0x40 MLOAD SWAP1 ISZERO ISZERO DUP2 MSTORE RETURN JUMPDEST CALLVALUE PUSH2 0x21F JUMPI PUSH1 0x60 CALLDATASIZE PUSH1 0x3 NOT ADD SLT PUSH2 0x21F JUMPI PUSH2 0x918 PUSH2 0x1D28 JUMP JUMPDEST PUSH1 0x24 CALLDATALOAD SWAP1 PUSH1 0x3 DUP3 LT ISZERO PUSH2 0x21F JUMPI PUSH1 0x44 CALLDATALOAD PUSH1 0x1 PUSH1 0x1 PUSH1 0x80 SHL SUB DUP2 AND SWAP1 DUP2 DUP2 SUB PUSH2 0x21F JUMPI PUSH2 0x942 PUSH2 0x241F JUMP JUMPDEST PUSH2 0x94A PUSH2 0x23BD JUMP JUMPDEST DUP2 ISZERO PUSH2 0xB6A JUMPI PUSH1 0x0 SWAP3 DUP5 ISZERO PUSH2 0xB5B JUMPI PUSH4 0xFFFFFFFF AND SWAP3 DUP4 DUP2 MSTORE PUSH1 0x4 PUSH1 0x20 MSTORE PUSH1 0x40 DUP2 KECCAK256 SWAP1 PUSH1 0xFF PUSH1 0x6 DUP4 ADD SLOAD PUSH1 0x80 SHR AND PUSH1 0x4 DUP2 LT ISZERO PUSH2 0xB47 JUMPI PUSH2 0xB38 JUMPI PUSH1 0x1 PUSH1 0x1 PUSH1 0x40 SHL SUB PUSH1 0x3 DUP4 ADD SLOAD PUSH1 0xA0 SHR AND TIMESTAMP LT ISZERO PUSH2 0xB29 JUMPI PUSH2 0x9F7 PUSH1 0x40 MLOAD PUSH4 0x23B872DD PUSH1 0xE0 SHL PUSH1 0x20 DUP3 ADD MSTORE CALLER PUSH1 0x24 DUP3 ADD MSTORE ADDRESS PUSH1 0x44 DUP3 ADD MSTORE DUP6 PUSH1 0x64 DUP3 ADD MSTORE PUSH1 0x64 DUP2 MSTORE PUSH2 0x9D1 PUSH1 0x84 DUP3 PUSH2 0x1E6A JUMP JUMPDEST PUSH32 0x0 PUSH2 0x25F6 JUMP JUMPDEST DUP5 DUP2 MSTORE PUSH1 0x6 PUSH1 0x20 SWAP1 DUP2 MSTORE PUSH1 0x40 DUP1 DUP4 KECCAK256 CALLER DUP5 MSTORE SWAP1 SWAP2 MSTORE SWAP1 KECCAK256 PUSH1 0x1 DUP7 SUB PUSH2 0xAC9 JUMPI PUSH1 0x4 DUP4 SWAP3 DUP3 PUSH1 0x1 PUSH1 0x1 PUSH1 0x80 SHL SUB PUSH2 0xA36 PUSH2 0xA8A SWAP8 DUP3 PUSH2 0xA5B SWAP8 SLOAD AND PUSH2 0x1EAB JUMP JUMPDEST AND PUSH1 0x1 PUSH1 0x1 PUSH1 0x80 SHL SUB NOT DUP3 SLOAD AND OR SWAP1 SSTORE ADD SWAP2 PUSH1 0x1 PUSH1 0x1 PUSH1 0x80 SHL SUB DUP4 SLOAD PUSH1 0x60 SHR AND PUSH2 0x1EAB JUMP JUMPDEST DUP2 SLOAD PUSH16 0xFFFFFFFFFFFFFFFFFFFFFFFFFFFFFFFF PUSH1 0x60 SHL NOT AND PUSH1 0x60 SWAP2 SWAP1 SWAP2 SHL PUSH1 0x1 PUSH1 0x60 SHL PUSH1 0x1 PUSH1 0xE0 SHL SUB AND OR SWAP1 SSTORE JUMP JUMPDEST PUSH2 0xA97 PUSH1 0x40 MLOAD DUP1 SWAP5 PUSH2 0x1E8B JUMP JUMPDEST PUSH1 0x20 DUP4 ADD MSTORE PUSH32 0x5B6C06A6DA0B878C1CFCD312BAC508D1494FE83C405F922E1273C903B292A485 PUSH1 0x40 CALLER SWAP4 LOG3 PUSH1 0x1 PUSH1 0x2 SSTORE STOP JUMPDEST PUSH1 0x5 PUSH1 0x1 PUSH1 0x1 PUSH1 0x80 SHL SUB SWAP3 PUSH2 0xB09 DUP4 PUSH2 0xAE9 DUP8 PUSH2 0xB14 SWAP7 SLOAD PUSH1 0x80 SHR PUSH2 0x1EAB JUMP JUMPDEST DUP2 SLOAD PUSH1 0x1 PUSH1 0x1 PUSH1 0x80 SHL SUB AND PUSH1 0x80 SWAP2 SWAP1 SWAP2 SHL PUSH1 0x1 PUSH1 0x1 PUSH1 0x80 SHL SUB NOT AND OR SWAP1 SSTORE JUMP JUMPDEST ADD SWAP3 DUP3 DUP5 SLOAD AND PUSH2 0x1EAB JUMP JUMPDEST AND PUSH1 0x1 PUSH1 0x1 PUSH1 0x80 SHL SUB NOT DUP3 SLOAD AND OR SWAP1 SSTORE PUSH2 0xA8A JUMP JUMPDEST PUSH4 0xDE3952FF PUSH1 0xE0 SHL DUP2 MSTORE PUSH1 0x4 SWAP1 REVERT JUMPDEST PUSH4 0xD9693BDD PUSH1 0xE0 SHL DUP2 MSTORE PUSH1 0x4 SWAP1 REVERT JUMPDEST PUSH4 0x4E487B71 PUSH1 0xE0 SHL DUP3 MSTORE PUSH1 0x21 PUSH1 0x4 MSTORE PUSH1 0x24 DUP3 REVERT JUMPDEST PUSH4 0xF69B881 PUSH1 0xE1 SHL DUP5 MSTORE PUSH1 0x4 DUP5 REVERT JUMPDEST PUSH4 0x1F2A2005 PUSH1 0xE0 SHL PUSH1 0x0 MSTORE PUSH1 0x4 PUSH1 0x0 REVERT JUMPDEST CALLVALUE PUSH2 0x21F JUMPI PUSH1 0x40 CALLDATASIZE PUSH1 0x3 NOT ADD SLT PUSH2 0x21F JUMPI PUSH2 0xB94 PUSH2 0x1D28 JUMP JUMPDEST PUSH1 0x24 CALLDATALOAD SWAP1 PUSH1 0x1 PUSH1 0x1 PUSH1 0x40 SHL SUB DUP3 GT PUSH2 0x21F JUMPI CALLDATASIZE PUSH1 0x23 DUP4 ADD SLT ISZERO PUSH2 0x21F JUMPI DUP2 PUSH1 0x4 ADD CALLDATALOAD SWAP1 PUSH1 0x1 PUSH1 0x1 PUSH1 0x40 SHL SUB DUP3 GT PUSH2 0x21F JUMPI CALLDATASIZE PUSH1 0x24 DUP4 DUP6 ADD ADD GT PUSH2 0x21F JUMPI PUSH4 0xFFFFFFFF AND DUP1 PUSH1 0x0 MSTORE PUSH1 0x4 PUSH1 0x20 MSTORE PUSH1 0x40 PUSH1 0x0 KECCAK256 PUSH1 0x1 DUP1 PUSH1 0xA0 SHL SUB PUSH1 0x2 DUP3 ADD SLOAD AND CALLER EQ ISZERO DUP1 PUSH2 0xD25 JUMPI JUMPDEST PUSH2 0x489 JUMPI PUSH1 0x1 ADD SWAP3 PUSH1 0x0 SWAP3 PUSH2 0xC1A DUP2 PUSH2 0xC14 DUP8 SLOAD PUSH2 0x1D92 JUMP JUMPDEST DUP8 PUSH2 0x234A JUMP JUMPDEST DUP4 SWAP5 PUSH1 0x1F DUP3 GT PUSH1 0x1 EQ PUSH2 0xC9C JUMPI PUSH2 0xC6B DUP3 DUP1 DUP8 SWAP9 PUSH32 0x910AB093C29152ECB3537ABB3DD7E41B43161CC9644949D99C08E3BF4E76E2C6 SWAP8 SWAP9 SWAP2 PUSH2 0xC8E JUMPI JUMPDEST POP DUP2 PUSH1 0x1 SHL SWAP2 PUSH1 0x0 NOT SWAP1 PUSH1 0x3 SHL SHR NOT AND OR SWAP1 JUMP JUMPDEST SWAP1 SSTORE JUMPDEST PUSH2 0xC88 PUSH1 0x40 MLOAD SWAP3 DUP4 SWAP3 PUSH1 0x20 DUP5 MSTORE PUSH1 0x24 PUSH1 0x20 DUP6 ADD SWAP3 ADD PUSH2 0x239C JUMP JUMPDEST SUB SWAP1 LOG2 DUP1 RETURN JUMPDEST PUSH1 0x24 SWAP2 POP DUP7 ADD ADD CALLDATALOAD DUP10 PUSH2 0xC57 JUMP JUMPDEST DUP1 DUP6 MSTORE PUSH1 0x20 DUP6 KECCAK256 PUSH1 0x1F NOT DUP4 AND SWAP7 DUP7 JUMPDEST DUP9 DUP2 LT PUSH2 0xD0A JUMPI POP DUP4 PUSH32 0x910AB093C29152ECB3537ABB3DD7E41B43161CC9644949D99C08E3BF4E76E2C6 SWAP7 SWAP8 SWAP9 LT PUSH2 0xCED JUMPI JUMPDEST POP POP PUSH1 0x1 DUP3 DUP2 SHL ADD SWAP1 SSTORE PUSH2 0xC6E JUMP JUMPDEST DUP5 ADD PUSH1 0x24 ADD CALLDATALOAD PUSH1 0x0 NOT PUSH1 0x3 DUP6 SWAP1 SHL PUSH1 0xF8 AND SHR NOT AND SWAP1 SSTORE DUP7 DUP1 PUSH2 0xCDE JUMP JUMPDEST SWAP1 SWAP2 PUSH1 0x20 PUSH1 0x1 DUP2 SWAP3 PUSH1 0x24 DUP7 DUP11 ADD ADD CALLDATALOAD DUP2 SSTORE ADD SWAP4 ADD SWAP2 ADD PUSH2 0xCAB JUMP JUMPDEST POP CALLER PUSH1 0x0 SWAP1 DUP2 MSTORE PUSH32 0xAD3228B676F7D3CD4284A5443F17F1962B36E491B30A40B2405849E597BA5FB5 PUSH1 0x20 MSTORE PUSH1 0x40 SWAP1 KECCAK256 SLOAD PUSH1 0xFF AND ISZERO PUSH2 0xBFB JUMP JUMPDEST CALLVALUE PUSH2 0x21F JUMPI PUSH1 0x40 CALLDATASIZE PUSH1 0x3 NOT ADD SLT PUSH2 0x21F JUMPI PUSH2 0xD77 PUSH2 0x1D28 JUMP JUMPDEST PUSH4 0xFFFFFFFF PUSH2 0xD84 PUSH2 0x1D3B JUMP JUMPDEST SWAP2 AND PUSH1 0x0 SWAP1 DUP2 MSTORE PUSH1 0x6 PUSH1 0x20 SWAP1 DUP2 MSTORE PUSH1 0x40 DUP1 DUP4 KECCAK256 PUSH1 0x1 PUSH1 0x1 PUSH1 0xA0 SHL SUB SWAP1 SWAP5 AND DUP4 MSTORE SWAP3 DUP2 MSTORE SWAP1 DUP3 SWAP1 KECCAK256 SLOAD DUP3 MLOAD PUSH1 0x1 PUSH1 0x1 PUSH1 0x80 SHL SUB DUP3 AND DUP2 MSTORE PUSH1 0x80 SWAP2 SWAP1 SWAP2 SHR SWAP2 DUP2 ADD SWAP2 SWAP1 SWAP2 MSTORE RETURN JUMPDEST CALLVALUE PUSH2 0x21F JUMPI PUSH1 0x20 CALLDATASIZE PUSH1 0x3 NOT ADD SLT PUSH2 0x21F JUMPI PUSH1 0x1 PUSH1 0x1 PUSH1 0x40 SHL SUB PUSH1 0x4 CALLDATALOAD GT PUSH2 0x21F JUMPI PUSH2 0x100 PUSH1 0x4 CALLDATALOAD CALLDATASIZE SUB PUSH1 0x3 NOT ADD SLT PUSH2 0x21F JUMPI PUSH2 0xE03 PUSH2 0x241F JUMP JUMPDEST CALLER PUSH1 0x0 SWAP1 DUP2 MSTORE PUSH32 0xFB6CFBF0A6E77DFD309859BF4BAD2C7342BD2B734E42C01CBC85D3E6DD74F95E PUSH1 0x20 MSTORE PUSH1 0x40 SWAP1 KECCAK256 SLOAD PUSH1 0xFF AND ISZERO PUSH2 0x188C JUMPI PUSH2 0xE48 PUSH1 0x24 PUSH1 0x4 CALLDATALOAD ADD PUSH2 0x2279 JUMP JUMPDEST PUSH1 0x1 PUSH1 0x1 PUSH1 0x40 SHL SUB TIMESTAMP SWAP2 AND GT ISZERO PUSH2 0x187B JUMPI PUSH2 0x1F4 PUSH2 0xFFFF PUSH2 0xE6D PUSH1 0x84 PUSH1 0x4 CALLDATALOAD ADD PUSH2 0x228D JUMP JUMPDEST AND GT DUP1 ISZERO PUSH2 0x185F JUMPI JUMPDEST PUSH2 0x184E JUMPI PUSH1 0x1 PUSH1 0x1 PUSH1 0xA0 SHL SUB PUSH2 0xE90 PUSH1 0x4 CALLDATALOAD PUSH1 0x44 ADD PUSH2 0x229C JUMP JUMPDEST AND ISZERO PUSH2 0x1F4 JUMPI PUSH2 0xEA4 PUSH1 0x64 PUSH1 0x4 CALLDATALOAD ADD PUSH2 0x22B0 JUMP JUMPDEST DUP1 PUSH2 0x1832 JUMPI JUMPDEST PUSH2 0x1821 JUMPI PUSH1 0x3 SLOAD PUSH4 0xFFFFFFFF DUP1 DUP3 PUSH1 0xA0 SHR AND EQ PUSH2 0x180B JUMPI PUSH4 0xFFFFFFFF PUSH1 0xA0 SHL NOT DUP2 AND PUSH1 0xA0 DUP3 DUP2 SHR PUSH4 0xFFFFFFFF AND PUSH1 0x1 ADD SWAP1 SHL PUSH4 0xFFFFFFFF PUSH1 0xA0 SHL AND OR PUSH1 0x3 SSTORE PUSH2 0xEFB PUSH1 0x4 DUP1 CALLDATALOAD PUSH1 0xC4 DUP2 ADD SWAP2 ADD PUSH2 0x22D2 JUMP JUMPDEST SWAP2 SWAP1 PUSH2 0xF0B PUSH1 0x44 PUSH1 0x4 CALLDATALOAD ADD PUSH2 0x229C JUMP JUMPDEST PUSH2 0xF19 PUSH1 0x24 PUSH1 0x4 CALLDATALOAD ADD PUSH2 0x2279 JUMP JUMPDEST PUSH2 0xF27 PUSH1 0x84 PUSH1 0x4 CALLDATALOAD ADD PUSH2 0x228D JUMP JUMPDEST SWAP3 PUSH2 0xF36 PUSH1 0xA4 PUSH1 0x4 CALLDATALOAD ADD PUSH2 0x228D JUMP JUMPDEST SWAP1 PUSH2 0xF45 PUSH1 0x64 PUSH1 0x4 CALLDATALOAD ADD PUSH2 0x22B0 JUMP JUMPDEST SWAP5 PUSH1 0x40 MLOAD SWAP8 PUSH2 0x1E0 DUP10 ADD SWAP5 DUP10 DUP7 LT PUSH1 0x1 PUSH1 0x1 PUSH1 0x40 SHL SUB DUP8 GT OR PUSH2 0x17F5 JUMPI PUSH2 0xF88 PUSH2 0xFFFF SWAP7 SWAP5 PUSH1 0x1 PUSH1 0x1 PUSH1 0x40 SHL SUB SWAP4 DUP9 SWAP7 PUSH1 0x40 MSTORE PUSH1 0x4 CALLDATALOAD PUSH1 0x4 ADD CALLDATALOAD DUP14 MSTORE CALLDATASIZE SWAP2 PUSH2 0x2304 JUMP JUMPDEST SWAP7 PUSH1 0x20 DUP12 ADD SWAP8 DUP9 MSTORE CALLER PUSH1 0x40 DUP13 ADD MSTORE PUSH1 0x1 DUP1 PUSH1 0xA0 SHL SUB AND PUSH1 0x60 DUP12 ADD MSTORE AND PUSH1 0x80 DUP10 ADD MSTORE PUSH1 0x0 PUSH1 0xA0 DUP10 ADD MSTORE AND PUSH1 0xC0 DUP8 ADD MSTORE AND PUSH1 0xE0 DUP6 ADD MSTORE PUSH1 0x0 PUSH2 0x100 DUP6 ADD MSTORE PUSH1 0x0 PUSH2 0x120 DUP6 ADD MSTORE PUSH1 0x0 PUSH2 0x140 DUP6 ADD MSTORE PUSH1 0x0 PUSH2 0x160 DUP6 ADD MSTORE PUSH1 0x0 PUSH2 0x180 DUP6 ADD MSTORE PUSH1 0x0 PUSH2 0x1A0 DUP6 ADD MSTORE PUSH2 0x1C0 DUP5 ADD SWAP2 ISZERO ISZERO DUP3 MSTORE PUSH4 0xFFFFFFFF DUP4 PUSH1 0xA0 SHR AND PUSH1 0x0 MSTORE PUSH1 0x4 PUSH1 0x20 MSTORE PUSH1 0x40 PUSH1 0x0 KECCAK256 SWAP1 DUP5 MLOAD DUP3 SSTORE MLOAD DUP1 MLOAD SWAP1 PUSH1 0x1 PUSH1 0x1 PUSH1 0x40 SHL SUB DUP3 GT PUSH2 0x17F5 JUMPI PUSH2 0x103E DUP3 PUSH2 0x1035 PUSH1 0x1 DUP7 ADD SLOAD PUSH2 0x1D92 JUMP JUMPDEST PUSH1 0x1 DUP7 ADD PUSH2 0x234A JUMP JUMPDEST PUSH1 0x20 SWAP1 PUSH1 0x1F DUP4 GT PUSH1 0x1 EQ PUSH2 0x1783 JUMPI SWAP2 DUP1 PUSH2 0x1073 SWAP3 PUSH1 0x6 SWAP6 SWAP5 PUSH1 0x0 SWAP3 PUSH2 0x1665 JUMPI JUMPDEST POP POP DUP2 PUSH1 0x1 SHL SWAP2 PUSH1 0x0 NOT SWAP1 PUSH1 0x3 SHL SHR NOT AND OR SWAP1 JUMP JUMPDEST PUSH1 0x1 DUP3 ADD SSTORE JUMPDEST PUSH1 0x40 DUP6 DUP2 ADD MLOAD PUSH1 0x2 DUP4 ADD DUP1 SLOAD PUSH1 0x1 PUSH1 0x1 PUSH1 0xA0 SHL SUB NOT AND PUSH1 0x1 PUSH1 0x1 PUSH1 0xA0 SHL SUB SWAP3 DUP4 AND OR SWAP1 SSTORE PUSH1 0x60 DUP1 DUP9 ADD MLOAD PUSH1 0x3 DUP6 ADD DUP1 SLOAD PUSH1 0x80 DUP12 ADD MLOAD PUSH1 0x1 PUSH1 0x1 PUSH1 0xE0 SHL SUB NOT SWAP2 DUP3 AND SWAP4 SWAP1 SWAP6 AND SWAP3 SWAP1 SWAP3 OR PUSH1 0xA0 SWAP5 DUP6 SHL PUSH8 0xFFFFFFFFFFFFFFFF PUSH1 0xA0 SHL AND OR SWAP1 SSTORE SWAP2 DUP9 ADD MLOAD PUSH1 0x4 DUP6 ADD DUP1 SLOAD PUSH1 0xC0 DUP12 ADD MLOAD PUSH1 0xE0 DUP13 ADD MLOAD PUSH2 0x100 DUP14 ADD MLOAD SWAP3 SWAP1 SWAP7 AND PUSH1 0x1 PUSH1 0x1 PUSH1 0x40 SHL SUB SWAP5 SWAP1 SWAP5 AND SWAP4 SWAP1 SWAP4 OR SWAP3 SWAP1 SWAP6 SHL PUSH10 0xFFFF0000000000000000 AND SWAP2 SWAP1 SWAP2 OR PUSH1 0x50 SWAP4 SWAP1 SWAP4 SHL PUSH2 0xFFFF PUSH1 0x50 SHL AND SWAP3 SWAP1 SWAP3 OR SWAP3 SWAP1 SHL PUSH1 0x1 PUSH1 0x60 SHL PUSH1 0x1 PUSH1 0xE0 SHL SUB AND SWAP2 SWAP1 SWAP2 OR SWAP1 SSTORE PUSH2 0x120 DUP6 ADD MLOAD PUSH2 0x140 DUP7 ADD MLOAD PUSH1 0x80 SHL PUSH1 0x1 PUSH1 0x1 PUSH1 0x80 SHL SUB NOT AND PUSH1 0x1 PUSH1 0x1 PUSH1 0x80 SHL SUB SWAP2 SWAP1 SWAP2 AND OR PUSH1 0x5 DUP3 ADD SSTORE ADD SWAP1 PUSH1 0x1 PUSH1 0x1 PUSH1 0x80 SHL SUB DUP1 PUSH2 0x160 DUP7 ADD MLOAD AND AND PUSH1 0x1 PUSH1 0x1 PUSH1 0x80 SHL SUB NOT DUP4 SLOAD AND OR DUP3 SSTORE PUSH2 0x180 DUP5 ADD MLOAD SWAP4 PUSH1 0x4 DUP6 LT ISZERO PUSH2 0x376 JUMPI PUSH2 0x1A0 SWAP1 PUSH1 0x0 SWAP6 DUP5 SLOAD SWAP1 PUSH1 0xFF PUSH1 0x80 SHL SWAP1 PUSH1 0x80 SHL AND SWAP1 PUSH1 0xFF PUSH1 0x80 SHL NOT AND OR DUP5 SSTORE ADD MLOAD PUSH1 0x3 DUP2 LT ISZERO PUSH2 0x176F JUMPI PUSH2 0x11D0 SWAP1 DUP4 PUSH2 0x1ECB JUMP JUMPDEST MLOAD DUP2 SLOAD PUSH1 0xFF PUSH1 0x90 SHL NOT AND SWAP1 ISZERO ISZERO PUSH1 0x90 SHL PUSH1 0xFF PUSH1 0x90 SHL AND OR SWAP1 SSTORE PUSH2 0x11F7 PUSH1 0x4 CALLDATALOAD PUSH1 0x64 ADD PUSH2 0x22B0 JUMP JUMPDEST PUSH2 0x12EE JUMPI JUMPDEST PUSH1 0x20 SWAP1 PUSH2 0x120D PUSH1 0x44 PUSH1 0x4 CALLDATALOAD ADD PUSH2 0x229C JUMP JUMPDEST PUSH2 0x121B PUSH1 0x24 PUSH1 0x4 CALLDATALOAD ADD PUSH2 0x2279 JUMP JUMPDEST PUSH1 0x1 PUSH1 0x1 PUSH1 0x40 SHL SUB PUSH2 0xFFFF PUSH2 0x1234 PUSH1 0x64 PUSH1 0x4 CALLDATALOAD ADD PUSH2 0x22B0 JUMP JUMPDEST DUP2 PUSH2 0x1243 PUSH1 0x84 PUSH1 0x4 CALLDATALOAD ADD PUSH2 0x228D JUMP JUMPDEST PUSH2 0x1251 PUSH1 0xA4 PUSH1 0x4 CALLDATALOAD ADD PUSH2 0x228D JUMP JUMPDEST SWAP3 PUSH2 0x1266 PUSH1 0xC4 PUSH1 0x4 CALLDATALOAD ADD PUSH1 0x4 CALLDATALOAD PUSH1 0x4 ADD PUSH2 0x22D2 JUMP JUMPDEST SWAP7 SWAP1 SWAP8 PUSH1 0x40 MLOAD SWAP10 PUSH1 0x1 DUP1 PUSH1 0xA0 SHL SUB AND DUP11 MSTORE AND DUP11 DUP10 ADD MSTORE ISZERO ISZERO PUSH1 0x40 DUP9 ADD MSTORE AND PUSH1 0x60 DUP7 ADD MSTORE AND PUSH1 0x80 DUP5 ADD MSTORE PUSH1 0xC0 PUSH1 0xA0 DUP5 ADD MSTORE PUSH32 0x5AA425D138A43F7411D406EF7B6D8D6C4384330DA1ECE8F03EC428F715127BC4 CALLER SWAP4 DUP1 PUSH2 0x12DA PUSH1 0x4 CALLDATALOAD PUSH1 0x4 ADD CALLDATALOAD SWAP6 PUSH4 0xFFFFFFFF DUP10 PUSH1 0xA0 SHR AND SWAP6 PUSH1 0xC0 DUP5 ADD SWAP2 PUSH2 0x239C JUMP JUMPDEST SUB SWAP1 LOG4 PUSH4 0xFFFFFFFF PUSH1 0x40 MLOAD SWAP2 PUSH1 0xA0 SHR AND DUP2 MSTORE RETURN JUMPDEST PUSH2 0x1302 PUSH1 0xE4 PUSH1 0x4 CALLDATALOAD ADD PUSH1 0x4 CALLDATALOAD PUSH1 0x4 ADD PUSH2 0x22BD JUMP JUMPDEST CALLDATALOAD PUSH2 0x13B9 PUSH2 0x1327 PUSH2 0x131D PUSH1 0xE4 PUSH1 0x4 CALLDATALOAD ADD PUSH1 0x4 CALLDATALOAD PUSH1 0x4 ADD PUSH2 0x22BD JUMP JUMPDEST PUSH1 0x20 DUP2 ADD SWAP1 PUSH2 0x22D2 JUMP JUMPDEST PUSH2 0x13C8 PUSH1 0x40 PUSH2 0x1340 PUSH1 0xE4 PUSH1 0x4 CALLDATALOAD ADD PUSH1 0x4 CALLDATALOAD PUSH1 0x4 ADD PUSH2 0x22BD JUMP JUMPDEST ADD CALLDATALOAD SWAP2 PUSH2 0x1364 PUSH2 0x135A PUSH1 0xE4 PUSH1 0x4 CALLDATALOAD ADD PUSH1 0x4 CALLDATALOAD PUSH1 0x4 ADD PUSH2 0x22BD JUMP JUMPDEST PUSH1 0x60 DUP2 ADD SWAP1 PUSH2 0x22D2 JUMP JUMPDEST SWAP6 SWAP1 PUSH2 0x13A3 PUSH2 0x138A PUSH2 0x1380 PUSH1 0xE4 PUSH1 0x4 CALLDATALOAD ADD PUSH1 0x4 CALLDATALOAD PUSH1 0x4 ADD PUSH2 0x22BD JUMP JUMPDEST PUSH1 0x80 DUP2 ADD SWAP1 PUSH2 0x22D2 JUMP JUMPDEST SWAP8 SWAP1 SWAP5 PUSH1 0x40 MLOAD SWAP11 PUSH2 0x139A DUP13 PUSH2 0x1E4F JUMP JUMPDEST DUP12 MSTORE CALLDATASIZE SWAP2 PUSH2 0x2304 JUMP JUMPDEST SWAP7 PUSH1 0x20 DUP10 ADD SWAP8 DUP9 MSTORE PUSH1 0x40 DUP10 ADD SWAP6 DUP7 MSTORE CALLDATASIZE SWAP2 PUSH2 0x2304 JUMP JUMPDEST SWAP4 PUSH1 0x60 DUP8 ADD SWAP5 DUP6 MSTORE CALLDATASIZE SWAP2 PUSH2 0x2304 JUMP JUMPDEST SWAP3 PUSH1 0x80 DUP6 ADD SWAP4 DUP5 MSTORE PUSH4 0xFFFFFFFF DUP7 PUSH1 0xA0 SHR AND DUP8 MSTORE PUSH1 0x5 PUSH1 0x20 MSTORE PUSH1 0x40 DUP8 KECCAK256 SWAP5 MLOAD DUP6 SSTORE MLOAD DUP1 MLOAD SWAP1 PUSH1 0x1 PUSH1 0x1 PUSH1 0x40 SHL SUB DUP3 GT PUSH2 0x175B JUMPI PUSH2 0x1415 DUP3 PUSH2 0x140C PUSH1 0x1 DUP10 ADD SLOAD PUSH2 0x1D92 JUMP JUMPDEST PUSH1 0x1 DUP10 ADD PUSH2 0x234A JUMP JUMPDEST PUSH1 0x20 SWAP1 PUSH1 0x1F DUP4 GT PUSH1 0x1 EQ PUSH2 0x16F2 JUMPI PUSH2 0x1444 SWAP3 SWAP2 DUP10 SWAP2 DUP4 PUSH2 0x16E7 JUMPI POP POP DUP2 PUSH1 0x1 SHL SWAP2 PUSH1 0x0 NOT SWAP1 PUSH1 0x3 SHL SHR NOT AND OR SWAP1 JUMP JUMPDEST PUSH1 0x1 DUP6 ADD SSTORE JUMPDEST MLOAD PUSH1 0x2 DUP5 ADD SSTORE MLOAD DUP1 MLOAD PUSH1 0x3 DUP5 ADD SWAP2 PUSH1 0x1 PUSH1 0x1 PUSH1 0x40 SHL SUB DUP3 GT PUSH2 0x16D3 JUMPI PUSH2 0x147A DUP3 PUSH2 0x1474 DUP6 SLOAD PUSH2 0x1D92 JUMP JUMPDEST DUP6 PUSH2 0x234A JUMP JUMPDEST PUSH1 0x20 SWAP1 PUSH1 0x1F DUP4 GT PUSH1 0x1 EQ PUSH2 0x1670 JUMPI PUSH2 0x14A9 SWAP3 SWAP2 DUP9 SWAP2 DUP4 PUSH2 0x1665 JUMPI POP POP DUP2 PUSH1 0x1 SHL SWAP2 PUSH1 0x0 NOT SWAP1 PUSH1 0x3 SHL SHR NOT AND OR SWAP1 JUMP JUMPDEST SWAP1 SSTORE JUMPDEST MLOAD DUP1 MLOAD SWAP1 PUSH1 0x1 PUSH1 0x1 PUSH1 0x40 SHL SUB DUP3 GT PUSH2 0x1651 JUMPI SWAP4 PUSH1 0x20 SWAP5 PUSH2 0x14DC DUP4 PUSH2 0x14D3 PUSH1 0x4 DUP8 ADD SLOAD PUSH2 0x1D92 JUMP JUMPDEST PUSH1 0x4 DUP8 ADD PUSH2 0x234A JUMP JUMPDEST DUP6 SWAP2 PUSH1 0x1F DUP5 GT PUSH1 0x1 EQ PUSH2 0x15E6 JUMPI PUSH1 0x4 SWAP4 PUSH2 0x150C SWAP4 SWAP1 SWAP3 DUP4 PUSH2 0x15DB JUMPI POP POP DUP2 PUSH1 0x1 SHL SWAP2 PUSH1 0x0 NOT SWAP1 PUSH1 0x3 SHL SHR NOT AND OR SWAP1 JUMP JUMPDEST SWAP2 ADD SSTORE JUMPDEST PUSH2 0x1524 PUSH1 0xE4 PUSH1 0x4 CALLDATALOAD ADD PUSH1 0x4 CALLDATALOAD PUSH1 0x4 ADD PUSH2 0x22BD JUMP JUMPDEST CALLDATALOAD PUSH2 0x15D3 PUSH32 0xD60766CD5D968D42FACB85C1AA353DD7BB048F68746369F022109EB2A553444 PUSH2 0x1573 PUSH2 0x156C PUSH2 0x1563 PUSH1 0xE4 PUSH1 0x4 CALLDATALOAD ADD PUSH1 0x4 CALLDATALOAD PUSH1 0x4 ADD PUSH2 0x22BD JUMP JUMPDEST DUP8 DUP2 ADD SWAP1 PUSH2 0x22D2 JUMP JUMPDEST CALLDATASIZE SWAP2 PUSH2 0x2304 JUMP JUMPDEST DUP6 DUP2 MLOAD SWAP2 ADD KECCAK256 PUSH1 0x40 PUSH2 0x158F PUSH1 0xE4 PUSH1 0x4 CALLDATALOAD ADD PUSH1 0x4 CALLDATALOAD PUSH1 0x4 ADD PUSH2 0x22BD JUMP JUMPDEST ADD CALLDATALOAD SWAP1 PUSH2 0x15A9 PUSH2 0x135A PUSH1 0xE4 PUSH1 0x4 CALLDATALOAD ADD PUSH1 0x4 CALLDATALOAD PUSH1 0x4 ADD PUSH2 0x22BD JUMP JUMPDEST SWAP5 SWAP1 PUSH1 0x40 MLOAD SWAP4 DUP5 SWAP4 DUP5 MSTORE DUP10 DUP5 ADD MSTORE PUSH1 0x60 PUSH1 0x40 DUP5 ADD MSTORE PUSH4 0xFFFFFFFF DUP9 PUSH1 0xA0 SHR AND SWAP6 PUSH1 0x60 DUP5 ADD SWAP2 PUSH2 0x239C JUMP JUMPDEST SUB SWAP1 LOG3 PUSH2 0x11FC JUMP JUMPDEST ADD MLOAD SWAP1 POP DUP8 DUP1 PUSH2 0x105E JUMP JUMPDEST SWAP2 SWAP1 PUSH1 0x4 DUP6 ADD DUP4 MSTORE DUP2 DUP4 KECCAK256 SWAP3 JUMPDEST PUSH1 0x1F NOT DUP6 AND DUP2 LT PUSH2 0x163A JUMPI POP SWAP2 DUP4 SWAP2 PUSH1 0x1 SWAP4 PUSH1 0x4 SWAP6 PUSH1 0x1F NOT DUP2 AND LT PUSH2 0x1621 JUMPI JUMPDEST POP POP POP DUP2 SHL ADD SWAP2 ADD SSTORE PUSH2 0x1510 JUMP JUMPDEST ADD MLOAD PUSH1 0x0 NOT PUSH1 0xF8 DUP5 PUSH1 0x3 SHL AND SHR NOT AND SWAP1 SSTORE DUP7 DUP1 DUP1 PUSH2 0x1613 JUMP JUMPDEST SWAP2 SWAP3 DUP8 PUSH1 0x1 DUP2 SWAP3 DUP7 DUP6 ADD MLOAD DUP2 SSTORE ADD SWAP5 ADD SWAP3 ADD PUSH2 0x15F3 JUMP JUMPDEST PUSH4 0x4E487B71 PUSH1 0xE0 SHL DUP6 MSTORE PUSH1 0x41 PUSH1 0x4 MSTORE PUSH1 0x24 DUP6 REVERT JUMPDEST ADD MLOAD SWAP1 POP DUP9 DUP1 PUSH2 0x105E JUMP JUMPDEST DUP4 DUP9 MSTORE DUP2 DUP9 KECCAK256 SWAP2 SWAP1 PUSH1 0x1F NOT DUP5 AND DUP10 JUMPDEST DUP2 DUP2 LT PUSH2 0x16BB JUMPI POP SWAP1 DUP5 PUSH1 0x1 SWAP6 SWAP5 SWAP4 SWAP3 LT PUSH2 0x16A2 JUMPI JUMPDEST POP POP POP DUP2 SHL ADD SWAP1 SSTORE PUSH2 0x14AC JUMP JUMPDEST ADD MLOAD PUSH1 0x0 NOT PUSH1 0xF8 DUP5 PUSH1 0x3 SHL AND SHR NOT AND SWAP1 SSTORE DUP8 DUP1 DUP1 PUSH2 0x1695 JUMP JUMPDEST SWAP3 SWAP4 PUSH1 0x20 PUSH1 0x1 DUP2 SWAP3 DUP8 DUP7 ADD MLOAD DUP2 SSTORE ADD SWAP6 ADD SWAP4 ADD PUSH2 0x167F JUMP JUMPDEST PUSH4 0x4E487B71 PUSH1 0xE0 SHL DUP8 MSTORE PUSH1 0x41 PUSH1 0x4 MSTORE PUSH1 0x24 DUP8 REVERT JUMPDEST ADD MLOAD SWAP1 POP DUP10 DUP1 PUSH2 0x105E JUMP JUMPDEST PUSH1 0x1 DUP8 ADD DUP10 MSTORE DUP2 DUP10 KECCAK256 SWAP2 SWAP1 PUSH1 0x1F NOT DUP5 AND DUP11 JUMPDEST DUP2 DUP2 LT PUSH2 0x1743 JUMPI POP SWAP1 DUP5 PUSH1 0x1 SWAP6 SWAP5 SWAP4 SWAP3 LT PUSH2 0x172A JUMPI JUMPDEST POP POP POP DUP2 SHL ADD PUSH1 0x1 DUP6 ADD SSTORE PUSH2 0x144A JUMP JUMPDEST ADD MLOAD PUSH1 0x0 NOT PUSH1 0xF8 DUP5 PUSH1 0x3 SHL AND SHR NOT AND SWAP1 SSTORE DUP9 DUP1 DUP1 PUSH2 0x171A JUMP JUMPDEST SWAP3 SWAP4 PUSH1 0x20 PUSH1 0x1 DUP2 SWAP3 DUP8 DUP7 ADD MLOAD DUP2 SSTORE ADD SWAP6 ADD SWAP4 ADD PUSH2 0x1704 JUMP JUMPDEST PUSH4 0x4E487B71 PUSH1 0xE0 SHL DUP9 MSTORE PUSH1 0x41 PUSH1 0x4 MSTORE PUSH1 0x24 DUP9 REVERT JUMPDEST PUSH4 0x4E487B71 PUSH1 0xE0 SHL DUP6 MSTORE PUSH1 0x21 PUSH1 0x4 MSTORE PUSH1 0x24 DUP6 REVERT JUMPDEST SWAP1 PUSH1 0x1 DUP5 ADD PUSH1 0x0 MSTORE DUP1 PUSH1 0x0 KECCAK256 SWAP2 PUSH1 0x0 JUMPDEST PUSH1 0x1F NOT DUP6 AND DUP2 LT PUSH2 0x17DD JUMPI POP SWAP2 DUP4 SWAP2 PUSH1 0x1 SWAP4 PUSH1 0x6 SWAP7 SWAP6 PUSH1 0x1F NOT DUP2 AND LT PUSH2 0x17C4 JUMPI JUMPDEST POP POP POP DUP2 SHL ADD PUSH1 0x1 DUP3 ADD SSTORE PUSH2 0x1079 JUMP JUMPDEST ADD MLOAD PUSH1 0x0 NOT PUSH1 0xF8 DUP5 PUSH1 0x3 SHL AND SHR NOT AND SWAP1 SSTORE DUP8 DUP1 DUP1 PUSH2 0x17B4 JUMP JUMPDEST SWAP2 SWAP3 PUSH1 0x20 PUSH1 0x1 DUP2 SWAP3 DUP7 DUP6 ADD MLOAD DUP2 SSTORE ADD SWAP5 ADD SWAP3 ADD PUSH2 0x1793 JUMP JUMPDEST PUSH4 0x4E487B71 PUSH1 0xE0 SHL PUSH1 0x0 MSTORE PUSH1 0x41 PUSH1 0x4 MSTORE PUSH1 0x24 PUSH1 0x0 REVERT JUMPDEST PUSH4 0x4E487B71 PUSH1 0xE0 SHL PUSH1 0x0 MSTORE PUSH1 0x11 PUSH1 0x4 MSTORE PUSH1 0x24 PUSH1 0x0 REVERT JUMPDEST PUSH4 0x5D807F67 PUSH1 0xE0 SHL PUSH1 0x0 MSTORE PUSH1 0x4 PUSH1 0x0 REVERT JUMPDEST POP PUSH2 0x1847 PUSH1 0xE4 PUSH1 0x4 CALLDATALOAD ADD PUSH1 0x4 CALLDATALOAD PUSH1 0x4 ADD PUSH2 0x22BD JUMP JUMPDEST CALLDATALOAD ISZERO PUSH2 0xEAA JUMP JUMPDEST PUSH4 0x58D620B3 PUSH1 0xE0 SHL PUSH1 0x0 MSTORE PUSH1 0x4 PUSH1 0x0 REVERT JUMPDEST POP PUSH2 0x12C PUSH2 0xFFFF PUSH2 0x1874 PUSH1 0xA4 PUSH1 0x4 CALLDATALOAD ADD PUSH2 0x228D JUMP JUMPDEST AND GT PUSH2 0xE76 JUMP JUMPDEST PUSH4 0x95295D15 PUSH1 0xE0 SHL PUSH1 0x0 MSTORE PUSH1 0x4 PUSH1 0x0 REVERT JUMPDEST PUSH4 0x8EF0DD5D PUSH1 0xE0 SHL PUSH1 0x0 MSTORE PUSH1 0x4 PUSH1 0x0 REVERT JUMPDEST CALLVALUE PUSH2 0x21F JUMPI PUSH1 0x0 CALLDATASIZE PUSH1 0x3 NOT ADD SLT PUSH2 0x21F JUMPI PUSH1 0x20 PUSH4 0xFFFFFFFF PUSH1 0x3 SLOAD PUSH1 0xA0 SHR AND PUSH1 0x40 MLOAD SWAP1 DUP2 MSTORE RETURN JUMPDEST CALLVALUE PUSH2 0x21F JUMPI PUSH1 0x0 CALLDATASIZE PUSH1 0x3 NOT ADD SLT PUSH2 0x21F JUMPI PUSH2 0x18DD PUSH2 0x243C JUMP JUMPDEST PUSH1 0x1 SLOAD PUSH1 0xFF DUP2 AND ISZERO PUSH2 0x191C JUMPI PUSH1 0xFF NOT AND PUSH1 0x1 SSTORE PUSH32 0x5DB9EE0A495BF2E6FF9C91A7834C1BA4FDD244A5E8AA4E537BD38AEAE4B073AA PUSH1 0x20 PUSH1 0x40 MLOAD CALLER DUP2 MSTORE LOG1 STOP JUMPDEST PUSH4 0x8DFC202B PUSH1 0xE0 SHL PUSH1 0x0 MSTORE PUSH1 0x4 PUSH1 0x0 REVERT JUMPDEST CALLVALUE PUSH2 0x21F JUMPI PUSH1 0x40 CALLDATASIZE PUSH1 0x3 NOT ADD SLT PUSH2 0x21F JUMPI PUSH2 0x1946 PUSH2 0x1D3B JUMP JUMPDEST CALLER PUSH1 0x1 PUSH1 0x1 PUSH1 0xA0 SHL SUB DUP3 AND SUB PUSH2 0x1962 JUMPI PUSH2 0x3EE SWAP1 PUSH1 0x4 CALLDATALOAD PUSH2 0x2574 JUMP JUMPDEST PUSH4 0x334BD919 PUSH1 0xE1 SHL PUSH1 0x0 MSTORE PUSH1 0x4 PUSH1 0x0 REVERT JUMPDEST CALLVALUE PUSH2 0x21F JUMPI PUSH1 0x40 CALLDATASIZE PUSH1 0x3 NOT ADD SLT PUSH2 0x21F JUMPI PUSH2 0x3EE PUSH1 0x4 CALLDATALOAD PUSH2 0x1992 PUSH2 0x1D3B JUMP JUMPDEST SWAP1 PUSH2 0x19AE PUSH2 0x3E4 DUP3 PUSH1 0x0 MSTORE PUSH1 0x0 PUSH1 0x20 MSTORE PUSH1 0x1 PUSH1 0x40 PUSH1 0x0 KECCAK256 ADD SLOAD SWAP1 JUMP JUMPDEST PUSH2 0x24E9 JUMP JUMPDEST CALLVALUE PUSH2 0x21F JUMPI PUSH1 0x0 CALLDATASIZE PUSH1 0x3 NOT ADD SLT PUSH2 0x21F JUMPI PUSH1 0x20 PUSH1 0x40 MLOAD PUSH32 0x55435DD261A4B9B3364963F7738A7A662AD9C84396D64BE3365284BB7F0A5041 DUP2 MSTORE RETURN JUMPDEST CALLVALUE PUSH2 0x21F JUMPI PUSH1 0x20 CALLDATASIZE PUSH1 0x3 NOT ADD SLT PUSH2 0x21F JUMPI PUSH1 0x20 PUSH2 0x1A1B PUSH1 0x4 CALLDATALOAD PUSH1 0x0 MSTORE PUSH1 0x0 PUSH1 0x20 MSTORE PUSH1 0x1 PUSH1 0x40 PUSH1 0x0 KECCAK256 ADD SLOAD SWAP1 JUMP JUMPDEST PUSH1 0x40 MLOAD SWAP1 DUP2 MSTORE RETURN JUMPDEST CALLVALUE PUSH2 0x21F JUMPI PUSH1 0x40 CALLDATASIZE PUSH1 0x3 NOT ADD SLT PUSH2 0x21F JUMPI PUSH2 0x1A3C PUSH2 0x1D28 JUMP JUMPDEST PUSH1 0x24 CALLDATALOAD PUSH1 0x3 DUP2 LT ISZERO PUSH2 0x21F JUMPI PUSH2 0x3EE SWAP2 PUSH2 0x1A54 PUSH2 0x241F JUMP JUMPDEST PUSH2 0x1EFC JUMP JUMPDEST CALLVALUE PUSH2 0x21F JUMPI PUSH1 0x20 CALLDATASIZE PUSH1 0x3 NOT ADD SLT PUSH2 0x21F JUMPI PUSH4 0xFFFFFFFF PUSH2 0x1A77 PUSH2 0x1D28 JUMP JUMPDEST AND PUSH1 0x0 SWAP1 DUP2 MSTORE PUSH1 0x4 PUSH1 0x20 DUP2 DUP2 MSTORE PUSH1 0x40 SWAP3 DUP4 SWAP1 KECCAK256 SWAP2 DUP3 ADD SLOAD PUSH1 0x5 SWAP1 SWAP3 ADD SLOAD DUP4 MLOAD PUSH1 0x1 PUSH1 0x1 PUSH1 0x80 SHL SUB PUSH1 0x60 SWAP5 SWAP1 SWAP5 SHR DUP5 AND DUP2 MSTORE SWAP3 AND SWAP1 DUP3 ADD MSTORE RETURN JUMPDEST CALLVALUE PUSH2 0x21F JUMPI PUSH1 0x20 CALLDATASIZE PUSH1 0x3 NOT ADD SLT PUSH2 0x21F JUMPI PUSH4 0xFFFFFFFF PUSH2 0x1ACE PUSH2 0x1D28 JUMP JUMPDEST PUSH2 0x1AD6 PUSH2 0x23BD JUMP JUMPDEST AND DUP1 PUSH1 0x0 MSTORE PUSH1 0x4 PUSH1 0x20 MSTORE PUSH1 0x40 PUSH1 0x0 KECCAK256 SWAP1 PUSH1 0x6 DUP3 ADD SWAP2 DUP3 SLOAD SWAP3 PUSH1 0xFF DUP5 PUSH1 0x80 SHR AND SWAP2 PUSH1 0x4 DUP4 LT ISZERO SWAP3 DUP4 PUSH2 0x376 JUMPI DUP1 ISZERO DUP1 ISZERO PUSH2 0x1CC7 JUMPI JUMPDEST PUSH2 0x1CB6 JUMPI PUSH1 0x0 DUP6 DUP2 MSTORE PUSH1 0x6 PUSH1 0x20 SWAP1 DUP2 MSTORE PUSH1 0x40 DUP1 DUP4 KECCAK256 CALLER DUP5 MSTORE SWAP1 SWAP2 MSTORE SWAP1 KECCAK256 SWAP4 PUSH2 0x376 JUMPI PUSH1 0x3 EQ SWAP5 DUP6 ISZERO PUSH2 0x1BD4 JUMPI POP POP POP PUSH1 0x1 PUSH1 0x1 PUSH1 0x80 SHL SUB PUSH2 0x1B52 DUP3 SLOAD DUP3 DUP2 PUSH1 0x80 SHR SWAP2 AND PUSH2 0x1EAB JUMP JUMPDEST AND SWAP1 DUP2 ISZERO PUSH2 0x1BC3 JUMPI PUSH1 0x0 SWAP1 SSTORE SWAP2 JUMPDEST PUSH2 0x1B8B DUP4 CALLER PUSH32 0x0 PUSH2 0x23DD JUMP JUMPDEST PUSH1 0x40 MLOAD SWAP3 DUP4 MSTORE PUSH1 0x20 DUP4 ADD MSTORE PUSH32 0xB2EC9C67B236A39CCCA91F6C3F79A7E734543E274DEA51C5F3201A42C125C7A2 PUSH1 0x40 CALLER SWAP4 LOG3 PUSH1 0x1 PUSH1 0x2 SSTORE STOP JUMPDEST PUSH4 0x12D37EE5 PUSH1 0xE3 SHL PUSH1 0x0 MSTORE PUSH1 0x4 PUSH1 0x0 REVERT JUMPDEST PUSH1 0xFF SWAP1 PUSH1 0x88 SWAP5 SWAP3 SWAP4 SWAP5 SHR AND SWAP2 PUSH1 0x3 DUP4 LT ISZERO PUSH2 0x376 JUMPI PUSH1 0x1 DUP4 EQ DUP1 ISZERO PUSH2 0x1CA4 JUMPI PUSH1 0x1 PUSH1 0x1 PUSH1 0x80 SHL SUB DUP1 DUP5 SLOAD AND JUMPDEST AND SWAP2 DUP3 ISZERO PUSH2 0x1BC3 JUMPI PUSH2 0x1C4B PUSH2 0x1C56 SWAP5 PUSH1 0x2 PUSH1 0x1 PUSH1 0x1 PUSH1 0x80 SHL SUB SWAP8 PUSH1 0x5 SWAP6 PUSH1 0x0 SWAP1 PUSH1 0x0 EQ PUSH2 0x1C9A JUMPI DUP10 DUP2 JUMPDEST AND DUP11 NOT DUP6 SLOAD AND OR DUP5 SSTORE POP EQ PUSH1 0x0 EQ PUSH2 0x1C7D JUMPI DUP1 SLOAD PUSH1 0x1 PUSH1 0x1 PUSH1 0x80 SHL SUB AND SWAP1 SSTORE JUMP JUMPDEST ADD SLOAD PUSH1 0x80 SHR SWAP1 PUSH2 0x1E98 JUMP JUMPDEST SWAP2 SLOAD AND SWAP1 DUP2 ISZERO PUSH2 0x1C67 JUMPI DIV SWAP2 PUSH2 0x1B60 JUMP JUMPDEST PUSH4 0x4E487B71 PUSH1 0xE0 SHL PUSH1 0x0 MSTORE PUSH1 0x12 PUSH1 0x4 MSTORE PUSH1 0x24 PUSH1 0x0 REVERT JUMPDEST DUP1 SLOAD PUSH1 0x1 PUSH1 0x1 PUSH1 0x80 SHL SUB DUP2 AND PUSH1 0x1 PUSH1 0x1 PUSH1 0x80 SHL SUB NOT SWAP1 SWAP2 AND OR SWAP1 SSTORE JUMP JUMPDEST DUP10 DUP1 DUP6 SLOAD AND PUSH2 0x1C2A JUMP JUMPDEST PUSH1 0x1 PUSH1 0x1 PUSH1 0x80 SHL SUB DUP4 SLOAD PUSH1 0x80 SHR PUSH2 0x1C00 JUMP JUMPDEST PUSH4 0x174B6393 PUSH1 0xE1 SHL PUSH1 0x0 MSTORE PUSH1 0x4 PUSH1 0x0 REVERT JUMPDEST POP PUSH1 0x0 SWAP4 POP PUSH1 0x1 DUP2 EQ PUSH2 0x1B0A JUMP JUMPDEST CALLVALUE PUSH2 0x21F JUMPI PUSH1 0x20 CALLDATASIZE PUSH1 0x3 NOT ADD SLT PUSH2 0x21F JUMPI PUSH1 0x4 CALLDATALOAD SWAP1 PUSH4 0xFFFFFFFF PUSH1 0xE0 SHL DUP3 AND DUP1 SWAP3 SUB PUSH2 0x21F JUMPI PUSH1 0x20 SWAP2 PUSH4 0x7965DB0B PUSH1 0xE0 SHL DUP2 EQ SWAP1 DUP2 ISZERO PUSH2 0x1D17 JUMPI JUMPDEST POP ISZERO ISZERO DUP2 MSTORE RETURN JUMPDEST PUSH4 0x1FFC9A7 PUSH1 0xE0 SHL EQ SWAP1 POP DUP4 PUSH2 0x1D10 JUMP JUMPDEST PUSH1 0x4 CALLDATALOAD SWAP1 PUSH4 0xFFFFFFFF DUP3 AND DUP3 SUB PUSH2 0x21F JUMPI JUMP JUMPDEST PUSH1 0x24 CALLDATALOAD SWAP1 PUSH1 0x1 PUSH1 0x1 PUSH1 0xA0 SHL SUB DUP3 AND DUP3 SUB PUSH2 0x21F JUMPI JUMP JUMPDEST SWAP2 SWAP1 DUP3 MLOAD SWAP3 DUP4 DUP3 MSTORE PUSH1 0x0 JUMPDEST DUP5 DUP2 LT PUSH2 0x1D7D JUMPI POP POP DUP3 PUSH1 0x0 PUSH1 0x20 DUP1 SWAP5 SWAP6 DUP5 ADD ADD MSTORE PUSH1 0x1F DUP1 NOT SWAP2 ADD AND ADD ADD SWAP1 JUMP JUMPDEST DUP1 PUSH1 0x20 DUP1 SWAP3 DUP5 ADD ADD MLOAD DUP3 DUP3 DUP7 ADD ADD MSTORE ADD PUSH2 0x1D5C JUMP JUMPDEST SWAP1 PUSH1 0x1 DUP3 DUP2 SHR SWAP3 AND DUP1 ISZERO PUSH2 0x1DC2 JUMPI JUMPDEST PUSH1 0x20 DUP4 LT EQ PUSH2 0x1DAC JUMPI JUMP JUMPDEST PUSH4 0x4E487B71 PUSH1 0xE0 SHL PUSH1 0x0 MSTORE PUSH1 0x22 PUSH1 0x4 MSTORE PUSH1 0x24 PUSH1 0x0 REVERT JUMPDEST SWAP2 PUSH1 0x7F AND SWAP2 PUSH2 0x1DA1 JUMP JUMPDEST PUSH1 0x0 SWAP3 SWAP2 DUP2 SLOAD SWAP2 PUSH2 0x1DDC DUP4 PUSH2 0x1D92 JUMP JUMPDEST DUP1 DUP4 MSTORE SWAP3 PUSH1 0x1 DUP2 AND SWAP1 DUP2 ISZERO PUSH2 0x1E32 JUMPI POP PUSH1 0x1 EQ PUSH2 0x1DF8 JUMPI POP POP POP JUMP JUMPDEST PUSH1 0x0 SWAP1 DUP2 MSTORE PUSH1 0x20 DUP2 KECCAK256 SWAP4 SWAP5 POP SWAP2 SWAP3 JUMPDEST DUP4 DUP4 LT PUSH2 0x1E18 JUMPI POP PUSH1 0x20 SWAP3 POP ADD ADD SWAP1 JUMP JUMPDEST PUSH1 0x1 DUP2 PUSH1 0x20 SWAP3 SWAP5 SWAP4 SWAP5 SLOAD DUP4 DUP6 DUP8 ADD ADD MSTORE ADD SWAP2 ADD SWAP2 SWAP1 PUSH2 0x1E07 JUMP JUMPDEST SWAP2 POP POP PUSH1 0x20 SWAP4 SWAP5 POP PUSH1 0xFF SWAP3 SWAP2 SWAP3 NOT AND DUP4 DUP4 ADD MSTORE ISZERO ISZERO PUSH1 0x5 SHL ADD ADD SWAP1 JUMP JUMPDEST PUSH1 0xA0 DUP2 ADD SWAP1 DUP2 LT PUSH1 0x1 PUSH1 0x1 PUSH1 0x40 SHL SUB DUP3 GT OR PUSH2 0x17F5 JUMPI PUSH1 0x40 MSTORE JUMP JUMPDEST SWAP1 PUSH1 0x1F DUP1 NOT SWAP2 ADD AND DUP2 ADD SWAP1 DUP2 LT PUSH1 0x1 PUSH1 0x1 PUSH1 0x40 SHL SUB DUP3 GT OR PUSH2 0x17F5 JUMPI PUSH1 0x40 MSTORE JUMP JUMPDEST SWAP1 PUSH1 0x3 DUP3 LT ISZERO PUSH2 0x376 JUMPI MSTORE JUMP JUMPDEST DUP2 DUP2 MUL SWAP3 SWAP2 DUP2 ISZERO SWAP2 DUP5 DIV EQ OR ISZERO PUSH2 0x180B JUMPI JUMP JUMPDEST SWAP1 PUSH1 0x1 PUSH1 0x1 PUSH1 0x80 SHL SUB DUP1 SWAP2 AND SWAP2 AND ADD SWAP1 PUSH1 0x1 PUSH1 0x1 PUSH1 0x80 SHL SUB DUP3 GT PUSH2 0x180B JUMPI JUMP JUMPDEST SWAP1 PUSH1 0x3 DUP2 LT ISZERO PUSH2 0x376 JUMPI DUP2 SLOAD PUSH1 0xFF PUSH1 0x88 SHL NOT AND PUSH1 0x88 SWAP2 SWAP1 SWAP2 SHL PUSH1 0xFF PUSH1 0x88 SHL AND OR SWAP1 SSTORE JUMP JUMPDEST SWAP2 SWAP1 DUP3 SUB SWAP2 DUP3 GT PUSH2 0x180B JUMPI JUMP JUMPDEST PUSH1 0x3 DUP3 LT ISZERO PUSH2 0x376 JUMPI DUP2 ISZERO PUSH2 0x2268 JUMPI PUSH4 0xFFFFFFFF AND SWAP1 DUP2 PUSH1 0x0 MSTORE PUSH1 0x4 PUSH1 0x20 MSTORE PUSH1 0x40 PUSH1 0x0 KECCAK256 SWAP1 PUSH1 0x6 DUP3 ADD SWAP2 DUP3 SLOAD PUSH1 0xFF DUP2 PUSH1 0x80 SHR AND PUSH1 0x4 DUP2 LT ISZERO PUSH2 0x376 JUMPI PUSH1 0x2 EQ PUSH2 0x2257 JUMPI PUSH1 0x3 DUP3 ADD SLOAD PUSH1 0x1 PUSH1 0x1 PUSH1 0x40 SHL SUB DUP2 PUSH1 0xA0 SHR AND TIMESTAMP LT PUSH2 0x2246 JUMPI PUSH1 0x1 PUSH1 0x1 PUSH1 0xA0 SHL SUB AND CALLER EQ ISZERO DUP1 PUSH2 0x220D JUMPI JUMPDEST PUSH2 0x21FC JUMPI PUSH1 0x90 SHR PUSH1 0xFF AND DUP1 PUSH2 0x21E6 JUMPI JUMPDEST PUSH2 0x1821 JUMPI PUSH1 0x4 DUP2 ADD SWAP1 PUSH1 0x1 PUSH1 0x1 PUSH1 0x80 SHL SUB DUP3 SLOAD PUSH1 0x60 SHR AND SWAP1 PUSH1 0x5 DUP2 ADD SWAP2 PUSH1 0x1 PUSH1 0x1 PUSH1 0x80 SHL SUB DUP4 SLOAD AND PUSH1 0x1 PUSH1 0x1 PUSH1 0x80 SHL SUB PUSH2 0x1FB3 DUP3 DUP5 PUSH2 0x1EAB JUMP JUMPDEST DUP7 SLOAD PUSH8 0xFFFFFFFFFFFFFFFF NOT AND TIMESTAMP PUSH1 0x1 PUSH1 0x1 PUSH1 0x40 SHL SUB AND OR DUP8 SSTORE AND SWAP2 DUP3 ISZERO PUSH2 0x21A2 JUMPI PUSH1 0x1 PUSH1 0x1 PUSH1 0x80 SHL SUB SWAP1 PUSH1 0x0 SWAP3 PUSH1 0x1 DUP10 EQ PUSH1 0x0 EQ PUSH2 0x219B JUMPI POP JUMPDEST AND SWAP5 DUP6 ISZERO PUSH2 0x215A JUMPI SWAP2 PUSH32 0x718EDDE5FD22AE91FEF18A040EC4D17769889F06D02E71A70758859D556040CE SWAP8 PUSH2 0x20A3 PUSH1 0x1 PUSH1 0x1 PUSH1 0x80 SHL SUB PUSH2 0xFFFF SWAP5 PUSH2 0x2069 PUSH1 0x60 SWAP12 SWAP11 SWAP10 SWAP9 SWAP8 SLOAD SWAP6 PUSH2 0x2064 PUSH2 0x2710 PUSH2 0x205B DUP2 PUSH2 0x204D DUP13 DUP13 PUSH1 0x40 SHR AND DUP7 PUSH2 0x1E98 JUMP JUMPDEST DIV SWAP11 DUP12 SWAP11 PUSH1 0x50 SHR AND DUP5 PUSH2 0x1E98 JUMP JUMPDEST DIV SWAP9 DUP10 SWAP3 PUSH2 0x1EEF JUMP JUMPDEST PUSH2 0x1EEF JUMP JUMPDEST DUP5 SLOAD PUSH1 0xFF PUSH1 0x80 SHL NOT AND PUSH1 0x1 PUSH1 0x81 SHL OR DUP6 SSTORE SWAP1 POP PUSH2 0x2086 DUP11 DUP6 PUSH2 0x1ECB JUMP JUMPDEST AND DUP1 SWAP7 SWAP1 PUSH1 0x1 PUSH1 0x1 PUSH1 0x80 SHL SUB DUP3 SLOAD SWAP2 DUP2 NOT SWAP1 PUSH1 0x80 SHL AND SWAP2 AND OR SWAP1 SSTORE JUMP JUMPDEST DUP1 SLOAD PUSH1 0x1 PUSH1 0x1 PUSH1 0x80 SHL SUB NOT AND DUP7 OR SWAP1 SSTORE DUP1 PUSH2 0x211D JUMPI JUMPDEST POP DUP1 PUSH2 0x20DC JUMPI JUMPDEST POP POP PUSH2 0x20CF PUSH1 0x40 MLOAD DUP1 SWAP5 PUSH2 0x1E8B JUMP JUMPDEST PUSH1 0x20 DUP4 ADD MSTORE PUSH1 0x40 DUP3 ADD MSTORE LOG2 JUMP JUMPDEST PUSH1 0x2 SWAP1 SWAP2 ADD SLOAD PUSH2 0x2116 SWAP2 SWAP1 PUSH1 0x1 PUSH1 0x1 PUSH1 0xA0 SHL SUB AND PUSH32 0x0 PUSH2 0x23DD JUMP JUMPDEST CODESIZE DUP1 PUSH2 0x20C0 JUMP JUMPDEST PUSH1 0x3 SLOAD PUSH2 0x2154 SWAP2 SWAP1 PUSH1 0x1 PUSH1 0x1 PUSH1 0xA0 SHL SUB AND PUSH32 0x0 PUSH2 0x23DD JUMP JUMPDEST CODESIZE PUSH2 0x20B9 JUMP JUMPDEST POP DUP7 SLOAD PUSH2 0xFFFF PUSH1 0x80 SHL NOT AND PUSH1 0x3 PUSH1 0x80 SHL OR SWAP1 SWAP7 SSTORE POP PUSH32 0xF92A486355D4079C0D685A1AE91C99398E0E0B06B6E4A4924DFD849E11D811E8 SWAP5 SWAP4 POP DUP4 SWAP3 POP POP POP LOG2 JUMP JUMPDEST SWAP1 POP PUSH2 0x1FEE JUMP JUMPDEST POP POP DUP6 SLOAD PUSH2 0xFFFF PUSH1 0x80 SHL NOT AND PUSH1 0x3 PUSH1 0x80 SHL OR SWAP1 SWAP6 SSTORE POP PUSH32 0xF92A486355D4079C0D685A1AE91C99398E0E0B06B6E4A4924DFD849E11D811E8 SWAP4 POP PUSH1 0x0 SWAP3 POP DUP3 SWAP2 POP POP LOG2 JUMP JUMPDEST POP DUP4 PUSH1 0x0 MSTORE PUSH1 0x5 PUSH1 0x20 MSTORE PUSH1 0x40 PUSH1 0x0 KECCAK256 SLOAD ISZERO PUSH2 0x1F79 JUMP JUMPDEST PUSH4 0x66FBA97 PUSH1 0xE4 SHL PUSH1 0x0 MSTORE PUSH1 0x4 PUSH1 0x0 REVERT JUMPDEST POP CALLER PUSH1 0x0 SWAP1 DUP2 MSTORE PUSH32 0x40DA0F42A661166D5434D4603ECBFF423639C47E2526AD0538D7C3517A623890 PUSH1 0x20 MSTORE PUSH1 0x40 SWAP1 KECCAK256 SLOAD PUSH1 0xFF AND ISZERO PUSH2 0x1F69 JUMP JUMPDEST PUSH4 0x573AA9C5 PUSH1 0xE1 SHL PUSH1 0x0 MSTORE PUSH1 0x4 PUSH1 0x0 REVERT JUMPDEST PUSH4 0xAA43CB2D PUSH1 0xE0 SHL PUSH1 0x0 MSTORE PUSH1 0x4 PUSH1 0x0 REVERT JUMPDEST PUSH4 0xF69B881 PUSH1 0xE1 SHL PUSH1 0x0 MSTORE PUSH1 0x4 PUSH1 0x0 REVERT JUMPDEST CALLDATALOAD PUSH1 0x1 PUSH1 0x1 PUSH1 0x40 SHL SUB DUP2 AND DUP2 SUB PUSH2 0x21F JUMPI SWAP1 JUMP JUMPDEST CALLDATALOAD PUSH2 0xFFFF DUP2 AND DUP2 SUB PUSH2 0x21F JUMPI SWAP1 JUMP JUMPDEST CALLDATALOAD PUSH1 0x1 PUSH1 0x1 PUSH1 0xA0 SHL SUB DUP2 AND DUP2 SUB PUSH2 0x21F JUMPI SWAP1 JUMP JUMPDEST CALLDATALOAD DUP1 ISZERO ISZERO DUP2 SUB PUSH2 0x21F JUMPI SWAP1 JUMP JUMPDEST SWAP1 CALLDATALOAD SWAP1 PUSH1 0x9E NOT DUP2 CALLDATASIZE SUB ADD DUP3 SLT ISZERO PUSH2 0x21F JUMPI ADD SWAP1 JUMP JUMPDEST SWAP1 CALLDATALOAD SWAP1 PUSH1 0x1E NOT DUP2 CALLDATASIZE SUB ADD DUP3 SLT ISZERO PUSH2 0x21F JUMPI ADD DUP1 CALLDATALOAD SWAP1 PUSH1 0x1 PUSH1 0x1 PUSH1 0x40 SHL SUB DUP3 GT PUSH2 0x21F JUMPI PUSH1 0x20 ADD SWAP2 DUP2 CALLDATASIZE SUB DUP4 SGT PUSH2 0x21F JUMPI JUMP JUMPDEST SWAP3 SWAP2 SWAP3 PUSH1 0x1 PUSH1 0x1 PUSH1 0x40 SHL SUB DUP3 GT PUSH2 0x17F5 JUMPI PUSH1 0x40 MLOAD SWAP2 PUSH2 0x232D PUSH1 0x1F DUP3 ADD PUSH1 0x1F NOT AND PUSH1 0x20 ADD DUP5 PUSH2 0x1E6A JUMP JUMPDEST DUP3 SWAP5 DUP2 DUP5 MSTORE DUP2 DUP4 ADD GT PUSH2 0x21F JUMPI DUP3 DUP2 PUSH1 0x20 SWAP4 DUP5 PUSH1 0x0 SWAP7 ADD CALLDATACOPY ADD ADD MSTORE JUMP JUMPDEST PUSH1 0x1F DUP3 GT PUSH2 0x2357 JUMPI POP POP POP JUMP JUMPDEST PUSH1 0x0 MSTORE PUSH1 0x20 PUSH1 0x0 KECCAK256 SWAP1 PUSH1 0x20 PUSH1 0x1F DUP5 ADD PUSH1 0x5 SHR DUP4 ADD SWAP4 LT PUSH2 0x2392 JUMPI JUMPDEST PUSH1 0x1F ADD PUSH1 0x5 SHR ADD SWAP1 JUMPDEST DUP2 DUP2 LT PUSH2 0x2386 JUMPI POP POP JUMP JUMPDEST PUSH1 0x0 DUP2 SSTORE PUSH1 0x1 ADD PUSH2 0x237B JUMP JUMPDEST SWAP1 SWAP2 POP DUP2 SWAP1 PUSH2 0x2372 JUMP JUMPDEST SWAP1 DUP1 PUSH1 0x20 SWAP4 SWAP3 DUP2 DUP5 MSTORE DUP5 DUP5 ADD CALLDATACOPY PUSH1 0x0 DUP3 DUP3 ADD DUP5 ADD MSTORE PUSH1 0x1F ADD PUSH1 0x1F NOT AND ADD ADD SWAP1 JUMP JUMPDEST PUSH1 0x2 DUP1 SLOAD EQ PUSH2 0x23CC JUMPI PUSH1 0x2 DUP1 SSTORE JUMP JUMPDEST PUSH4 0x3EE5AEB5 PUSH1 0xE0 SHL PUSH1 0x0 MSTORE PUSH1 0x4 PUSH1 0x0 REVERT JUMPDEST PUSH1 0x40 MLOAD PUSH4 0xA9059CBB PUSH1 0xE0 SHL PUSH1 0x20 DUP3 ADD MSTORE PUSH1 0x1 PUSH1 0x1 PUSH1 0xA0 SHL SUB SWAP1 SWAP3 AND PUSH1 0x24 DUP4 ADD MSTORE PUSH1 0x44 DUP1 DUP4 ADD SWAP4 SWAP1 SWAP4 MSTORE SWAP2 DUP2 MSTORE PUSH2 0x241D SWAP2 PUSH2 0x2418 PUSH1 0x64 DUP4 PUSH2 0x1E6A JUMP JUMPDEST PUSH2 0x25F6 JUMP JUMPDEST JUMP JUMPDEST PUSH1 0xFF PUSH1 0x1 SLOAD AND PUSH2 0x242B JUMPI JUMP JUMPDEST PUSH4 0xD93C0665 PUSH1 0xE0 SHL PUSH1 0x0 MSTORE PUSH1 0x4 PUSH1 0x0 REVERT JUMPDEST CALLER PUSH1 0x0 SWAP1 DUP2 MSTORE PUSH32 0x8A40F0B47FDC2A0CE293B772ACFC7508C8315A4D462786C1ADC3A56F92CA2D05 PUSH1 0x20 MSTORE PUSH1 0x40 SWAP1 KECCAK256 SLOAD PUSH1 0xFF AND ISZERO PUSH2 0x2475 JUMPI JUMP JUMPDEST PUSH4 0xE2517D3F PUSH1 0xE0 SHL PUSH1 0x0 MSTORE CALLER PUSH1 0x4 MSTORE PUSH32 0x55435DD261A4B9B3364963F7738A7A662AD9C84396D64BE3365284BB7F0A5041 PUSH1 0x24 MSTORE PUSH1 0x44 PUSH1 0x0 REVERT JUMPDEST PUSH1 0x0 DUP2 DUP2 MSTORE PUSH1 0x20 DUP2 DUP2 MSTORE PUSH1 0x40 DUP1 DUP4 KECCAK256 CALLER DUP5 MSTORE SWAP1 SWAP2 MSTORE SWAP1 KECCAK256 SLOAD PUSH1 0xFF AND ISZERO PUSH2 0x24D1 JUMPI POP JUMP JUMPDEST PUSH4 0xE2517D3F PUSH1 0xE0 SHL PUSH1 0x0 MSTORE CALLER PUSH1 0x4 MSTORE PUSH1 0x24 MSTORE PUSH1 0x44 PUSH1 0x0 REVERT JUMPDEST PUSH1 0x0 DUP2 DUP2 MSTORE PUSH1 0x20 DUP2 DUP2 MSTORE PUSH1 0x40 DUP1 DUP4 KECCAK256 PUSH1 0x1 PUSH1 0x1 PUSH1 0xA0 SHL SUB DUP7 AND DUP5 MSTORE SWAP1 SWAP2 MSTORE SWAP1 KECCAK256 SLOAD PUSH1 0xFF AND PUSH2 0x256D JUMPI PUSH1 0x0 DUP2 DUP2 MSTORE PUSH1 0x20 DUP2 DUP2 MSTORE PUSH1 0x40 DUP1 DUP4 KECCAK256 PUSH1 0x1 PUSH1 0x1 PUSH1 0xA0 SHL SUB SWAP6 SWAP1 SWAP6 AND DUP1 DUP5 MSTORE SWAP5 SWAP1 SWAP2 MSTORE DUP2 KECCAK256 DUP1 SLOAD PUSH1 0xFF NOT AND PUSH1 0x1 OR SWAP1 SSTORE CALLER SWAP3 SWAP2 SWAP1 PUSH32 0x2F8788117E7EFF1D82E926EC794901D17C78024A50270940304540A733656F0D SWAP1 DUP1 LOG4 PUSH1 0x1 SWAP1 JUMP JUMPDEST POP POP PUSH1 0x0 SWAP1 JUMP JUMPDEST PUSH1 0x0 DUP2 DUP2 MSTORE PUSH1 0x20 DUP2 DUP2 MSTORE PUSH1 0x40 DUP1 DUP4 KECCAK256 PUSH1 0x1 PUSH1 0x1 PUSH1 0xA0 SHL SUB DUP7 AND DUP5 MSTORE SWAP1 SWAP2 MSTORE SWAP1 KECCAK256 SLOAD PUSH1 0xFF AND ISZERO PUSH2 0x256D JUMPI PUSH1 0x0 DUP2 DUP2 MSTORE PUSH1 0x20 DUP2 DUP2 MSTORE PUSH1 0x40 DUP1 DUP4 KECCAK256 PUSH1 0x1 PUSH1 0x1 PUSH1 0xA0 SHL SUB SWAP6 SWAP1 SWAP6 AND DUP1 DUP5 MSTORE SWAP5 SWAP1 SWAP2 MSTORE DUP2 KECCAK256 DUP1 SLOAD PUSH1 0xFF NOT AND SWAP1 SSTORE CALLER SWAP3 SWAP2 SWAP1 PUSH32 0xF6391F5C32D9C69D2A47EA670B442974B53935D1EDC7FD64EB21E047A839171B SWAP1 DUP1 LOG4 PUSH1 0x1 SWAP1 JUMP JUMPDEST SWAP1 PUSH1 0x0 PUSH1 0x20 SWAP2 DUP3 DUP2 MLOAD SWAP2 ADD DUP3 DUP6 GAS CALL ISZERO PUSH2 0x2651 JUMPI PUSH1 0x0 MLOAD RETURNDATASIZE PUSH2 0x2648 JUMPI POP PUSH1 0x1 PUSH1 0x1 PUSH1 0xA0 SHL SUB DUP2 AND EXTCODESIZE ISZERO JUMPDEST PUSH2 0x2627 JUMPI POP JUMP JUMPDEST PUSH4 0x5274AFE7 PUSH1 0xE0 SHL PUSH1 0x0 SWAP1 DUP2 MSTORE PUSH1 0x1 PUSH1 0x1 PUSH1 0xA0 SHL SUB SWAP2 SWAP1 SWAP2 AND PUSH1 0x4 MSTORE PUSH1 0x24 SWAP1 REVERT JUMPDEST PUSH1 0x1 EQ ISZERO PUSH2 0x2620 JUMP JUMPDEST PUSH1 0x40 MLOAD RETURNDATASIZE PUSH1 0x0 DUP3 RETURNDATACOPY RETURNDATASIZE SWAP1 REVERT INVALID LOG2 PUSH5 0x6970667358 0x22 SLT KECCAK256 PUSH11 0x7CF798B1C8B2F7F86DA9F9 DUP13 CALLDATALOAD 0x24 DUP2 SSTORE PUSH23 0xFC61793456DABCF683A14DD8CA9E64736F6C634300081C STOP CALLER 0x2F DUP8 DUP9 GT PUSH31 0x7EFF1D82E926EC794901D17C78024A50270940304540A733656F0D8A40F0B4 PUSH32 0xDC2A0CE293B772ACFC7508C8315A4D462786C1ADC3A56F92CA2D05FB6CFBF0A6 0xE7 PUSH30 0xFD309859BF4BAD2C7342BD2B734E42C01CBC85D3E6DD74F95E40DA0F42A6 PUSH2 0x166D SLOAD CALLVALUE 0xD4 PUSH1 0x3E 0xCB SELFDESTRUCT TIMESTAMP CALLDATASIZE CODECOPY 0xC4 PUSH31 0x2526AD0538D7C3517A623890AD3228B676F7D3CD4284A5443F17F1962B36E4 SWAP2 0xB3 EXP BLOCKHASH 0xB2 BLOCKHASH PC BLOBHASH 0xE5 SWAP8 0xBA PUSH0 0xB5 "
        },
        "methodIdentifiers": {
          "BPS_DENOMINATOR()": "e1a45218",
          "CREATOR_ROLE()": "8aeda25a",
          "DEFAULT_ADMIN_ROLE()": "a217fddf",
          "GUARDIAN_ROLE()": "24ea54f4",
          "MAX_CREATOR_FEE_BPS()": "a844a134",
          "MAX_PROTOCOL_FEE_BPS()": "6d947e4b",
          "RESOLVER_ROLE()": "78fab260",
          "claim(uint32)": "04951891",
          "closeMarket(uint32)": "99a9b838",
          "createMarket((bytes32,uint64,address,bool,uint16,uint16,string,(bytes32,string,int256,string,bytes)))": "41a35b00",
          "getOracleCondition(uint32)": "6e3de5f1",
          "getRoleAdmin(bytes32)": "248a9ca3",
          "grantRole(bytes32,address)": "2f2ff15d",
          "hasRole(bytes32,address)": "91d14854",
          "marketPools(uint32)": "0f2965fb",
          "markets(uint32)": "ece91e35",
          "nextMarketId()": "406ef2ef",
          "pause()": "8456cb59",
          "paused()": "5c975abb",
          "positionOf(uint32,address)": "42f9f61d",
          "renounceRole(bytes32,address)": "36568abe",
          "resolveMarket(uint32,uint8)": "1dcb66e6",
          "revokeRole(bytes32,address)": "d547741f",
          "setTreasury(address)": "f0f44260",
          "stake(uint32,uint8,uint128)": "5c837e0e",
          "stakingToken()": "72f702f3",
          "supportsInterface(bytes4)": "01ffc9a7",
          "treasury()": "61d027b3",
          "unpause()": "3f4ba83a",
          "updateMetadata(uint32,string)": "53e33264",
          "updateResolver(uint32,address)": "d2dfe866"
        }
      }
    }
  }
}