{
  "contracts/ConvexMarketManager.sol": {
    "ConvexMarketManager": {
      "abi": [
        {
          "inputs": [
            {
              "internalType": "contract IERC20",
              "name": "stakingToken_",
              "type": "address"
            },
            {
              "internalType": "address",
              "name": "treasury_",
              "type": "address"
            }
          ],
          "stateMutability": "nonpayable",
          "type": "constructor"
        },
        {
          "inputs": [],
          "name": "AccessControlBadConfirmation",
          "type": "error"
        },
        {
          "inputs": [
            {
              "internalType": "address",
              "name": "account",
              "type": "address"
            },
            {
              "internalType": "bytes32",
              "name": "neededRole",
              "type": "bytes32"
            }
          ],
          "name": "AccessControlUnauthorizedAccount",
          "type": "error"
        },
        {
          "inputs": [],
          "name": "EnforcedPause",
          "type": "error"
        },
        {
          "inputs": [],
          "name": "ExpectedPause",
          "type": "error"
        },
        {
          "inputs": [],
          "name": "InvalidAddress",
          "type": "error"
        },
        {
          "inputs": [],
          "name": "InvalidCloseTime",
          "type": "error"
        },
        {
          "inputs": [],
          "name": "InvalidExtraData",
          "type": "error"
        },
        {
          "inputs": [],
          "name": "InvalidFees",
          "type": "error"
        },
        {
          "inputs": [],
          "name": "InvalidMarketType",
          "type": "error"
        },
        {
          "inputs": [],
          "name": "InvalidOutcome",
          "type": "error"
        },
        {
          "inputs": [],
          "name": "InvalidResolver",
          "type": "error"
        },
        {
          "inputs": [],
          "name": "MarketAlreadyResolved",
          "type": "error"
        },
        {
          "inputs": [],
          "name": "MarketNotLive",
          "type": "error"
        },
        {
          "inputs": [],
          "name": "MarketNotReady",
          "type": "error"
        },
        {
          "inputs": [],
          "name": "MarketNotResolved",
          "type": "error"
        },
        {
          "inputs": [],
          "name": "MarketTradingClosed",
          "type": "error"
        },
        {
          "inputs": [],
          "name": "NothingToClaim",
          "type": "error"
        },
        {
          "inputs": [],
          "name": "OnlyResolver",
          "type": "error"
        },
        {
          "inputs": [],
          "name": "ReentrancyGuardReentrantCall",
          "type": "error"
        },
        {
          "inputs": [
            {
              "internalType": "address",
              "name": "token",
              "type": "address"
            }
          ],
          "name": "SafeERC20FailedOperation",
          "type": "error"
        },
        {
          "inputs": [],
          "name": "ZeroAmount",
          "type": "error"
        },
        {
          "anonymous": false,
          "inputs": [
            {
              "indexed": true,
              "internalType": "uint32",
              "name": "marketId",
              "type": "uint32"
            },
            {
              "indexed": true,
              "internalType": "enum ConvexMarketManager.MarketType",
              "name": "marketType",
              "type": "uint8"
            },
            {
              "indexed": true,
              "internalType": "address",
              "name": "resolver",
              "type": "address"
            },
            {
              "indexed": false,
              "internalType": "uint64",
              "name": "closeTime",
              "type": "uint64"
            },
            {
              "indexed": false,
              "internalType": "bytes32",
              "name": "metadataHash",
              "type": "bytes32"
            }
          ],
          "name": "MarketCreated",
          "type": "event"
        },
        {
          "anonymous": false,
          "inputs": [
            {
              "indexed": true,
              "internalType": "uint32",
              "name": "marketId",
              "type": "uint32"
            },
            {
              "indexed": false,
              "internalType": "enum ConvexMarketManager.Outcome",
              "name": "outcome",
              "type": "uint8"
            },
            {
              "indexed": false,
              "internalType": "uint128",
              "name": "payoutPool",
              "type": "uint128"
            },
            {
              "indexed": false,
              "internalType": "uint128",
              "name": "totalWinningStake",
              "type": "uint128"
            },
            {
              "indexed": false,
              "internalType": "bytes",
              "name": "resolverContext",
              "type": "bytes"
            }
          ],
          "name": "MarketResolved",
          "type": "event"
        },
        {
          "anonymous": false,
          "inputs": [
            {
              "indexed": true,
              "internalType": "uint32",
              "name": "marketId",
              "type": "uint32"
            }
          ],
          "name": "MarketVoided",
          "type": "event"
        },
        {
          "anonymous": false,
          "inputs": [
            {
              "indexed": false,
              "internalType": "address",
              "name": "account",
              "type": "address"
            }
          ],
          "name": "Paused",
          "type": "event"
        },
        {
          "anonymous": false,
          "inputs": [
            {
              "indexed": true,
              "internalType": "bytes32",
              "name": "role",
              "type": "bytes32"
            },
            {
              "indexed": true,
              "internalType": "bytes32",
              "name": "previousAdminRole",
              "type": "bytes32"
            },
            {
              "indexed": true,
              "internalType": "bytes32",
              "name": "newAdminRole",
              "type": "bytes32"
            }
          ],
          "name": "RoleAdminChanged",
          "type": "event"
        },
        {
          "anonymous": false,
          "inputs": [
            {
              "indexed": true,
              "internalType": "bytes32",
              "name": "role",
              "type": "bytes32"
            },
            {
              "indexed": true,
              "internalType": "address",
              "name": "account",
              "type": "address"
            },
            {
              "indexed": true,
              "internalType": "address",
              "name": "sender",
              "type": "address"
            }
          ],
          "name": "RoleGranted",
          "type": "event"
        },
        {
          "anonymous": false,
          "inputs": [
            {
              "indexed": true,
              "internalType": "bytes32",
              "name": "role",
              "type": "bytes32"
            },
            {
              "indexed": true,
              "internalType": "address",
              "name": "account",
              "type": "address"
            },
            {
              "indexed": true,
              "internalType": "address",
              "name": "sender",
              "type": "address"
            }
          ],
          "name": "RoleRevoked",
          "type": "event"
        },
        {
          "anonymous": false,
          "inputs": [
            {
              "indexed": true,
              "internalType": "uint32",
              "name": "marketId",
              "type": "uint32"
            },
            {
              "indexed": true,
              "internalType": "address",
              "name": "account",
              "type": "address"
            },
            {
              "indexed": false,
              "internalType": "uint256",
              "name": "payout",
              "type": "uint256"
            },
            {
              "indexed": false,
              "internalType": "bool",
              "name": "wasVoid",
              "type": "bool"
            }
          ],
          "name": "StakeClaimed",
          "type": "event"
        },
        {
          "anonymous": false,
          "inputs": [
            {
              "indexed": true,
              "internalType": "uint32",
              "name": "marketId",
              "type": "uint32"
            },
            {
              "indexed": true,
              "internalType": "address",
              "name": "account",
              "type": "address"
            },
            {
              "indexed": false,
              "internalType": "enum ConvexMarketManager.Outcome",
              "name": "outcome",
              "type": "uint8"
            },
            {
              "indexed": false,
              "internalType": "uint256",
              "name": "amount",
              "type": "uint256"
            }
          ],
          "name": "StakePlaced",
          "type": "event"
        },
        {
          "anonymous": false,
          "inputs": [
            {
              "indexed": false,
              "internalType": "address",
              "name": "account",
              "type": "address"
            }
          ],
          "name": "Unpaused",
          "type": "event"
        },
        {
          "inputs": [],
          "name": "BPS_DENOMINATOR",
          "outputs": [
            {
              "internalType": "uint16",
              "name": "",
              "type": "uint16"
            }
          ],
          "stateMutability": "view",
          "type": "function"
        },
        {
          "inputs": [],
          "name": "CREATOR_ROLE",
          "outputs": [
            {
              "internalType": "bytes32",
              "name": "",
              "type": "bytes32"
            }
          ],
          "stateMutability": "view",
          "type": "function"
        },
        {
          "inputs": [],
          "name": "DEFAULT_ADMIN_ROLE",
          "outputs": [
            {
              "internalType": "bytes32",
              "name": "",
              "type": "bytes32"
            }
          ],
          "stateMutability": "view",
          "type": "function"
        },
        {
          "inputs": [],
          "name": "GUARDIAN_ROLE",
          "outputs": [
            {
              "internalType": "bytes32",
              "name": "",
              "type": "bytes32"
            }
          ],
          "stateMutability": "view",
          "type": "function"
        },
        {
          "inputs": [],
          "name": "MAX_CREATOR_FEE_BPS",
          "outputs": [
            {
              "internalType": "uint16",
              "name": "",
              "type": "uint16"
            }
          ],
          "stateMutability": "view",
          "type": "function"
        },
        {
          "inputs": [],
          "name": "MAX_PROTOCOL_FEE_BPS",
          "outputs": [
            {
              "internalType": "uint16",
              "name": "",
              "type": "uint16"
            }
          ],
          "stateMutability": "view",
          "type": "function"
        },
        {
          "inputs": [],
          "name": "RESOLVER_ROLE",
          "outputs": [
            {
              "internalType": "bytes32",
              "name": "",
              "type": "bytes32"
            }
          ],
          "stateMutability": "view",
          "type": "function"
        },
        {
          "inputs": [
            {
              "internalType": "uint32",
              "name": "marketId",
              "type": "uint32"
            }
          ],
          "name": "claim",
          "outputs": [],
          "stateMutability": "nonpayable",
          "type": "function"
        },
        {
          "inputs": [
            {
              "components": [
                {
                  "internalType": "enum ConvexMarketManager.MarketType",
                  "name": "marketType",
                  "type": "uint8"
                },
                {
                  "internalType": "uint64",
                  "name": "closeTime",
                  "type": "uint64"
                },
                {
                  "internalType": "address",
                  "name": "resolver",
                  "type": "address"
                },
                {
                  "internalType": "uint16",
                  "name": "protocolFeeBps",
                  "type": "uint16"
                },
                {
                  "internalType": "uint16",
                  "name": "creatorFeeBps",
                  "type": "uint16"
                },
                {
                  "internalType": "bytes32",
                  "name": "metadataHash",
                  "type": "bytes32"
                },
                {
                  "internalType": "bytes",
                  "name": "extraData",
                  "type": "bytes"
                }
              ],
              "internalType": "struct ConvexMarketManager.CreateMarketParams",
              "name": "params",
              "type": "tuple"
            }
          ],
          "name": "createMarket",
          "outputs": [
            {
              "internalType": "uint32",
              "name": "",
              "type": "uint32"
            }
          ],
          "stateMutability": "nonpayable",
          "type": "function"
        },
        {
          "inputs": [
            {
              "internalType": "uint32",
              "name": "marketId",
              "type": "uint32"
            },
            {
              "internalType": "enum ConvexMarketManager.Outcome",
              "name": "outcome",
              "type": "uint8"
            },
            {
              "internalType": "bytes",
              "name": "resolverContext",
              "type": "bytes"
            }
          ],
          "name": "finalizeFromResolver",
          "outputs": [],
          "stateMutability": "nonpayable",
          "type": "function"
        },
        {
          "inputs": [
            {
              "internalType": "uint32",
              "name": "marketId",
              "type": "uint32"
            }
          ],
          "name": "getMarket",
          "outputs": [
            {
              "components": [
                {
                  "internalType": "enum ConvexMarketManager.MarketType",
                  "name": "marketType",
                  "type": "uint8"
                },
                {
                  "internalType": "enum ConvexMarketManager.MarketStatus",
                  "name": "status",
                  "type": "uint8"
                },
                {
                  "internalType": "enum ConvexMarketManager.Outcome",
                  "name": "winningOutcome",
                  "type": "uint8"
                },
                {
                  "internalType": "address",
                  "name": "creator",
                  "type": "address"
                },
                {
                  "internalType": "address",
                  "name": "resolver",
                  "type": "address"
                },
                {
                  "internalType": "uint64",
                  "name": "closeTime",
                  "type": "uint64"
                },
                {
                  "internalType": "uint64",
                  "name": "resolveTime",
                  "type": "uint64"
                },
                {
                  "internalType": "uint16",
                  "name": "protocolFeeBps",
                  "type": "uint16"
                },
                {
                  "internalType": "uint16",
                  "name": "creatorFeeBps",
                  "type": "uint16"
                },
                {
                  "internalType": "uint128",
                  "name": "yesPool",
                  "type": "uint128"
                },
                {
                  "internalType": "uint128",
                  "name": "noPool",
                  "type": "uint128"
                },
                {
                  "internalType": "uint128",
                  "name": "payoutPool",
                  "type": "uint128"
                },
                {
                  "internalType": "uint128",
                  "name": "totalWinningStake",
                  "type": "uint128"
                },
                {
                  "internalType": "bytes32",
                  "name": "metadataHash",
                  "type": "bytes32"
                }
              ],
              "internalType": "struct ConvexMarketManager.Market",
              "name": "",
              "type": "tuple"
            }
          ],
          "stateMutability": "view",
          "type": "function"
        },
        {
          "inputs": [
            {
              "internalType": "bytes32",
              "name": "role",
              "type": "bytes32"
            }
          ],
          "name": "getRoleAdmin",
          "outputs": [
            {
              "internalType": "bytes32",
              "name": "",
              "type": "bytes32"
            }
          ],
          "stateMutability": "view",
          "type": "function"
        },
        {
          "inputs": [
            {
              "internalType": "bytes32",
              "name": "role",
              "type": "bytes32"
            },
            {
              "internalType": "address",
              "name": "account",
              "type": "address"
            }
          ],
          "name": "grantRole",
          "outputs": [],
          "stateMutability": "nonpayable",
          "type": "function"
        },
        {
          "inputs": [
            {
              "internalType": "bytes32",
              "name": "role",
              "type": "bytes32"
            },
            {
              "internalType": "address",
              "name": "account",
              "type": "address"
            }
          ],
          "name": "hasRole",
          "outputs": [
            {
              "internalType": "bool",
              "name": "",
              "type": "bool"
            }
          ],
          "stateMutability": "view",
          "type": "function"
        },
        {
          "inputs": [
            {
              "internalType": "uint32",
              "name": "",
              "type": "uint32"
            }
          ],
          "name": "markets",
          "outputs": [
            {
              "internalType": "enum ConvexMarketManager.MarketType",
              "name": "marketType",
              "type": "uint8"
            },
            {
              "internalType": "enum ConvexMarketManager.MarketStatus",
              "name": "status",
              "type": "uint8"
            },
            {
              "internalType": "enum ConvexMarketManager.Outcome",
              "name": "winningOutcome",
              "type": "uint8"
            },
            {
              "internalType": "address",
              "name": "creator",
              "type": "address"
            },
            {
              "internalType": "address",
              "name": "resolver",
              "type": "address"
            },
            {
              "internalType": "uint64",
              "name": "closeTime",
              "type": "uint64"
            },
            {
              "internalType": "uint64",
              "name": "resolveTime",
              "type": "uint64"
            },
            {
              "internalType": "uint16",
              "name": "protocolFeeBps",
              "type": "uint16"
            },
            {
              "internalType": "uint16",
              "name": "creatorFeeBps",
              "type": "uint16"
            },
            {
              "internalType": "uint128",
              "name": "yesPool",
              "type": "uint128"
            },
            {
              "internalType": "uint128",
              "name": "noPool",
              "type": "uint128"
            },
            {
              "internalType": "uint128",
              "name": "payoutPool",
              "type": "uint128"
            },
            {
              "internalType": "uint128",
              "name": "totalWinningStake",
              "type": "uint128"
            },
            {
              "internalType": "bytes32",
              "name": "metadataHash",
              "type": "bytes32"
            }
          ],
          "stateMutability": "view",
          "type": "function"
        },
        {
          "inputs": [],
          "name": "nextMarketId",
          "outputs": [
            {
              "internalType": "uint32",
              "name": "",
              "type": "uint32"
            }
          ],
          "stateMutability": "view",
          "type": "function"
        },
        {
          "inputs": [],
          "name": "pause",
          "outputs": [],
          "stateMutability": "nonpayable",
          "type": "function"
        },
        {
          "inputs": [],
          "name": "paused",
          "outputs": [
            {
              "internalType": "bool",
              "name": "",
              "type": "bool"
            }
          ],
          "stateMutability": "view",
          "type": "function"
        },
        {
          "inputs": [
            {
              "internalType": "uint32",
              "name": "marketId",
              "type": "uint32"
            },
            {
              "internalType": "address",
              "name": "account",
              "type": "address"
            }
          ],
          "name": "positionOf",
          "outputs": [
            {
              "internalType": "uint128",
              "name": "yesStake",
              "type": "uint128"
            },
            {
              "internalType": "uint128",
              "name": "noStake",
              "type": "uint128"
            }
          ],
          "stateMutability": "view",
          "type": "function"
        },
        {
          "inputs": [
            {
              "internalType": "bytes32",
              "name": "role",
              "type": "bytes32"
            },
            {
              "internalType": "address",
              "name": "callerConfirmation",
              "type": "address"
            }
          ],
          "name": "renounceRole",
          "outputs": [],
          "stateMutability": "nonpayable",
          "type": "function"
        },
        {
          "inputs": [
            {
              "internalType": "uint32",
              "name": "marketId",
              "type": "uint32"
            },
            {
              "internalType": "enum ConvexMarketManager.Outcome",
              "name": "outcome",
              "type": "uint8"
            }
          ],
          "name": "resolveMarket",
          "outputs": [],
          "stateMutability": "nonpayable",
          "type": "function"
        },
        {
          "inputs": [
            {
              "internalType": "bytes32",
              "name": "role",
              "type": "bytes32"
            },
            {
              "internalType": "address",
              "name": "account",
              "type": "address"
            }
          ],
          "name": "revokeRole",
          "outputs": [],
          "stateMutability": "nonpayable",
          "type": "function"
        },
        {
          "inputs": [
            {
              "internalType": "address",
              "name": "newTreasury",
              "type": "address"
            }
          ],
          "name": "setTreasury",
          "outputs": [],
          "stateMutability": "nonpayable",
          "type": "function"
        },
        {
          "inputs": [
            {
              "internalType": "uint32",
              "name": "marketId",
              "type": "uint32"
            },
            {
              "internalType": "enum ConvexMarketManager.Outcome",
              "name": "side",
              "type": "uint8"
            },
            {
              "internalType": "uint128",
              "name": "amount",
              "type": "uint128"
            }
          ],
          "name": "stake",
          "outputs": [],
          "stateMutability": "nonpayable",
          "type": "function"
        },
        {
          "inputs": [],
          "name": "stakingToken",
          "outputs": [
            {
              "internalType": "contract IERC20",
              "name": "",
              "type": "address"
            }
          ],
          "stateMutability": "view",
          "type": "function"
        },
        {
          "inputs": [
            {
              "internalType": "bytes4",
              "name": "interfaceId",
              "type": "bytes4"
            }
          ],
          "name": "supportsInterface",
          "outputs": [
            {
              "internalType": "bool",
              "name": "",
              "type": "bool"
            }
          ],
          "stateMutability": "view",
          "type": "function"
        },
        {
          "inputs": [],
          "name": "treasury",
          "outputs": [
            {
              "internalType": "address",
              "name": "",
              "type": "address"
            }
          ],
          "stateMutability": "view",
          "type": "function"
        },
        {
          "inputs": [],
          "name": "unpause",
          "outputs": [],
          "stateMutability": "nonpayable",
          "type": "function"
        }
      ],
      "evm": {
        "bytecode": {
          "linkReferences": {},
          "object": "60a03461011357601f61220638819003918201601f19168301916001600160401b038311848410176101185780849260409485528339810103126101135780516001600160a01b0381169182820361011357602001516001600160a01b038116929083900361011357600160025515801561010b575b6100fa57608052600380546001600160a01b0319169190911790556100993361012e565b506100a3336101aa565b506100ad33610242565b506100b7336102da565b50604051611df39081610373823960805181818161075b015281816108c40152818161127101528181611686015281816116c101528181611a350152611a700152f35b63e6c4247b60e01b60005260046000fd5b508115610075565b600080fd5b634e487b7160e01b600052604160045260246000fd5b6001600160a01b03811660009081526000805160206121e6833981519152602052604090205460ff166101a4576001600160a01b031660008181526000805160206121e683398151915260205260408120805460ff191660011790553391906000805160206121668339815191528180a4600190565b50600090565b6001600160a01b0381166000908152600080516020612186833981519152602052604090205460ff166101a4576001600160a01b0316600081815260008051602061218683398151915260205260408120805460ff191660011790553391907f55435dd261a4b9b3364963f7738a7a662ad9c84396d64be3365284bb7f0a5041906000805160206121668339815191529080a4600190565b6001600160a01b03811660009081526000805160206121a6833981519152602052604090205460ff166101a4576001600160a01b031660008181526000805160206121a683398151915260205260408120805460ff191660011790553391907f828634d95e775031b9ff576b159a8509d3053581a8c9c4d7d86899e0afcd882f906000805160206121668339815191529080a4600190565b6001600160a01b03811660009081526000805160206121c6833981519152602052604090205460ff166101a4576001600160a01b031660008181526000805160206121c683398151915260205260408120805460ff191660011790553391907f92a19c77d2ea87c7f81d50c74403cb2f401780f3ad919571121efe2bdb427eb1906000805160206121668339815191529080a460019056fe608080604052600436101561001357600080fd5b60003560e01c90816301ffc9a71461139b5750806304951891146111c05780631dcb66e61461118a578063248a9ca31461115557806324ea54f41461111a5780632f2ff15d146110da57806336568abe146110945780633f4ba83a1461102b578063406ef2ef1461100457806342f9f61d14610fa05780634bea4dee14610ae35780634e25eba014610a6c5780635c837e0e146107f35780635c975abb146107d057806361d027b3146107a75780636d947e4b1461078a57806372f702f31461074557806378fab2601461070a5780638456cb59146106b15780638aeda25a1461067657806391d1485414610629578063a217fddf1461060d578063a844a134146105f0578063c2c79dec14610381578063d547741f1461033a578063e1a452181461031d578063ece91e35146102035763f0f442601461015357600080fd5b346101fe5760203660031901126101fe576004356001600160a01b038116908190036101fe573360009081527fad3228b676f7d3cd4284a5443f17f1962b36e491b30a40b2405849e597ba5fb5602052604090205460ff16156101e45780156101d3576bffffffffffffffffffffffff60a01b6003541617600355600080f35b63e6c4247b60e01b60005260046000fd5b63e2517d3f60e01b60005233600452600060245260446000fd5b600080fd5b346101fe5760203660031901126101fe5763ffffffff6102216113ee565b1660005260046020526101c0604060002080549060018101549060028101546001600160801b036003830154916001600160401b0360058360048701541695015495604051976102748960ff8316611417565b61028760208a0160ff8360081c16611424565b61029a60408a0160ff8360101c16611431565b60018060a01b039060181c16606089015260018060a01b038116608089015260a01c1660a08701526001600160401b03811660c087015261ffff8160401c1660e087015261ffff8160501c1661010087015260601c166101208501526001600160801b03811661014085015260801c6101608401526101808301526101a0820152f35b346101fe5760003660031901126101fe5760206040516127108152f35b346101fe5760403660031901126101fe5761037f600435610359611401565b9061037a61037582600052600060205260016040600020015490565b611bee565b611cb4565b005b346101fe5760203660031901126101fe5763ffffffff61039f6113ee565b60006101a06040516103b0816117fa565b8281528260208201528260408201528260608201528260808201528260a08201528260c08201528260e082015282610100820152826101208201528261014082015282610160820152826101808201520152166000526004602052604060002060405161041c816117fa565b81549161042c60ff84168361184d565b60ff8360081c1692602083019360048110156105da57845260ff8160101c16604084019060038110156105da5781526060840191600160a01b600190039060181c168252600183015460808501600160a01b600190038216815260a086019160a01c6001600160401b0316825260028501549160c087016001600160401b038416815260e08801918460401c61ffff1683526101008901938560501c61ffff1685526101208a019560601c6001600160801b031686526003890154976101408b01976001600160801b038a1689526101608c019960801c8a5260048b01546001600160801b03169a6101808d019b8c52600501549b6101a081019c8d526040519d8e8092519061053b91611417565b519060200161054991611424565b5160408d0161055791611431565b516001600160a01b0390811660608d015290511660808b0152516001600160401b0390811660a08b015290511660c08901525161ffff90811660e0890152905116610100870152516001600160801b039081166101208701529051811661014086015290518116610160850152905116610180830152516101a08201526101c090f35b634e487b7160e01b600052602160045260246000fd5b346101fe5760003660031901126101fe57602060405161012c8152f35b346101fe5760003660031901126101fe57602060405160008152f35b346101fe5760403660031901126101fe57610642611401565b600435600052600060205260406000209060018060a01b0316600052602052602060ff604060002054166040519015158152f35b346101fe5760003660031901126101fe5760206040517f828634d95e775031b9ff576b159a8509d3053581a8c9c4d7d86899e0afcd882f8152f35b346101fe5760003660031901126101fe576106ca611b7c565b6106d2611b5f565b600160ff19815416176001557f62e78cea01bee320cd4e420270b5ea74000d11b0c9f74754ebdbfc544b05a2586020604051338152a1005b346101fe5760003660031901126101fe5760206040517f92a19c77d2ea87c7f81d50c74403cb2f401780f3ad919571121efe2bdb427eb18152f35b346101fe5760003660031901126101fe576040517f00000000000000000000000000000000000000000000000000000000000000006001600160a01b03168152602090f35b346101fe5760003660031901126101fe5760206040516101f48152f35b346101fe5760003660031901126101fe576003546040516001600160a01b039091168152602090f35b346101fe5760003660031901126101fe57602060ff600154166040519015158152f35b346101fe5760603660031901126101fe5761080c6113ee565b6024359060038210156101fe576044356001600160801b038116908181036101fe57610836611b5f565b61083e611afd565b8115610a5b576000928415610a4c5763ffffffff16928381526004602052604081209060ff825460081c166004811015610a3857610a29576001600160401b03600183015460a01c16421015610a1a576108e86040516323b872dd60e01b6020820152336024820152306044820152856064820152606481526108c260848261182c565b7f0000000000000000000000000000000000000000000000000000000000000000611d36565b8481526005602090815260408083203384529091529020600186036109ba5760028392826001600160801b0361092761097b978261094c975416611451565b166001600160801b031982541617905501916001600160801b03835460601c16611451565b81546fffffffffffffffffffffffffffffffff60601b191660609190911b600160601b600160e01b0316179055565b6109886040518094611431565b60208301527f5b6c06a6da0b878c1cfcd312bac508d1494fe83c405f922e1273c903b292a48560403393a36001600255005b60036001600160801b03926109fa836109da87610a05965460801c611451565b81546001600160801b031660809190911b6001600160801b031916179055565b019282845416611451565b166001600160801b031982541617905561097b565b63de3952ff60e01b8152600490fd5b6307e457e160e31b8152600490fd5b634e487b7160e01b82526021600452602482fd5b63c74a206d60e01b8452600484fd5b631f2a200560e01b60005260046000fd5b346101fe5760603660031901126101fe57610a856113ee565b60243560038110156101fe57604435916001600160401b0383116101fe57366023840112156101fe578260040135916001600160401b0383116101fe5736602484860101116101fe57602461037f94610adc611b5f565b0191611859565b346101fe5760203660031901126101fe576004356001600160401b0381116101fe5760e060031982360301126101fe57610b1b611b5f565b3360009081527ffb6cfbf0a6e77dfd309859bf4bad2c7342bd2b734e42c01cbc85d3e6dd74f95e602052604090205460ff1615610f675760248101610b5f816117c3565b6001600160401b034291161115610f56576001600160a01b03610b84604484016117d7565b1615610f455760648201916101f461ffff610b9e856117eb565b16118015610f2b575b610f1a576003549163ffffffff8360a01c169263ffffffff8414610f045763ffffffff60a01b19166001840160a01b63ffffffff60a01b16176003556002600483013510156101fe5761ffff610bff604484016117d7565b9481610c13610c0d856117c3565b926117eb565b6001600160401b03610c27608488016117eb565b9360405199610c358b6117fa565b610c4389600401358c61184d565b600060208c0152600060408c01523360608c015260018060a01b031660808b01521660a0890152600060c08901521660e087015216610100850152600061012085015260006101408501526000610160850152600061018085015260a48201356101a0850152826000526004602052604060002084519460028610156105da5760009560ff8019845416911617825560208101516004811015610ef05761ff0083549160081b169061ff00191617825560408101516003811015610ef057600591610d116101a09285611471565b60608181015185546301000000600160b81b03191660189190911b6301000000600160b81b0316178555608082015160018601805460a0808601516001600160e01b03199283166001600160a01b03959095169490941793901b67ffffffffffffffff60a01b1692909217905560c083015160028701805460e0860151610100870151610120880151929095166001600160401b03949094169390931760409390931b69ffff0000000000000000169290921760509390931b61ffff60501b1692909217921b600160601b600160e01b031691909117905561014081015161016082015160801b6001600160801b0319166001600160801b03919091161760038501556001600160801b03610180820151166001600160801b036004860191166001600160801b03198254161790550151910155838260040135151580610edf575b610ed057610ecc5792827f7fdebfea0cacbb937c61589f5adba43a28d3830e4ad78db857be551a4b69efea6040602096610e98610e92604488016117d7565b916117c3565b82516001600160401b03909116815260a4870135898201526001600160a01b039190911695600401359450a4604051908152f35b8380fd5b63b7c0802f60e01b8552600485fd5b505083600183600401351415610e53565b634e487b7160e01b87526021600452602487fd5b634e487b7160e01b600052601160045260246000fd5b632d8768f960e01b60005260046000fd5b5061012c61ffff610f3e608484016117eb565b1611610ba7565b631b68fd9560e21b60005260046000fd5b6395295d1560e01b60005260046000fd5b63e2517d3f60e01b600052336004527f828634d95e775031b9ff576b159a8509d3053581a8c9c4d7d86899e0afcd882f60245260446000fd5b346101fe5760403660031901126101fe57610fb96113ee565b63ffffffff610fc6611401565b9116600052600560205260406000209060018060a01b0316600052602052604080600020548151906001600160801b038116825260801c6020820152f35b346101fe5760003660031901126101fe57602063ffffffff60035460a01c16604051908152f35b346101fe5760003660031901126101fe57611044611b7c565b60015460ff8116156110835760ff19166001557f5db9ee0a495bf2e6ff9c91a7834c1ba4fdd244a5e8aa4e537bd38aeae4b073aa6020604051338152a1005b638dfc202b60e01b60005260046000fd5b346101fe5760403660031901126101fe576110ad611401565b336001600160a01b038216036110c95761037f90600435611cb4565b63334bd91960e11b60005260046000fd5b346101fe5760403660031901126101fe5761037f6004356110f9611401565b9061111561037582600052600060205260016040600020015490565b611c29565b346101fe5760003660031901126101fe5760206040517f55435dd261a4b9b3364963f7738a7a662ad9c84396d64be3365284bb7f0a50418152f35b346101fe5760203660031901126101fe576020611182600435600052600060205260016040600020015490565b604051908152f35b346101fe5760403660031901126101fe576111a36113ee565b60243560038110156101fe5761037f916111bb611b5f565b61149f565b346101fe5760203660031901126101fe5763ffffffff6111de6113ee565b6111e6611afd565b1680600052600460205260406000209081549160ff8360081c16600481101590816105da578015801561138d575b61137c5760008481526005602090815260408083203384529091529020916105da576003149384156112de575090506001600160801b0361125c8254828160801c9116611451565b169081156112cd5760009055915b61129583337f0000000000000000000000000000000000000000000000000000000000000000611b1d565b60405192835260208301527fb2ec9c67b236a39ccca91f6c3f79a7e734543e274dea51c5f3201a42c125c7a260403393a36001600255005b6312d37ee560e31b60005260046000fd5b60101c60ff1660038110156105da5760011490811561136a576001600160801b03808254165b169182156112cd576001600160801b0392600492611337921561135f57841981541690555b600385015460801c9061143e565b9201541690811561134957049161126a565b634e487b7160e01b600052601260045260246000fd5b848154169055611329565b6001600160801b03815460801c611304565b63174b639360e11b60005260046000fd5b506000915060018114611214565b346101fe5760203660031901126101fe576004359063ffffffff60e01b82168092036101fe57602091637965db0b60e01b81149081156113dd575b5015158152f35b6301ffc9a760e01b149050836113d6565b6004359063ffffffff821682036101fe57565b602435906001600160a01b03821682036101fe57565b9060028210156105da5752565b9060048210156105da5752565b9060038210156105da5752565b81810292918115918404141715610f0457565b906001600160801b03809116911601906001600160801b038211610f0457565b9060038110156105da5762ff000082549160101b169062ff00001916179055565b91908203918211610f0457565b60038210156105da5781156117b25763ffffffff1690816000526004602052604060002060ff815460081c1660048110156105da576002146117a15760018101546001600160401b038160a01c164210611790576001600160a01b031633141580611757575b61174657600281016001600160801b03815460601c169160038101906001600160801b03825416936001600160801b0361153f8683611451565b855467ffffffffffffffff1916426001600160401b03161786551690811561171a576001600160801b03906000966001891460001461171357505b169384156116eb579161ffff60a096949261162b6001600160801b036115f77fe1694977c892cc3805a2cb2c7656ab754057a5350066e69e79cd8397d10e0e8e9b999754936115f26127106115e9818d6115d98b8b60401c168761143e565b90500498899860501c168461143e565b04968792611492565b611492565b855461ff00191661020017865561160e8a87611471565b168095906001600160801b0382549181199060801b169116179055565b6004830180546001600160801b03191686179055806116b1575b5080611674575b505061165b6040518095611431565b60208401526040830152608060608301526080820152a2565b6116aa91600180891b03905460181c167f0000000000000000000000000000000000000000000000000000000000000000611b1d565b388061164c565b6116e5906001808a1b03600354167f0000000000000000000000000000000000000000000000000000000000000000611b1d565b38611645565b5050805462ffff00191661030017905550600080516020611d9e8339815191529250819050a2565b905061157a565b5050805462ffff00191661030017905550600080516020611d9e833981519152925060009150819050a2565b632b910d6d60e11b60005260046000fd5b503360009081527f40da0f42a661166d5434d4603ecbff423639c47e2526ad0538d7c3517a623890602052604090205460ff1615611505565b6356c5d21d60e01b60005260046000fd5b63aa43cb2d60e01b60005260046000fd5b63c74a206d60e01b60005260046000fd5b356001600160401b03811681036101fe5790565b356001600160a01b03811681036101fe5790565b3561ffff811681036101fe5790565b6101c081019081106001600160401b0382111761181657604052565b634e487b7160e01b600052604160045260246000fd5b90601f801991011681019081106001600160401b0382111761181657604052565b60028210156105da5752565b60038210156105da5781156117b25763ffffffff169283600052600460205260406000209260ff845460081c1660048110156105da576002146117a15760018401546001600160401b038160a01c164210611790576001600160a01b031633036117465760028401906001600160801b03825460601c1691600386016001600160801b03815416936001600160801b036118f38683611451565b845467ffffffffffffffff1916426001600160401b031617855516908115611ace576001600160801b039060009660018a14600014611ac757505b16928315611a9a5792869491927fe1694977c892cc3805a2cb2c7656ab754057a5350066e69e79cd8397d10e0e8e9961ffff60a099956119c46001600160801b036119ad6119f39e9c9a54936115f26127108d6119a2826119948b8b60401c168761143e565b04998a9960501c168561143e565b905004968792611492565b855461ff00191661020017865561160e8d87611471565b6004830180546001600160801b0319168617905580611a60575b5080611a23575b505060405198898098611431565b602087015260408601526080606086015281608086015285850137828201840152601f01601f19168101030190a2565b611a59916001808c1b03905460181c167f0000000000000000000000000000000000000000000000000000000000000000611b1d565b38806119e5565b611a94906001808d1b03600354167f0000000000000000000000000000000000000000000000000000000000000000611b1d565b386119de565b5050865462ffff0019166103001790965550600080516020611d9e833981519152945090925082915050a2565b905061192e565b5050865462ffff0019166103001790965550600080516020611d9e8339815191529450600093508392505050a2565b6002805414611b0c5760028055565b633ee5aeb560e01b60005260046000fd5b60405163a9059cbb60e01b60208201526001600160a01b039092166024830152604480830193909352918152611b5d91611b5860648361182c565b611d36565b565b60ff60015416611b6b57565b63d93c066560e01b60005260046000fd5b3360009081527f8a40f0b47fdc2a0ce293b772acfc7508c8315a4d462786c1adc3a56f92ca2d05602052604090205460ff1615611bb557565b63e2517d3f60e01b600052336004527f55435dd261a4b9b3364963f7738a7a662ad9c84396d64be3365284bb7f0a504160245260446000fd5b60008181526020818152604080832033845290915290205460ff1615611c115750565b63e2517d3f60e01b6000523360045260245260446000fd5b6000818152602081815260408083206001600160a01b038616845290915290205460ff16611cad576000818152602081815260408083206001600160a01b0395909516808452949091528120805460ff19166001179055339291907f2f8788117e7eff1d82e926ec794901d17c78024a50270940304540a733656f0d9080a4600190565b5050600090565b6000818152602081815260408083206001600160a01b038616845290915290205460ff1615611cad576000818152602081815260408083206001600160a01b0395909516808452949091528120805460ff19169055339291907ff6391f5c32d9c69d2a47ea670b442974b53935d1edc7fd64eb21e047a839171b9080a4600190565b906000602091828151910182855af115611d91576000513d611d8857506001600160a01b0381163b155b611d675750565b635274afe760e01b60009081526001600160a01b0391909116600452602490fd5b60011415611d60565b6040513d6000823e3d90fdfef92a486355d4079c0d685a1ae91c99398e0e0b06b6e4a4924dfd849e11d811e8a2646970667358221220ba9b9dfe89793d19a97ccd3ccae4ae63691fe6a7fb2ad0541abcadeb9aaf5b6264736f6c634300081c00332f8788117e7eff1d82e926ec794901d17c78024a50270940304540a733656f0d8a40f0b47fdc2a0ce293b772acfc7508c8315a4d462786c1adc3a56f92ca2d05fb6cfbf0a6e77dfd309859bf4bad2c7342bd2b734e42c01cbc85d3e6dd74f95e40da0f42a661166d5434d4603ecbff423639c47e2526ad0538d7c3517a623890ad3228b676f7d3cd4284a5443f17f1962b36e491b30a40b2405849e597ba5fb5",
          "opcodes": "PUSH1 0xA0 CALLVALUE PUSH2 0x113 JUMPI PUSH1 0x1F PUSH2 0x2206 CODESIZE DUP2 SWAP1 SUB SWAP2 DUP3 ADD PUSH1 0x1F NOT AND DUP4 ADD SWAP2 PUSH1 0x1 PUSH1 0x1 PUSH1 0x40 SHL SUB DUP4 GT DUP5 DUP5 LT OR PUSH2 0x118 JUMPI DUP1 DUP5 SWAP3 PUSH1 0x40 SWAP5 DUP6 MSTORE DUP4 CODECOPY DUP2 ADD SUB SLT PUSH2 0x113 JUMPI DUP1 MLOAD PUSH1 0x1 PUSH1 0x1 PUSH1 0xA0 SHL SUB DUP2 AND SWAP2 DUP3 DUP3 SUB PUSH2 0x113 JUMPI PUSH1 0x20 ADD MLOAD PUSH1 0x1 PUSH1 0x1 PUSH1 0xA0 SHL SUB DUP2 AND SWAP3 SWAP1 DUP4 SWAP1 SUB PUSH2 0x113 JUMPI PUSH1 0x1 PUSH1 0x2 SSTORE ISZERO DUP1 ISZERO PUSH2 0x10B JUMPI JUMPDEST PUSH2 0xFA JUMPI PUSH1 0x80 MSTORE PUSH1 0x3 DUP1 SLOAD PUSH1 0x1 PUSH1 0x1 PUSH1 0xA0 SHL SUB NOT AND SWAP2 SWAP1 SWAP2 OR SWAP1 SSTORE PUSH2 0x99 CALLER PUSH2 0x12E JUMP JUMPDEST POP PUSH2 0xA3 CALLER PUSH2 0x1AA JUMP JUMPDEST POP PUSH2 0xAD CALLER PUSH2 0x242 JUMP JUMPDEST POP PUSH2 0xB7 CALLER PUSH2 0x2DA JUMP JUMPDEST POP PUSH1 0x40 MLOAD PUSH2 0x1DF3 SWAP1 DUP2 PUSH2 0x373 DUP3 CODECOPY PUSH1 0x80 MLOAD DUP2 DUP2 DUP2 PUSH2 0x75B ADD MSTORE DUP2 DUP2 PUSH2 0x8C4 ADD MSTORE DUP2 DUP2 PUSH2 0x1271 ADD MSTORE DUP2 DUP2 PUSH2 0x1686 ADD MSTORE DUP2 DUP2 PUSH2 0x16C1 ADD MSTORE DUP2 DUP2 PUSH2 0x1A35 ADD MSTORE PUSH2 0x1A70 ADD MSTORE RETURN JUMPDEST PUSH4 0xE6C4247B PUSH1 0xE0 SHL PUSH1 0x0 MSTORE PUSH1 0x4 PUSH1 0x0 REVERT JUMPDEST POP DUP2 ISZERO PUSH2 0x75 JUMP JUMPDEST PUSH1 0x0 DUP1 REVERT JUMPDEST PUSH4 0x4E487B71 PUSH1 0xE0 SHL PUSH1 0x0 MSTORE PUSH1 0x41 PUSH1 0x4 MSTORE PUSH1 0x24 PUSH1 0x0 REVERT JUMPDEST PUSH1 0x1 PUSH1 0x1 PUSH1 0xA0 SHL SUB DUP2 AND PUSH1 0x0 SWAP1 DUP2 MSTORE PUSH1 0x0 DUP1 MLOAD PUSH1 0x20 PUSH2 0x21E6 DUP4 CODECOPY DUP2 MLOAD SWAP2 MSTORE PUSH1 0x20 MSTORE PUSH1 0x40 SWAP1 KECCAK256 SLOAD PUSH1 0xFF AND PUSH2 0x1A4 JUMPI PUSH1 0x1 PUSH1 0x1 PUSH1 0xA0 SHL SUB AND PUSH1 0x0 DUP2 DUP2 MSTORE PUSH1 0x0 DUP1 MLOAD PUSH1 0x20 PUSH2 0x21E6 DUP4 CODECOPY DUP2 MLOAD SWAP2 MSTORE PUSH1 0x20 MSTORE PUSH1 0x40 DUP2 KECCAK256 DUP1 SLOAD PUSH1 0xFF NOT AND PUSH1 0x1 OR SWAP1 SSTORE CALLER SWAP2 SWAP1 PUSH1 0x0 DUP1 MLOAD PUSH1 0x20 PUSH2 0x2166 DUP4 CODECOPY DUP2 MLOAD SWAP2 MSTORE DUP2 DUP1 LOG4 PUSH1 0x1 SWAP1 JUMP JUMPDEST POP PUSH1 0x0 SWAP1 JUMP JUMPDEST PUSH1 0x1 PUSH1 0x1 PUSH1 0xA0 SHL SUB DUP2 AND PUSH1 0x0 SWAP1 DUP2 MSTORE PUSH1 0x0 DUP1 MLOAD PUSH1 0x20 PUSH2 0x2186 DUP4 CODECOPY DUP2 MLOAD SWAP2 MSTORE PUSH1 0x20 MSTORE PUSH1 0x40 SWAP1 KECCAK256 SLOAD PUSH1 0xFF AND PUSH2 0x1A4 JUMPI PUSH1 0x1 PUSH1 0x1 PUSH1 0xA0 SHL SUB AND PUSH1 0x0 DUP2 DUP2 MSTORE PUSH1 0x0 DUP1 MLOAD PUSH1 0x20 PUSH2 0x2186 DUP4 CODECOPY DUP2 MLOAD SWAP2 MSTORE PUSH1 0x20 MSTORE PUSH1 0x40 DUP2 KECCAK256 DUP1 SLOAD PUSH1 0xFF NOT AND PUSH1 0x1 OR SWAP1 SSTORE CALLER SWAP2 SWAP1 PUSH32 0x55435DD261A4B9B3364963F7738A7A662AD9C84396D64BE3365284BB7F0A5041 SWAP1 PUSH1 0x0 DUP1 MLOAD PUSH1 0x20 PUSH2 0x2166 DUP4 CODECOPY DUP2 MLOAD SWAP2 MSTORE SWAP1 DUP1 LOG4 PUSH1 0x1 SWAP1 JUMP JUMPDEST PUSH1 0x1 PUSH1 0x1 PUSH1 0xA0 SHL SUB DUP2 AND PUSH1 0x0 SWAP1 DUP2 MSTORE PUSH1 0x0 DUP1 MLOAD PUSH1 0x20 PUSH2 0x21A6 DUP4 CODECOPY DUP2 MLOAD SWAP2 MSTORE PUSH1 0x20 MSTORE PUSH1 0x40 SWAP1 KECCAK256 SLOAD PUSH1 0xFF AND PUSH2 0x1A4 JUMPI PUSH1 0x1 PUSH1 0x1 PUSH1 0xA0 SHL SUB AND PUSH1 0x0 DUP2 DUP2 MSTORE PUSH1 0x0 DUP1 MLOAD PUSH1 0x20 PUSH2 0x21A6 DUP4 CODECOPY DUP2 MLOAD SWAP2 MSTORE PUSH1 0x20 MSTORE PUSH1 0x40 DUP2 KECCAK256 DUP1 SLOAD PUSH1 0xFF NOT AND PUSH1 0x1 OR SWAP1 SSTORE CALLER SWAP2 SWAP1 PUSH32 0x828634D95E775031B9FF576B159A8509D3053581A8C9C4D7D86899E0AFCD882F SWAP1 PUSH1 0x0 DUP1 MLOAD PUSH1 0x20 PUSH2 0x2166 DUP4 CODECOPY DUP2 MLOAD SWAP2 MSTORE SWAP1 DUP1 LOG4 PUSH1 0x1 SWAP1 JUMP JUMPDEST PUSH1 0x1 PUSH1 0x1 PUSH1 0xA0 SHL SUB DUP2 AND PUSH1 0x0 SWAP1 DUP2 MSTORE PUSH1 0x0 DUP1 MLOAD PUSH1 0x20 PUSH2 0x21C6 DUP4 CODECOPY DUP2 MLOAD SWAP2 MSTORE PUSH1 0x20 MSTORE PUSH1 0x40 SWAP1 KECCAK256 SLOAD PUSH1 0xFF AND PUSH2 0x1A4 JUMPI PUSH1 0x1 PUSH1 0x1 PUSH1 0xA0 SHL SUB AND PUSH1 0x0 DUP2 DUP2 MSTORE PUSH1 0x0 DUP1 MLOAD PUSH1 0x20 PUSH2 0x21C6 DUP4 CODECOPY DUP2 MLOAD SWAP2 MSTORE PUSH1 0x20 MSTORE PUSH1 0x40 DUP2 KECCAK256 DUP1 SLOAD PUSH1 0xFF NOT AND PUSH1 0x1 OR SWAP1 SSTORE CALLER SWAP2 SWAP1 PUSH32 0x92A19C77D2EA87C7F81D50C74403CB2F401780F3AD919571121EFE2BDB427EB1 SWAP1 PUSH1 0x0 DUP1 MLOAD PUSH1 0x20 PUSH2 0x2166 DUP4 CODECOPY DUP2 MLOAD SWAP2 MSTORE SWAP1 DUP1 LOG4 PUSH1 0x1 SWAP1 JUMP INVALID PUSH1 0x80 DUP1 PUSH1 0x40 MSTORE PUSH1 0x4 CALLDATASIZE LT ISZERO PUSH2 0x13 JUMPI PUSH1 0x0 DUP1 REVERT JUMPDEST PUSH1 0x0 CALLDATALOAD PUSH1 0xE0 SHR SWAP1 DUP2 PUSH4 0x1FFC9A7 EQ PUSH2 0x139B JUMPI POP DUP1 PUSH4 0x4951891 EQ PUSH2 0x11C0 JUMPI DUP1 PUSH4 0x1DCB66E6 EQ PUSH2 0x118A JUMPI DUP1 PUSH4 0x248A9CA3 EQ PUSH2 0x1155 JUMPI DUP1 PUSH4 0x24EA54F4 EQ PUSH2 0x111A JUMPI DUP1 PUSH4 0x2F2FF15D EQ PUSH2 0x10DA JUMPI DUP1 PUSH4 0x36568ABE EQ PUSH2 0x1094 JUMPI DUP1 PUSH4 0x3F4BA83A EQ PUSH2 0x102B JUMPI DUP1 PUSH4 0x406EF2EF EQ PUSH2 0x1004 JUMPI DUP1 PUSH4 0x42F9F61D EQ PUSH2 0xFA0 JUMPI DUP1 PUSH4 0x4BEA4DEE EQ PUSH2 0xAE3 JUMPI DUP1 PUSH4 0x4E25EBA0 EQ PUSH2 0xA6C JUMPI DUP1 PUSH4 0x5C837E0E EQ PUSH2 0x7F3 JUMPI DUP1 PUSH4 0x5C975ABB EQ PUSH2 0x7D0 JUMPI DUP1 PUSH4 0x61D027B3 EQ PUSH2 0x7A7 JUMPI DUP1 PUSH4 0x6D947E4B EQ PUSH2 0x78A JUMPI DUP1 PUSH4 0x72F702F3 EQ PUSH2 0x745 JUMPI DUP1 PUSH4 0x78FAB260 EQ PUSH2 0x70A JUMPI DUP1 PUSH4 0x8456CB59 EQ PUSH2 0x6B1 JUMPI DUP1 PUSH4 0x8AEDA25A EQ PUSH2 0x676 JUMPI DUP1 PUSH4 0x91D14854 EQ PUSH2 0x629 JUMPI DUP1 PUSH4 0xA217FDDF EQ PUSH2 0x60D JUMPI DUP1 PUSH4 0xA844A134 EQ PUSH2 0x5F0 JUMPI DUP1 PUSH4 0xC2C79DEC EQ PUSH2 0x381 JUMPI DUP1 PUSH4 0xD547741F EQ PUSH2 0x33A JUMPI DUP1 PUSH4 0xE1A45218 EQ PUSH2 0x31D JUMPI DUP1 PUSH4 0xECE91E35 EQ PUSH2 0x203 JUMPI PUSH4 0xF0F44260 EQ PUSH2 0x153 JUMPI PUSH1 0x0 DUP1 REVERT JUMPDEST CALLVALUE PUSH2 0x1FE JUMPI PUSH1 0x20 CALLDATASIZE PUSH1 0x3 NOT ADD SLT PUSH2 0x1FE JUMPI PUSH1 0x4 CALLDATALOAD PUSH1 0x1 PUSH1 0x1 PUSH1 0xA0 SHL SUB DUP2 AND SWAP1 DUP2 SWAP1 SUB PUSH2 0x1FE JUMPI CALLER PUSH1 0x0 SWAP1 DUP2 MSTORE PUSH32 0xAD3228B676F7D3CD4284A5443F17F1962B36E491B30A40B2405849E597BA5FB5 PUSH1 0x20 MSTORE PUSH1 0x40 SWAP1 KECCAK256 SLOAD PUSH1 0xFF AND ISZERO PUSH2 0x1E4 JUMPI DUP1 ISZERO PUSH2 0x1D3 JUMPI PUSH12 0xFFFFFFFFFFFFFFFFFFFFFFFF PUSH1 0xA0 SHL PUSH1 0x3 SLOAD AND OR PUSH1 0x3 SSTORE PUSH1 0x0 DUP1 RETURN JUMPDEST PUSH4 0xE6C4247B PUSH1 0xE0 SHL PUSH1 0x0 MSTORE PUSH1 0x4 PUSH1 0x0 REVERT JUMPDEST PUSH4 0xE2517D3F PUSH1 0xE0 SHL PUSH1 0x0 MSTORE CALLER PUSH1 0x4 MSTORE PUSH1 0x0 PUSH1 0x24 MSTORE PUSH1 0x44 PUSH1 0x0 REVERT JUMPDEST PUSH1 0x0 DUP1 REVERT JUMPDEST CALLVALUE PUSH2 0x1FE JUMPI PUSH1 0x20 CALLDATASIZE PUSH1 0x3 NOT ADD SLT PUSH2 0x1FE JUMPI PUSH4 0xFFFFFFFF PUSH2 0x221 PUSH2 0x13EE JUMP JUMPDEST AND PUSH1 0x0 MSTORE PUSH1 0x4 PUSH1 0x20 MSTORE PUSH2 0x1C0 PUSH1 0x40 PUSH1 0x0 KECCAK256 DUP1 SLOAD SWAP1 PUSH1 0x1 DUP2 ADD SLOAD SWAP1 PUSH1 0x2 DUP2 ADD SLOAD PUSH1 0x1 PUSH1 0x1 PUSH1 0x80 SHL SUB PUSH1 0x3 DUP4 ADD SLOAD SWAP2 PUSH1 0x1 PUSH1 0x1 PUSH1 0x40 SHL SUB PUSH1 0x5 DUP4 PUSH1 0x4 DUP8 ADD SLOAD AND SWAP6 ADD SLOAD SWAP6 PUSH1 0x40 MLOAD SWAP8 PUSH2 0x274 DUP10 PUSH1 0xFF DUP4 AND PUSH2 0x1417 JUMP JUMPDEST PUSH2 0x287 PUSH1 0x20 DUP11 ADD PUSH1 0xFF DUP4 PUSH1 0x8 SHR AND PUSH2 0x1424 JUMP JUMPDEST PUSH2 0x29A PUSH1 0x40 DUP11 ADD PUSH1 0xFF DUP4 PUSH1 0x10 SHR AND PUSH2 0x1431 JUMP JUMPDEST PUSH1 0x1 DUP1 PUSH1 0xA0 SHL SUB SWAP1 PUSH1 0x18 SHR AND PUSH1 0x60 DUP10 ADD MSTORE PUSH1 0x1 DUP1 PUSH1 0xA0 SHL SUB DUP2 AND PUSH1 0x80 DUP10 ADD MSTORE PUSH1 0xA0 SHR AND PUSH1 0xA0 DUP8 ADD MSTORE PUSH1 0x1 PUSH1 0x1 PUSH1 0x40 SHL SUB DUP2 AND PUSH1 0xC0 DUP8 ADD MSTORE PUSH2 0xFFFF DUP2 PUSH1 0x40 SHR AND PUSH1 0xE0 DUP8 ADD MSTORE PUSH2 0xFFFF DUP2 PUSH1 0x50 SHR AND PUSH2 0x100 DUP8 ADD MSTORE PUSH1 0x60 SHR AND PUSH2 0x120 DUP6 ADD MSTORE PUSH1 0x1 PUSH1 0x1 PUSH1 0x80 SHL SUB DUP2 AND PUSH2 0x140 DUP6 ADD MSTORE PUSH1 0x80 SHR PUSH2 0x160 DUP5 ADD MSTORE PUSH2 0x180 DUP4 ADD MSTORE PUSH2 0x1A0 DUP3 ADD MSTORE RETURN JUMPDEST CALLVALUE PUSH2 0x1FE JUMPI PUSH1 0x0 CALLDATASIZE PUSH1 0x3 NOT ADD SLT PUSH2 0x1FE JUMPI PUSH1 0x20 PUSH1 0x40 MLOAD PUSH2 0x2710 DUP2 MSTORE RETURN JUMPDEST CALLVALUE PUSH2 0x1FE JUMPI PUSH1 0x40 CALLDATASIZE PUSH1 0x3 NOT ADD SLT PUSH2 0x1FE JUMPI PUSH2 0x37F PUSH1 0x4 CALLDATALOAD PUSH2 0x359 PUSH2 0x1401 JUMP JUMPDEST SWAP1 PUSH2 0x37A PUSH2 0x375 DUP3 PUSH1 0x0 MSTORE PUSH1 0x0 PUSH1 0x20 MSTORE PUSH1 0x1 PUSH1 0x40 PUSH1 0x0 KECCAK256 ADD SLOAD SWAP1 JUMP JUMPDEST PUSH2 0x1BEE JUMP JUMPDEST PUSH2 0x1CB4 JUMP JUMPDEST STOP JUMPDEST CALLVALUE PUSH2 0x1FE JUMPI PUSH1 0x20 CALLDATASIZE PUSH1 0x3 NOT ADD SLT PUSH2 0x1FE JUMPI PUSH4 0xFFFFFFFF PUSH2 0x39F PUSH2 0x13EE JUMP JUMPDEST PUSH1 0x0 PUSH2 0x1A0 PUSH1 0x40 MLOAD PUSH2 0x3B0 DUP2 PUSH2 0x17FA JUMP JUMPDEST DUP3 DUP2 MSTORE DUP3 PUSH1 0x20 DUP3 ADD MSTORE DUP3 PUSH1 0x40 DUP3 ADD MSTORE DUP3 PUSH1 0x60 DUP3 ADD MSTORE DUP3 PUSH1 0x80 DUP3 ADD MSTORE DUP3 PUSH1 0xA0 DUP3 ADD MSTORE DUP3 PUSH1 0xC0 DUP3 ADD MSTORE DUP3 PUSH1 0xE0 DUP3 ADD MSTORE DUP3 PUSH2 0x100 DUP3 ADD MSTORE DUP3 PUSH2 0x120 DUP3 ADD MSTORE DUP3 PUSH2 0x140 DUP3 ADD MSTORE DUP3 PUSH2 0x160 DUP3 ADD MSTORE DUP3 PUSH2 0x180 DUP3 ADD MSTORE ADD MSTORE AND PUSH1 0x0 MSTORE PUSH1 0x4 PUSH1 0x20 MSTORE PUSH1 0x40 PUSH1 0x0 KECCAK256 PUSH1 0x40 MLOAD PUSH2 0x41C DUP2 PUSH2 0x17FA JUMP JUMPDEST DUP2 SLOAD SWAP2 PUSH2 0x42C PUSH1 0xFF DUP5 AND DUP4 PUSH2 0x184D JUMP JUMPDEST PUSH1 0xFF DUP4 PUSH1 0x8 SHR AND SWAP3 PUSH1 0x20 DUP4 ADD SWAP4 PUSH1 0x4 DUP2 LT ISZERO PUSH2 0x5DA JUMPI DUP5 MSTORE PUSH1 0xFF DUP2 PUSH1 0x10 SHR AND PUSH1 0x40 DUP5 ADD SWAP1 PUSH1 0x3 DUP2 LT ISZERO PUSH2 0x5DA JUMPI DUP2 MSTORE PUSH1 0x60 DUP5 ADD SWAP2 PUSH1 0x1 PUSH1 0xA0 SHL PUSH1 0x1 SWAP1 SUB SWAP1 PUSH1 0x18 SHR AND DUP3 MSTORE PUSH1 0x1 DUP4 ADD SLOAD PUSH1 0x80 DUP6 ADD PUSH1 0x1 PUSH1 0xA0 SHL PUSH1 0x1 SWAP1 SUB DUP3 AND DUP2 MSTORE PUSH1 0xA0 DUP7 ADD SWAP2 PUSH1 0xA0 SHR PUSH1 0x1 PUSH1 0x1 PUSH1 0x40 SHL SUB AND DUP3 MSTORE PUSH1 0x2 DUP6 ADD SLOAD SWAP2 PUSH1 0xC0 DUP8 ADD PUSH1 0x1 PUSH1 0x1 PUSH1 0x40 SHL SUB DUP5 AND DUP2 MSTORE PUSH1 0xE0 DUP9 ADD SWAP2 DUP5 PUSH1 0x40 SHR PUSH2 0xFFFF AND DUP4 MSTORE PUSH2 0x100 DUP10 ADD SWAP4 DUP6 PUSH1 0x50 SHR PUSH2 0xFFFF AND DUP6 MSTORE PUSH2 0x120 DUP11 ADD SWAP6 PUSH1 0x60 SHR PUSH1 0x1 PUSH1 0x1 PUSH1 0x80 SHL SUB AND DUP7 MSTORE PUSH1 0x3 DUP10 ADD SLOAD SWAP8 PUSH2 0x140 DUP12 ADD SWAP8 PUSH1 0x1 PUSH1 0x1 PUSH1 0x80 SHL SUB DUP11 AND DUP10 MSTORE PUSH2 0x160 DUP13 ADD SWAP10 PUSH1 0x80 SHR DUP11 MSTORE PUSH1 0x4 DUP12 ADD SLOAD PUSH1 0x1 PUSH1 0x1 PUSH1 0x80 SHL SUB AND SWAP11 PUSH2 0x180 DUP14 ADD SWAP12 DUP13 MSTORE PUSH1 0x5 ADD SLOAD SWAP12 PUSH2 0x1A0 DUP2 ADD SWAP13 DUP14 MSTORE PUSH1 0x40 MLOAD SWAP14 DUP15 DUP1 SWAP3 MLOAD SWAP1 PUSH2 0x53B SWAP2 PUSH2 0x1417 JUMP JUMPDEST MLOAD SWAP1 PUSH1 0x20 ADD PUSH2 0x549 SWAP2 PUSH2 0x1424 JUMP JUMPDEST MLOAD PUSH1 0x40 DUP14 ADD PUSH2 0x557 SWAP2 PUSH2 0x1431 JUMP JUMPDEST MLOAD PUSH1 0x1 PUSH1 0x1 PUSH1 0xA0 SHL SUB SWAP1 DUP2 AND PUSH1 0x60 DUP14 ADD MSTORE SWAP1 MLOAD AND PUSH1 0x80 DUP12 ADD MSTORE MLOAD PUSH1 0x1 PUSH1 0x1 PUSH1 0x40 SHL SUB SWAP1 DUP2 AND PUSH1 0xA0 DUP12 ADD MSTORE SWAP1 MLOAD AND PUSH1 0xC0 DUP10 ADD MSTORE MLOAD PUSH2 0xFFFF SWAP1 DUP2 AND PUSH1 0xE0 DUP10 ADD MSTORE SWAP1 MLOAD AND PUSH2 0x100 DUP8 ADD MSTORE MLOAD PUSH1 0x1 PUSH1 0x1 PUSH1 0x80 SHL SUB SWAP1 DUP2 AND PUSH2 0x120 DUP8 ADD MSTORE SWAP1 MLOAD DUP2 AND PUSH2 0x140 DUP7 ADD MSTORE SWAP1 MLOAD DUP2 AND PUSH2 0x160 DUP6 ADD MSTORE SWAP1 MLOAD AND PUSH2 0x180 DUP4 ADD MSTORE MLOAD PUSH2 0x1A0 DUP3 ADD MSTORE PUSH2 0x1C0 SWAP1 RETURN JUMPDEST PUSH4 0x4E487B71 PUSH1 0xE0 SHL PUSH1 0x0 MSTORE PUSH1 0x21 PUSH1 0x4 MSTORE PUSH1 0x24 PUSH1 0x0 REVERT JUMPDEST CALLVALUE PUSH2 0x1FE JUMPI PUSH1 0x0 CALLDATASIZE PUSH1 0x3 NOT ADD SLT PUSH2 0x1FE JUMPI PUSH1 0x20 PUSH1 0x40 MLOAD PUSH2 0x12C DUP2 MSTORE RETURN JUMPDEST CALLVALUE PUSH2 0x1FE JUMPI PUSH1 0x0 CALLDATASIZE PUSH1 0x3 NOT ADD SLT PUSH2 0x1FE JUMPI PUSH1 0x20 PUSH1 0x40 MLOAD PUSH1 0x0 DUP2 MSTORE RETURN JUMPDEST CALLVALUE PUSH2 0x1FE JUMPI PUSH1 0x40 CALLDATASIZE PUSH1 0x3 NOT ADD SLT PUSH2 0x1FE JUMPI PUSH2 0x642 PUSH2 0x1401 JUMP JUMPDEST PUSH1 0x4 CALLDATALOAD PUSH1 0x0 MSTORE PUSH1 0x0 PUSH1 0x20 MSTORE PUSH1 0x40 PUSH1 0x0 KECCAK256 SWAP1 PUSH1 0x1 DUP1 PUSH1 0xA0 SHL SUB AND PUSH1 0x0 MSTORE PUSH1 0x20 MSTORE PUSH1 0x20 PUSH1 0xFF PUSH1 0x40 PUSH1 0x0 KECCAK256 SLOAD AND PUSH1 0x40 MLOAD SWAP1 ISZERO ISZERO DUP2 MSTORE RETURN JUMPDEST CALLVALUE PUSH2 0x1FE JUMPI PUSH1 0x0 CALLDATASIZE PUSH1 0x3 NOT ADD SLT PUSH2 0x1FE JUMPI PUSH1 0x20 PUSH1 0x40 MLOAD PUSH32 0x828634D95E775031B9FF576B159A8509D3053581A8C9C4D7D86899E0AFCD882F DUP2 MSTORE RETURN JUMPDEST CALLVALUE PUSH2 0x1FE JUMPI PUSH1 0x0 CALLDATASIZE PUSH1 0x3 NOT ADD SLT PUSH2 0x1FE JUMPI PUSH2 0x6CA PUSH2 0x1B7C JUMP JUMPDEST PUSH2 0x6D2 PUSH2 0x1B5F JUMP JUMPDEST PUSH1 0x1 PUSH1 0xFF NOT DUP2 SLOAD AND OR PUSH1 0x1 SSTORE PUSH32 0x62E78CEA01BEE320CD4E420270B5EA74000D11B0C9F74754EBDBFC544B05A258 PUSH1 0x20 PUSH1 0x40 MLOAD CALLER DUP2 MSTORE LOG1 STOP JUMPDEST CALLVALUE PUSH2 0x1FE JUMPI PUSH1 0x0 CALLDATASIZE PUSH1 0x3 NOT ADD SLT PUSH2 0x1FE JUMPI PUSH1 0x20 PUSH1 0x40 MLOAD PUSH32 0x92A19C77D2EA87C7F81D50C74403CB2F401780F3AD919571121EFE2BDB427EB1 DUP2 MSTORE RETURN JUMPDEST CALLVALUE PUSH2 0x1FE JUMPI PUSH1 0x0 CALLDATASIZE PUSH1 0x3 NOT ADD SLT PUSH2 0x1FE JUMPI PUSH1 0x40 MLOAD PUSH32 0x0 PUSH1 0x1 PUSH1 0x1 PUSH1 0xA0 SHL SUB AND DUP2 MSTORE PUSH1 0x20 SWAP1 RETURN JUMPDEST CALLVALUE PUSH2 0x1FE JUMPI PUSH1 0x0 CALLDATASIZE PUSH1 0x3 NOT ADD SLT PUSH2 0x1FE JUMPI PUSH1 0x20 PUSH1 0x40 MLOAD PUSH2 0x1F4 DUP2 MSTORE RETURN JUMPDEST CALLVALUE PUSH2 0x1FE JUMPI PUSH1 0x0 CALLDATASIZE PUSH1 0x3 NOT ADD SLT PUSH2 0x1FE JUMPI PUSH1 0x3 SLOAD PUSH1 0x40 MLOAD PUSH1 0x1 PUSH1 0x1 PUSH1 0xA0 SHL SUB SWAP1 SWAP2 AND DUP2 MSTORE PUSH1 0x20 SWAP1 RETURN JUMPDEST CALLVALUE PUSH2 0x1FE JUMPI PUSH1 0x0 CALLDATASIZE PUSH1 0x3 NOT ADD SLT PUSH2 0x1FE JUMPI PUSH1 0x20 PUSH1 0xFF PUSH1 0x1 SLOAD AND PUSH1 0x40 MLOAD SWAP1 ISZERO ISZERO DUP2 MSTORE RETURN JUMPDEST CALLVALUE PUSH2 0x1FE JUMPI PUSH1 0x60 CALLDATASIZE PUSH1 0x3 NOT ADD SLT PUSH2 0x1FE JUMPI PUSH2 0x80C PUSH2 0x13EE JUMP JUMPDEST PUSH1 0x24 CALLDATALOAD SWAP1 PUSH1 0x3 DUP3 LT ISZERO PUSH2 0x1FE JUMPI PUSH1 0x44 CALLDATALOAD PUSH1 0x1 PUSH1 0x1 PUSH1 0x80 SHL SUB DUP2 AND SWAP1 DUP2 DUP2 SUB PUSH2 0x1FE JUMPI PUSH2 0x836 PUSH2 0x1B5F JUMP JUMPDEST PUSH2 0x83E PUSH2 0x1AFD JUMP JUMPDEST DUP2 ISZERO PUSH2 0xA5B JUMPI PUSH1 0x0 SWAP3 DUP5 ISZERO PUSH2 0xA4C JUMPI PUSH4 0xFFFFFFFF AND SWAP3 DUP4 DUP2 MSTORE PUSH1 0x4 PUSH1 0x20 MSTORE PUSH1 0x40 DUP2 KECCAK256 SWAP1 PUSH1 0xFF DUP3 SLOAD PUSH1 0x8 SHR AND PUSH1 0x4 DUP2 LT ISZERO PUSH2 0xA38 JUMPI PUSH2 0xA29 JUMPI PUSH1 0x1 PUSH1 0x1 PUSH1 0x40 SHL SUB PUSH1 0x1 DUP4 ADD SLOAD PUSH1 0xA0 SHR AND TIMESTAMP LT ISZERO PUSH2 0xA1A JUMPI PUSH2 0x8E8 PUSH1 0x40 MLOAD PUSH4 0x23B872DD PUSH1 0xE0 SHL PUSH1 0x20 DUP3 ADD MSTORE CALLER PUSH1 0x24 DUP3 ADD MSTORE ADDRESS PUSH1 0x44 DUP3 ADD MSTORE DUP6 PUSH1 0x64 DUP3 ADD MSTORE PUSH1 0x64 DUP2 MSTORE PUSH2 0x8C2 PUSH1 0x84 DUP3 PUSH2 0x182C JUMP JUMPDEST PUSH32 0x0 PUSH2 0x1D36 JUMP JUMPDEST DUP5 DUP2 MSTORE PUSH1 0x5 PUSH1 0x20 SWAP1 DUP2 MSTORE PUSH1 0x40 DUP1 DUP4 KECCAK256 CALLER DUP5 MSTORE SWAP1 SWAP2 MSTORE SWAP1 KECCAK256 PUSH1 0x1 DUP7 SUB PUSH2 0x9BA JUMPI PUSH1 0x2 DUP4 SWAP3 DUP3 PUSH1 0x1 PUSH1 0x1 PUSH1 0x80 SHL SUB PUSH2 0x927 PUSH2 0x97B SWAP8 DUP3 PUSH2 0x94C SWAP8 SLOAD AND PUSH2 0x1451 JUMP JUMPDEST AND PUSH1 0x1 PUSH1 0x1 PUSH1 0x80 SHL SUB NOT DUP3 SLOAD AND OR SWAP1 SSTORE ADD SWAP2 PUSH1 0x1 PUSH1 0x1 PUSH1 0x80 SHL SUB DUP4 SLOAD PUSH1 0x60 SHR AND PUSH2 0x1451 JUMP JUMPDEST DUP2 SLOAD PUSH16 0xFFFFFFFFFFFFFFFFFFFFFFFFFFFFFFFF PUSH1 0x60 SHL NOT AND PUSH1 0x60 SWAP2 SWAP1 SWAP2 SHL PUSH1 0x1 PUSH1 0x60 SHL PUSH1 0x1 PUSH1 0xE0 SHL SUB AND OR SWAP1 SSTORE JUMP JUMPDEST PUSH2 0x988 PUSH1 0x40 MLOAD DUP1 SWAP5 PUSH2 0x1431 JUMP JUMPDEST PUSH1 0x20 DUP4 ADD MSTORE PUSH32 0x5B6C06A6DA0B878C1CFCD312BAC508D1494FE83C405F922E1273C903B292A485 PUSH1 0x40 CALLER SWAP4 LOG3 PUSH1 0x1 PUSH1 0x2 SSTORE STOP JUMPDEST PUSH1 0x3 PUSH1 0x1 PUSH1 0x1 PUSH1 0x80 SHL SUB SWAP3 PUSH2 0x9FA DUP4 PUSH2 0x9DA DUP8 PUSH2 0xA05 SWAP7 SLOAD PUSH1 0x80 SHR PUSH2 0x1451 JUMP JUMPDEST DUP2 SLOAD PUSH1 0x1 PUSH1 0x1 PUSH1 0x80 SHL SUB AND PUSH1 0x80 SWAP2 SWAP1 SWAP2 SHL PUSH1 0x1 PUSH1 0x1 PUSH1 0x80 SHL SUB NOT AND OR SWAP1 SSTORE JUMP JUMPDEST ADD SWAP3 DUP3 DUP5 SLOAD AND PUSH2 0x1451 JUMP JUMPDEST AND PUSH1 0x1 PUSH1 0x1 PUSH1 0x80 SHL SUB NOT DUP3 SLOAD AND OR SWAP1 SSTORE PUSH2 0x97B JUMP JUMPDEST PUSH4 0xDE3952FF PUSH1 0xE0 SHL DUP2 MSTORE PUSH1 0x4 SWAP1 REVERT JUMPDEST PUSH4 0x7E457E1 PUSH1 0xE3 SHL DUP2 MSTORE PUSH1 0x4 SWAP1 REVERT JUMPDEST PUSH4 0x4E487B71 PUSH1 0xE0 SHL DUP3 MSTORE PUSH1 0x21 PUSH1 0x4 MSTORE PUSH1 0x24 DUP3 REVERT JUMPDEST PUSH4 0xC74A206D PUSH1 0xE0 SHL DUP5 MSTORE PUSH1 0x4 DUP5 REVERT JUMPDEST PUSH4 0x1F2A2005 PUSH1 0xE0 SHL PUSH1 0x0 MSTORE PUSH1 0x4 PUSH1 0x0 REVERT JUMPDEST CALLVALUE PUSH2 0x1FE JUMPI PUSH1 0x60 CALLDATASIZE PUSH1 0x3 NOT ADD SLT PUSH2 0x1FE JUMPI PUSH2 0xA85 PUSH2 0x13EE JUMP JUMPDEST PUSH1 0x24 CALLDATALOAD PUSH1 0x3 DUP2 LT ISZERO PUSH2 0x1FE JUMPI PUSH1 0x44 CALLDATALOAD SWAP2 PUSH1 0x1 PUSH1 0x1 PUSH1 0x40 SHL SUB DUP4 GT PUSH2 0x1FE JUMPI CALLDATASIZE PUSH1 0x23 DUP5 ADD SLT ISZERO PUSH2 0x1FE JUMPI DUP3 PUSH1 0x4 ADD CALLDATALOAD SWAP2 PUSH1 0x1 PUSH1 0x1 PUSH1 0x40 SHL SUB DUP4 GT PUSH2 0x1FE JUMPI CALLDATASIZE PUSH1 0x24 DUP5 DUP7 ADD ADD GT PUSH2 0x1FE JUMPI PUSH1 0x24 PUSH2 0x37F SWAP5 PUSH2 0xADC PUSH2 0x1B5F JUMP JUMPDEST ADD SWAP2 PUSH2 0x1859 JUMP JUMPDEST CALLVALUE PUSH2 0x1FE JUMPI PUSH1 0x20 CALLDATASIZE PUSH1 0x3 NOT ADD SLT PUSH2 0x1FE JUMPI PUSH1 0x4 CALLDATALOAD PUSH1 0x1 PUSH1 0x1 PUSH1 0x40 SHL SUB DUP2 GT PUSH2 0x1FE JUMPI PUSH1 0xE0 PUSH1 0x3 NOT DUP3 CALLDATASIZE SUB ADD SLT PUSH2 0x1FE JUMPI PUSH2 0xB1B PUSH2 0x1B5F JUMP JUMPDEST CALLER PUSH1 0x0 SWAP1 DUP2 MSTORE PUSH32 0xFB6CFBF0A6E77DFD309859BF4BAD2C7342BD2B734E42C01CBC85D3E6DD74F95E PUSH1 0x20 MSTORE PUSH1 0x40 SWAP1 KECCAK256 SLOAD PUSH1 0xFF AND ISZERO PUSH2 0xF67 JUMPI PUSH1 0x24 DUP2 ADD PUSH2 0xB5F DUP2 PUSH2 0x17C3 JUMP JUMPDEST PUSH1 0x1 PUSH1 0x1 PUSH1 0x40 SHL SUB TIMESTAMP SWAP2 AND GT ISZERO PUSH2 0xF56 JUMPI PUSH1 0x1 PUSH1 0x1 PUSH1 0xA0 SHL SUB PUSH2 0xB84 PUSH1 0x44 DUP5 ADD PUSH2 0x17D7 JUMP JUMPDEST AND ISZERO PUSH2 0xF45 JUMPI PUSH1 0x64 DUP3 ADD SWAP2 PUSH2 0x1F4 PUSH2 0xFFFF PUSH2 0xB9E DUP6 PUSH2 0x17EB JUMP JUMPDEST AND GT DUP1 ISZERO PUSH2 0xF2B JUMPI JUMPDEST PUSH2 0xF1A JUMPI PUSH1 0x3 SLOAD SWAP2 PUSH4 0xFFFFFFFF DUP4 PUSH1 0xA0 SHR AND SWAP3 PUSH4 0xFFFFFFFF DUP5 EQ PUSH2 0xF04 JUMPI PUSH4 0xFFFFFFFF PUSH1 0xA0 SHL NOT AND PUSH1 0x1 DUP5 ADD PUSH1 0xA0 SHL PUSH4 0xFFFFFFFF PUSH1 0xA0 SHL AND OR PUSH1 0x3 SSTORE PUSH1 0x2 PUSH1 0x4 DUP4 ADD CALLDATALOAD LT ISZERO PUSH2 0x1FE JUMPI PUSH2 0xFFFF PUSH2 0xBFF PUSH1 0x44 DUP5 ADD PUSH2 0x17D7 JUMP JUMPDEST SWAP5 DUP2 PUSH2 0xC13 PUSH2 0xC0D DUP6 PUSH2 0x17C3 JUMP JUMPDEST SWAP3 PUSH2 0x17EB JUMP JUMPDEST PUSH1 0x1 PUSH1 0x1 PUSH1 0x40 SHL SUB PUSH2 0xC27 PUSH1 0x84 DUP9 ADD PUSH2 0x17EB JUMP JUMPDEST SWAP4 PUSH1 0x40 MLOAD SWAP10 PUSH2 0xC35 DUP12 PUSH2 0x17FA JUMP JUMPDEST PUSH2 0xC43 DUP10 PUSH1 0x4 ADD CALLDATALOAD DUP13 PUSH2 0x184D JUMP JUMPDEST PUSH1 0x0 PUSH1 0x20 DUP13 ADD MSTORE PUSH1 0x0 PUSH1 0x40 DUP13 ADD MSTORE CALLER PUSH1 0x60 DUP13 ADD MSTORE PUSH1 0x1 DUP1 PUSH1 0xA0 SHL SUB AND PUSH1 0x80 DUP12 ADD MSTORE AND PUSH1 0xA0 DUP10 ADD MSTORE PUSH1 0x0 PUSH1 0xC0 DUP10 ADD MSTORE AND PUSH1 0xE0 DUP8 ADD MSTORE AND PUSH2 0x100 DUP6 ADD MSTORE PUSH1 0x0 PUSH2 0x120 DUP6 ADD MSTORE PUSH1 0x0 PUSH2 0x140 DUP6 ADD MSTORE PUSH1 0x0 PUSH2 0x160 DUP6 ADD MSTORE PUSH1 0x0 PUSH2 0x180 DUP6 ADD MSTORE PUSH1 0xA4 DUP3 ADD CALLDATALOAD PUSH2 0x1A0 DUP6 ADD MSTORE DUP3 PUSH1 0x0 MSTORE PUSH1 0x4 PUSH1 0x20 MSTORE PUSH1 0x40 PUSH1 0x0 KECCAK256 DUP5 MLOAD SWAP5 PUSH1 0x2 DUP7 LT ISZERO PUSH2 0x5DA JUMPI PUSH1 0x0 SWAP6 PUSH1 0xFF DUP1 NOT DUP5 SLOAD AND SWAP2 AND OR DUP3 SSTORE PUSH1 0x20 DUP2 ADD MLOAD PUSH1 0x4 DUP2 LT ISZERO PUSH2 0xEF0 JUMPI PUSH2 0xFF00 DUP4 SLOAD SWAP2 PUSH1 0x8 SHL AND SWAP1 PUSH2 0xFF00 NOT AND OR DUP3 SSTORE PUSH1 0x40 DUP2 ADD MLOAD PUSH1 0x3 DUP2 LT ISZERO PUSH2 0xEF0 JUMPI PUSH1 0x5 SWAP2 PUSH2 0xD11 PUSH2 0x1A0 SWAP3 DUP6 PUSH2 0x1471 JUMP JUMPDEST PUSH1 0x60 DUP2 DUP2 ADD MLOAD DUP6 SLOAD PUSH4 0x1000000 PUSH1 0x1 PUSH1 0xB8 SHL SUB NOT AND PUSH1 0x18 SWAP2 SWAP1 SWAP2 SHL PUSH4 0x1000000 PUSH1 0x1 PUSH1 0xB8 SHL SUB AND OR DUP6 SSTORE PUSH1 0x80 DUP3 ADD MLOAD PUSH1 0x1 DUP7 ADD DUP1 SLOAD PUSH1 0xA0 DUP1 DUP7 ADD MLOAD PUSH1 0x1 PUSH1 0x1 PUSH1 0xE0 SHL SUB NOT SWAP3 DUP4 AND PUSH1 0x1 PUSH1 0x1 PUSH1 0xA0 SHL SUB SWAP6 SWAP1 SWAP6 AND SWAP5 SWAP1 SWAP5 OR SWAP4 SWAP1 SHL PUSH8 0xFFFFFFFFFFFFFFFF PUSH1 0xA0 SHL AND SWAP3 SWAP1 SWAP3 OR SWAP1 SSTORE PUSH1 0xC0 DUP4 ADD MLOAD PUSH1 0x2 DUP8 ADD DUP1 SLOAD PUSH1 0xE0 DUP7 ADD MLOAD PUSH2 0x100 DUP8 ADD MLOAD PUSH2 0x120 DUP9 ADD MLOAD SWAP3 SWAP1 SWAP6 AND PUSH1 0x1 PUSH1 0x1 PUSH1 0x40 SHL SUB SWAP5 SWAP1 SWAP5 AND SWAP4 SWAP1 SWAP4 OR PUSH1 0x40 SWAP4 SWAP1 SWAP4 SHL PUSH10 0xFFFF0000000000000000 AND SWAP3 SWAP1 SWAP3 OR PUSH1 0x50 SWAP4 SWAP1 SWAP4 SHL PUSH2 0xFFFF PUSH1 0x50 SHL AND SWAP3 SWAP1 SWAP3 OR SWAP3 SHL PUSH1 0x1 PUSH1 0x60 SHL PUSH1 0x1 PUSH1 0xE0 SHL SUB AND SWAP2 SWAP1 SWAP2 OR SWAP1 SSTORE PUSH2 0x140 DUP2 ADD MLOAD PUSH2 0x160 DUP3 ADD MLOAD PUSH1 0x80 SHL PUSH1 0x1 PUSH1 0x1 PUSH1 0x80 SHL SUB NOT AND PUSH1 0x1 PUSH1 0x1 PUSH1 0x80 SHL SUB SWAP2 SWAP1 SWAP2 AND OR PUSH1 0x3 DUP6 ADD SSTORE PUSH1 0x1 PUSH1 0x1 PUSH1 0x80 SHL SUB PUSH2 0x180 DUP3 ADD MLOAD AND PUSH1 0x1 PUSH1 0x1 PUSH1 0x80 SHL SUB PUSH1 0x4 DUP7 ADD SWAP2 AND PUSH1 0x1 PUSH1 0x1 PUSH1 0x80 SHL SUB NOT DUP3 SLOAD AND OR SWAP1 SSTORE ADD MLOAD SWAP2 ADD SSTORE DUP4 DUP3 PUSH1 0x4 ADD CALLDATALOAD ISZERO ISZERO DUP1 PUSH2 0xEDF JUMPI JUMPDEST PUSH2 0xED0 JUMPI PUSH2 0xECC JUMPI SWAP3 DUP3 PUSH32 0x7FDEBFEA0CACBB937C61589F5ADBA43A28D3830E4AD78DB857BE551A4B69EFEA PUSH1 0x40 PUSH1 0x20 SWAP7 PUSH2 0xE98 PUSH2 0xE92 PUSH1 0x44 DUP9 ADD PUSH2 0x17D7 JUMP JUMPDEST SWAP2 PUSH2 0x17C3 JUMP JUMPDEST DUP3 MLOAD PUSH1 0x1 PUSH1 0x1 PUSH1 0x40 SHL SUB SWAP1 SWAP2 AND DUP2 MSTORE PUSH1 0xA4 DUP8 ADD CALLDATALOAD DUP10 DUP3 ADD MSTORE PUSH1 0x1 PUSH1 0x1 PUSH1 0xA0 SHL SUB SWAP2 SWAP1 SWAP2 AND SWAP6 PUSH1 0x4 ADD CALLDATALOAD SWAP5 POP LOG4 PUSH1 0x40 MLOAD SWAP1 DUP2 MSTORE RETURN JUMPDEST DUP4 DUP1 REVERT JUMPDEST PUSH4 0xB7C0802F PUSH1 0xE0 SHL DUP6 MSTORE PUSH1 0x4 DUP6 REVERT JUMPDEST POP POP DUP4 PUSH1 0x1 DUP4 PUSH1 0x4 ADD CALLDATALOAD EQ ISZERO PUSH2 0xE53 JUMP JUMPDEST PUSH4 0x4E487B71 PUSH1 0xE0 SHL DUP8 MSTORE PUSH1 0x21 PUSH1 0x4 MSTORE PUSH1 0x24 DUP8 REVERT JUMPDEST PUSH4 0x4E487B71 PUSH1 0xE0 SHL PUSH1 0x0 MSTORE PUSH1 0x11 PUSH1 0x4 MSTORE PUSH1 0x24 PUSH1 0x0 REVERT JUMPDEST PUSH4 0x2D8768F9 PUSH1 0xE0 SHL PUSH1 0x0 MSTORE PUSH1 0x4 PUSH1 0x0 REVERT JUMPDEST POP PUSH2 0x12C PUSH2 0xFFFF PUSH2 0xF3E PUSH1 0x84 DUP5 ADD PUSH2 0x17EB JUMP JUMPDEST AND GT PUSH2 0xBA7 JUMP JUMPDEST PUSH4 0x1B68FD95 PUSH1 0xE2 SHL PUSH1 0x0 MSTORE PUSH1 0x4 PUSH1 0x0 REVERT JUMPDEST PUSH4 0x95295D15 PUSH1 0xE0 SHL PUSH1 0x0 MSTORE PUSH1 0x4 PUSH1 0x0 REVERT JUMPDEST PUSH4 0xE2517D3F PUSH1 0xE0 SHL PUSH1 0x0 MSTORE CALLER PUSH1 0x4 MSTORE PUSH32 0x828634D95E775031B9FF576B159A8509D3053581A8C9C4D7D86899E0AFCD882F PUSH1 0x24 MSTORE PUSH1 0x44 PUSH1 0x0 REVERT JUMPDEST CALLVALUE PUSH2 0x1FE JUMPI PUSH1 0x40 CALLDATASIZE PUSH1 0x3 NOT ADD SLT PUSH2 0x1FE JUMPI PUSH2 0xFB9 PUSH2 0x13EE JUMP JUMPDEST PUSH4 0xFFFFFFFF PUSH2 0xFC6 PUSH2 0x1401 JUMP JUMPDEST SWAP2 AND PUSH1 0x0 MSTORE PUSH1 0x5 PUSH1 0x20 MSTORE PUSH1 0x40 PUSH1 0x0 KECCAK256 SWAP1 PUSH1 0x1 DUP1 PUSH1 0xA0 SHL SUB AND PUSH1 0x0 MSTORE PUSH1 0x20 MSTORE PUSH1 0x40 DUP1 PUSH1 0x0 KECCAK256 SLOAD DUP2 MLOAD SWAP1 PUSH1 0x1 PUSH1 0x1 PUSH1 0x80 SHL SUB DUP2 AND DUP3 MSTORE PUSH1 0x80 SHR PUSH1 0x20 DUP3 ADD MSTORE RETURN JUMPDEST CALLVALUE PUSH2 0x1FE JUMPI PUSH1 0x0 CALLDATASIZE PUSH1 0x3 NOT ADD SLT PUSH2 0x1FE JUMPI PUSH1 0x20 PUSH4 0xFFFFFFFF PUSH1 0x3 SLOAD PUSH1 0xA0 SHR AND PUSH1 0x40 MLOAD SWAP1 DUP2 MSTORE RETURN JUMPDEST CALLVALUE PUSH2 0x1FE JUMPI PUSH1 0x0 CALLDATASIZE PUSH1 0x3 NOT ADD SLT PUSH2 0x1FE JUMPI PUSH2 0x1044 PUSH2 0x1B7C JUMP JUMPDEST PUSH1 0x1 SLOAD PUSH1 0xFF DUP2 AND ISZERO PUSH2 0x1083 JUMPI PUSH1 0xFF NOT AND PUSH1 0x1 SSTORE PUSH32 0x5DB9EE0A495BF2E6FF9C91A7834C1BA4FDD244A5E8AA4E537BD38AEAE4B073AA PUSH1 0x20 PUSH1 0x40 MLOAD CALLER DUP2 MSTORE LOG1 STOP JUMPDEST PUSH4 0x8DFC202B PUSH1 0xE0 SHL PUSH1 0x0 MSTORE PUSH1 0x4 PUSH1 0x0 REVERT JUMPDEST CALLVALUE PUSH2 0x1FE JUMPI PUSH1 0x40 CALLDATASIZE PUSH1 0x3 NOT ADD SLT PUSH2 0x1FE JUMPI PUSH2 0x10AD PUSH2 0x1401 JUMP JUMPDEST CALLER PUSH1 0x1 PUSH1 0x1 PUSH1 0xA0 SHL SUB DUP3 AND SUB PUSH2 0x10C9 JUMPI PUSH2 0x37F SWAP1 PUSH1 0x4 CALLDATALOAD PUSH2 0x1CB4 JUMP JUMPDEST PUSH4 0x334BD919 PUSH1 0xE1 SHL PUSH1 0x0 MSTORE PUSH1 0x4 PUSH1 0x0 REVERT JUMPDEST CALLVALUE PUSH2 0x1FE JUMPI PUSH1 0x40 CALLDATASIZE PUSH1 0x3 NOT ADD SLT PUSH2 0x1FE JUMPI PUSH2 0x37F PUSH1 0x4 CALLDATALOAD PUSH2 0x10F9 PUSH2 0x1401 JUMP JUMPDEST SWAP1 PUSH2 0x1115 PUSH2 0x375 DUP3 PUSH1 0x0 MSTORE PUSH1 0x0 PUSH1 0x20 MSTORE PUSH1 0x1 PUSH1 0x40 PUSH1 0x0 KECCAK256 ADD SLOAD SWAP1 JUMP JUMPDEST PUSH2 0x1C29 JUMP JUMPDEST CALLVALUE PUSH2 0x1FE JUMPI PUSH1 0x0 CALLDATASIZE PUSH1 0x3 NOT ADD SLT PUSH2 0x1FE JUMPI PUSH1 0x20 PUSH1 0x40 MLOAD PUSH32 0x55435DD261A4B9B3364963F7738A7A662AD9C84396D64BE3365284BB7F0A5041 DUP2 MSTORE RETURN JUMPDEST CALLVALUE PUSH2 0x1FE JUMPI PUSH1 0x20 CALLDATASIZE PUSH1 0x3 NOT ADD SLT PUSH2 0x1FE JUMPI PUSH1 0x20 PUSH2 0x1182 PUSH1 0x4 CALLDATALOAD PUSH1 0x0 MSTORE PUSH1 0x0 PUSH1 0x20 MSTORE PUSH1 0x1 PUSH1 0x40 PUSH1 0x0 KECCAK256 ADD SLOAD SWAP1 JUMP JUMPDEST PUSH1 0x40 MLOAD SWAP1 DUP2 MSTORE RETURN JUMPDEST CALLVALUE PUSH2 0x1FE JUMPI PUSH1 0x40 CALLDATASIZE PUSH1 0x3 NOT ADD SLT PUSH2 0x1FE JUMPI PUSH2 0x11A3 PUSH2 0x13EE JUMP JUMPDEST PUSH1 0x24 CALLDATALOAD PUSH1 0x3 DUP2 LT ISZERO PUSH2 0x1FE JUMPI PUSH2 0x37F SWAP2 PUSH2 0x11BB PUSH2 0x1B5F JUMP JUMPDEST PUSH2 0x149F JUMP JUMPDEST CALLVALUE PUSH2 0x1FE JUMPI PUSH1 0x20 CALLDATASIZE PUSH1 0x3 NOT ADD SLT PUSH2 0x1FE JUMPI PUSH4 0xFFFFFFFF PUSH2 0x11DE PUSH2 0x13EE JUMP JUMPDEST PUSH2 0x11E6 PUSH2 0x1AFD JUMP JUMPDEST AND DUP1 PUSH1 0x0 MSTORE PUSH1 0x4 PUSH1 0x20 MSTORE PUSH1 0x40 PUSH1 0x0 KECCAK256 SWAP1 DUP2 SLOAD SWAP2 PUSH1 0xFF DUP4 PUSH1 0x8 SHR AND PUSH1 0x4 DUP2 LT ISZERO SWAP1 DUP2 PUSH2 0x5DA JUMPI DUP1 ISZERO DUP1 ISZERO PUSH2 0x138D JUMPI JUMPDEST PUSH2 0x137C JUMPI PUSH1 0x0 DUP5 DUP2 MSTORE PUSH1 0x5 PUSH1 0x20 SWAP1 DUP2 MSTORE PUSH1 0x40 DUP1 DUP4 KECCAK256 CALLER DUP5 MSTORE SWAP1 SWAP2 MSTORE SWAP1 KECCAK256 SWAP2 PUSH2 0x5DA JUMPI PUSH1 0x3 EQ SWAP4 DUP5 ISZERO PUSH2 0x12DE JUMPI POP SWAP1 POP PUSH1 0x1 PUSH1 0x1 PUSH1 0x80 SHL SUB PUSH2 0x125C DUP3 SLOAD DUP3 DUP2 PUSH1 0x80 SHR SWAP2 AND PUSH2 0x1451 JUMP JUMPDEST AND SWAP1 DUP2 ISZERO PUSH2 0x12CD JUMPI PUSH1 0x0 SWAP1 SSTORE SWAP2 JUMPDEST PUSH2 0x1295 DUP4 CALLER PUSH32 0x0 PUSH2 0x1B1D JUMP JUMPDEST PUSH1 0x40 MLOAD SWAP3 DUP4 MSTORE PUSH1 0x20 DUP4 ADD MSTORE PUSH32 0xB2EC9C67B236A39CCCA91F6C3F79A7E734543E274DEA51C5F3201A42C125C7A2 PUSH1 0x40 CALLER SWAP4 LOG3 PUSH1 0x1 PUSH1 0x2 SSTORE STOP JUMPDEST PUSH4 0x12D37EE5 PUSH1 0xE3 SHL PUSH1 0x0 MSTORE PUSH1 0x4 PUSH1 0x0 REVERT JUMPDEST PUSH1 0x10 SHR PUSH1 0xFF AND PUSH1 0x3 DUP2 LT ISZERO PUSH2 0x5DA JUMPI PUSH1 0x1 EQ SWAP1 DUP2 ISZERO PUSH2 0x136A JUMPI PUSH1 0x1 PUSH1 0x1 PUSH1 0x80 SHL SUB DUP1 DUP3 SLOAD AND JUMPDEST AND SWAP2 DUP3 ISZERO PUSH2 0x12CD JUMPI PUSH1 0x1 PUSH1 0x1 PUSH1 0x80 SHL SUB SWAP3 PUSH1 0x4 SWAP3 PUSH2 0x1337 SWAP3 ISZERO PUSH2 0x135F JUMPI DUP5 NOT DUP2 SLOAD AND SWAP1 SSTORE JUMPDEST PUSH1 0x3 DUP6 ADD SLOAD PUSH1 0x80 SHR SWAP1 PUSH2 0x143E JUMP JUMPDEST SWAP3 ADD SLOAD AND SWAP1 DUP2 ISZERO PUSH2 0x1349 JUMPI DIV SWAP2 PUSH2 0x126A JUMP JUMPDEST PUSH4 0x4E487B71 PUSH1 0xE0 SHL PUSH1 0x0 MSTORE PUSH1 0x12 PUSH1 0x4 MSTORE PUSH1 0x24 PUSH1 0x0 REVERT JUMPDEST DUP5 DUP2 SLOAD AND SWAP1 SSTORE PUSH2 0x1329 JUMP JUMPDEST PUSH1 0x1 PUSH1 0x1 PUSH1 0x80 SHL SUB DUP2 SLOAD PUSH1 0x80 SHR PUSH2 0x1304 JUMP JUMPDEST PUSH4 0x174B6393 PUSH1 0xE1 SHL PUSH1 0x0 MSTORE PUSH1 0x4 PUSH1 0x0 REVERT JUMPDEST POP PUSH1 0x0 SWAP2 POP PUSH1 0x1 DUP2 EQ PUSH2 0x1214 JUMP JUMPDEST CALLVALUE PUSH2 0x1FE JUMPI PUSH1 0x20 CALLDATASIZE PUSH1 0x3 NOT ADD SLT PUSH2 0x1FE JUMPI PUSH1 0x4 CALLDATALOAD SWAP1 PUSH4 0xFFFFFFFF PUSH1 0xE0 SHL DUP3 AND DUP1 SWAP3 SUB PUSH2 0x1FE JUMPI PUSH1 0x20 SWAP2 PUSH4 0x7965DB0B PUSH1 0xE0 SHL DUP2 EQ SWAP1 DUP2 ISZERO PUSH2 0x13DD JUMPI JUMPDEST POP ISZERO ISZERO DUP2 MSTORE RETURN JUMPDEST PUSH4 0x1FFC9A7 PUSH1 0xE0 SHL EQ SWAP1 POP DUP4 PUSH2 0x13D6 JUMP JUMPDEST PUSH1 0x4 CALLDATALOAD SWAP1 PUSH4 0xFFFFFFFF DUP3 AND DUP3 SUB PUSH2 0x1FE JUMPI JUMP JUMPDEST PUSH1 0x24 CALLDATALOAD SWAP1 PUSH1 0x1 PUSH1 0x1 PUSH1 0xA0 SHL SUB DUP3 AND DUP3 SUB PUSH2 0x1FE JUMPI JUMP JUMPDEST SWAP1 PUSH1 0x2 DUP3 LT ISZERO PUSH2 0x5DA JUMPI MSTORE JUMP JUMPDEST SWAP1 PUSH1 0x4 DUP3 LT ISZERO PUSH2 0x5DA JUMPI MSTORE JUMP JUMPDEST SWAP1 PUSH1 0x3 DUP3 LT ISZERO PUSH2 0x5DA JUMPI MSTORE JUMP JUMPDEST DUP2 DUP2 MUL SWAP3 SWAP2 DUP2 ISZERO SWAP2 DUP5 DIV EQ OR ISZERO PUSH2 0xF04 JUMPI JUMP JUMPDEST SWAP1 PUSH1 0x1 PUSH1 0x1 PUSH1 0x80 SHL SUB DUP1 SWAP2 AND SWAP2 AND ADD SWAP1 PUSH1 0x1 PUSH1 0x1 PUSH1 0x80 SHL SUB DUP3 GT PUSH2 0xF04 JUMPI JUMP JUMPDEST SWAP1 PUSH1 0x3 DUP2 LT ISZERO PUSH2 0x5DA JUMPI PUSH3 0xFF0000 DUP3 SLOAD SWAP2 PUSH1 0x10 SHL AND SWAP1 PUSH3 0xFF0000 NOT AND OR SWAP1 SSTORE JUMP JUMPDEST SWAP2 SWAP1 DUP3 SUB SWAP2 DUP3 GT PUSH2 0xF04 JUMPI JUMP JUMPDEST PUSH1 0x3 DUP3 LT ISZERO PUSH2 0x5DA JUMPI DUP2 ISZERO PUSH2 0x17B2 JUMPI PUSH4 0xFFFFFFFF AND SWAP1 DUP2 PUSH1 0x0 MSTORE PUSH1 0x4 PUSH1 0x20 MSTORE PUSH1 0x40 PUSH1 0x0 KECCAK256 PUSH1 0xFF DUP2 SLOAD PUSH1 0x8 SHR AND PUSH1 0x4 DUP2 LT ISZERO PUSH2 0x5DA JUMPI PUSH1 0x2 EQ PUSH2 0x17A1 JUMPI PUSH1 0x1 DUP2 ADD SLOAD PUSH1 0x1 PUSH1 0x1 PUSH1 0x40 SHL SUB DUP2 PUSH1 0xA0 SHR AND TIMESTAMP LT PUSH2 0x1790 JUMPI PUSH1 0x1 PUSH1 0x1 PUSH1 0xA0 SHL SUB AND CALLER EQ ISZERO DUP1 PUSH2 0x1757 JUMPI JUMPDEST PUSH2 0x1746 JUMPI PUSH1 0x2 DUP2 ADD PUSH1 0x1 PUSH1 0x1 PUSH1 0x80 SHL SUB DUP2 SLOAD PUSH1 0x60 SHR AND SWAP2 PUSH1 0x3 DUP2 ADD SWAP1 PUSH1 0x1 PUSH1 0x1 PUSH1 0x80 SHL SUB DUP3 SLOAD AND SWAP4 PUSH1 0x1 PUSH1 0x1 PUSH1 0x80 SHL SUB PUSH2 0x153F DUP7 DUP4 PUSH2 0x1451 JUMP JUMPDEST DUP6 SLOAD PUSH8 0xFFFFFFFFFFFFFFFF NOT AND TIMESTAMP PUSH1 0x1 PUSH1 0x1 PUSH1 0x40 SHL SUB AND OR DUP7 SSTORE AND SWAP1 DUP2 ISZERO PUSH2 0x171A JUMPI PUSH1 0x1 PUSH1 0x1 PUSH1 0x80 SHL SUB SWAP1 PUSH1 0x0 SWAP7 PUSH1 0x1 DUP10 EQ PUSH1 0x0 EQ PUSH2 0x1713 JUMPI POP JUMPDEST AND SWAP4 DUP5 ISZERO PUSH2 0x16EB JUMPI SWAP2 PUSH2 0xFFFF PUSH1 0xA0 SWAP7 SWAP5 SWAP3 PUSH2 0x162B PUSH1 0x1 PUSH1 0x1 PUSH1 0x80 SHL SUB PUSH2 0x15F7 PUSH32 0xE1694977C892CC3805A2CB2C7656AB754057A5350066E69E79CD8397D10E0E8E SWAP12 SWAP10 SWAP8 SLOAD SWAP4 PUSH2 0x15F2 PUSH2 0x2710 PUSH2 0x15E9 DUP2 DUP14 PUSH2 0x15D9 DUP12 DUP12 PUSH1 0x40 SHR AND DUP8 PUSH2 0x143E JUMP JUMPDEST SWAP1 POP DIV SWAP9 DUP10 SWAP9 PUSH1 0x50 SHR AND DUP5 PUSH2 0x143E JUMP JUMPDEST DIV SWAP7 DUP8 SWAP3 PUSH2 0x1492 JUMP JUMPDEST PUSH2 0x1492 JUMP JUMPDEST DUP6 SLOAD PUSH2 0xFF00 NOT AND PUSH2 0x200 OR DUP7 SSTORE PUSH2 0x160E DUP11 DUP8 PUSH2 0x1471 JUMP JUMPDEST AND DUP1 SWAP6 SWAP1 PUSH1 0x1 PUSH1 0x1 PUSH1 0x80 SHL SUB DUP3 SLOAD SWAP2 DUP2 NOT SWAP1 PUSH1 0x80 SHL AND SWAP2 AND OR SWAP1 SSTORE JUMP JUMPDEST PUSH1 0x4 DUP4 ADD DUP1 SLOAD PUSH1 0x1 PUSH1 0x1 PUSH1 0x80 SHL SUB NOT AND DUP7 OR SWAP1 SSTORE DUP1 PUSH2 0x16B1 JUMPI JUMPDEST POP DUP1 PUSH2 0x1674 JUMPI JUMPDEST POP POP PUSH2 0x165B PUSH1 0x40 MLOAD DUP1 SWAP6 PUSH2 0x1431 JUMP JUMPDEST PUSH1 0x20 DUP5 ADD MSTORE PUSH1 0x40 DUP4 ADD MSTORE PUSH1 0x80 PUSH1 0x60 DUP4 ADD MSTORE PUSH1 0x80 DUP3 ADD MSTORE LOG2 JUMP JUMPDEST PUSH2 0x16AA SWAP2 PUSH1 0x1 DUP1 DUP10 SHL SUB SWAP1 SLOAD PUSH1 0x18 SHR AND PUSH32 0x0 PUSH2 0x1B1D JUMP JUMPDEST CODESIZE DUP1 PUSH2 0x164C JUMP JUMPDEST PUSH2 0x16E5 SWAP1 PUSH1 0x1 DUP1 DUP11 SHL SUB PUSH1 0x3 SLOAD AND PUSH32 0x0 PUSH2 0x1B1D JUMP JUMPDEST CODESIZE PUSH2 0x1645 JUMP JUMPDEST POP POP DUP1 SLOAD PUSH3 0xFFFF00 NOT AND PUSH2 0x300 OR SWAP1 SSTORE POP PUSH1 0x0 DUP1 MLOAD PUSH1 0x20 PUSH2 0x1D9E DUP4 CODECOPY DUP2 MLOAD SWAP2 MSTORE SWAP3 POP DUP2 SWAP1 POP LOG2 JUMP JUMPDEST SWAP1 POP PUSH2 0x157A JUMP JUMPDEST POP POP DUP1 SLOAD PUSH3 0xFFFF00 NOT AND PUSH2 0x300 OR SWAP1 SSTORE POP PUSH1 0x0 DUP1 MLOAD PUSH1 0x20 PUSH2 0x1D9E DUP4 CODECOPY DUP2 MLOAD SWAP2 MSTORE SWAP3 POP PUSH1 0x0 SWAP2 POP DUP2 SWAP1 POP LOG2 JUMP JUMPDEST PUSH4 0x2B910D6D PUSH1 0xE1 SHL PUSH1 0x0 MSTORE PUSH1 0x4 PUSH1 0x0 REVERT JUMPDEST POP CALLER PUSH1 0x0 SWAP1 DUP2 MSTORE PUSH32 0x40DA0F42A661166D5434D4603ECBFF423639C47E2526AD0538D7C3517A623890 PUSH1 0x20 MSTORE PUSH1 0x40 SWAP1 KECCAK256 SLOAD PUSH1 0xFF AND ISZERO PUSH2 0x1505 JUMP JUMPDEST PUSH4 0x56C5D21D PUSH1 0xE0 SHL PUSH1 0x0 MSTORE PUSH1 0x4 PUSH1 0x0 REVERT JUMPDEST PUSH4 0xAA43CB2D PUSH1 0xE0 SHL PUSH1 0x0 MSTORE PUSH1 0x4 PUSH1 0x0 REVERT JUMPDEST PUSH4 0xC74A206D PUSH1 0xE0 SHL PUSH1 0x0 MSTORE PUSH1 0x4 PUSH1 0x0 REVERT JUMPDEST CALLDATALOAD PUSH1 0x1 PUSH1 0x1 PUSH1 0x40 SHL SUB DUP2 AND DUP2 SUB PUSH2 0x1FE JUMPI SWAP1 JUMP JUMPDEST CALLDATALOAD PUSH1 0x1 PUSH1 0x1 PUSH1 0xA0 SHL SUB DUP2 AND DUP2 SUB PUSH2 0x1FE JUMPI SWAP1 JUMP JUMPDEST CALLDATALOAD PUSH2 0xFFFF DUP2 AND DUP2 SUB PUSH2 0x1FE JUMPI SWAP1 JUMP JUMPDEST PUSH2 0x1C0 DUP2 ADD SWAP1 DUP2 LT PUSH1 0x1 PUSH1 0x1 PUSH1 0x40 SHL SUB DUP3 GT OR PUSH2 0x1816 JUMPI PUSH1 0x40 MSTORE JUMP JUMPDEST PUSH4 0x4E487B71 PUSH1 0xE0 SHL PUSH1 0x0 MSTORE PUSH1 0x41 PUSH1 0x4 MSTORE PUSH1 0x24 PUSH1 0x0 REVERT JUMPDEST SWAP1 PUSH1 0x1F DUP1 NOT SWAP2 ADD AND DUP2 ADD SWAP1 DUP2 LT PUSH1 0x1 PUSH1 0x1 PUSH1 0x40 SHL SUB DUP3 GT OR PUSH2 0x1816 JUMPI PUSH1 0x40 MSTORE JUMP JUMPDEST PUSH1 0x2 DUP3 LT ISZERO PUSH2 0x5DA JUMPI MSTORE JUMP JUMPDEST PUSH1 0x3 DUP3 LT ISZERO PUSH2 0x5DA JUMPI DUP2 ISZERO PUSH2 0x17B2 JUMPI PUSH4 0xFFFFFFFF AND SWAP3 DUP4 PUSH1 0x0 MSTORE PUSH1 0x4 PUSH1 0x20 MSTORE PUSH1 0x40 PUSH1 0x0 KECCAK256 SWAP3 PUSH1 0xFF DUP5 SLOAD PUSH1 0x8 SHR AND PUSH1 0x4 DUP2 LT ISZERO PUSH2 0x5DA JUMPI PUSH1 0x2 EQ PUSH2 0x17A1 JUMPI PUSH1 0x1 DUP5 ADD SLOAD PUSH1 0x1 PUSH1 0x1 PUSH1 0x40 SHL SUB DUP2 PUSH1 0xA0 SHR AND TIMESTAMP LT PUSH2 0x1790 JUMPI PUSH1 0x1 PUSH1 0x1 PUSH1 0xA0 SHL SUB AND CALLER SUB PUSH2 0x1746 JUMPI PUSH1 0x2 DUP5 ADD SWAP1 PUSH1 0x1 PUSH1 0x1 PUSH1 0x80 SHL SUB DUP3 SLOAD PUSH1 0x60 SHR AND SWAP2 PUSH1 0x3 DUP7 ADD PUSH1 0x1 PUSH1 0x1 PUSH1 0x80 SHL SUB DUP2 SLOAD AND SWAP4 PUSH1 0x1 PUSH1 0x1 PUSH1 0x80 SHL SUB PUSH2 0x18F3 DUP7 DUP4 PUSH2 0x1451 JUMP JUMPDEST DUP5 SLOAD PUSH8 0xFFFFFFFFFFFFFFFF NOT AND TIMESTAMP PUSH1 0x1 PUSH1 0x1 PUSH1 0x40 SHL SUB AND OR DUP6 SSTORE AND SWAP1 DUP2 ISZERO PUSH2 0x1ACE JUMPI PUSH1 0x1 PUSH1 0x1 PUSH1 0x80 SHL SUB SWAP1 PUSH1 0x0 SWAP7 PUSH1 0x1 DUP11 EQ PUSH1 0x0 EQ PUSH2 0x1AC7 JUMPI POP JUMPDEST AND SWAP3 DUP4 ISZERO PUSH2 0x1A9A JUMPI SWAP3 DUP7 SWAP5 SWAP2 SWAP3 PUSH32 0xE1694977C892CC3805A2CB2C7656AB754057A5350066E69E79CD8397D10E0E8E SWAP10 PUSH2 0xFFFF PUSH1 0xA0 SWAP10 SWAP6 PUSH2 0x19C4 PUSH1 0x1 PUSH1 0x1 PUSH1 0x80 SHL SUB PUSH2 0x19AD PUSH2 0x19F3 SWAP15 SWAP13 SWAP11 SLOAD SWAP4 PUSH2 0x15F2 PUSH2 0x2710 DUP14 PUSH2 0x19A2 DUP3 PUSH2 0x1994 DUP12 DUP12 PUSH1 0x40 SHR AND DUP8 PUSH2 0x143E JUMP JUMPDEST DIV SWAP10 DUP11 SWAP10 PUSH1 0x50 SHR AND DUP6 PUSH2 0x143E JUMP JUMPDEST SWAP1 POP DIV SWAP7 DUP8 SWAP3 PUSH2 0x1492 JUMP JUMPDEST DUP6 SLOAD PUSH2 0xFF00 NOT AND PUSH2 0x200 OR DUP7 SSTORE PUSH2 0x160E DUP14 DUP8 PUSH2 0x1471 JUMP JUMPDEST PUSH1 0x4 DUP4 ADD DUP1 SLOAD PUSH1 0x1 PUSH1 0x1 PUSH1 0x80 SHL SUB NOT AND DUP7 OR SWAP1 SSTORE DUP1 PUSH2 0x1A60 JUMPI JUMPDEST POP DUP1 PUSH2 0x1A23 JUMPI JUMPDEST POP POP PUSH1 0x40 MLOAD SWAP9 DUP10 DUP1 SWAP9 PUSH2 0x1431 JUMP JUMPDEST PUSH1 0x20 DUP8 ADD MSTORE PUSH1 0x40 DUP7 ADD MSTORE PUSH1 0x80 PUSH1 0x60 DUP7 ADD MSTORE DUP2 PUSH1 0x80 DUP7 ADD MSTORE DUP6 DUP6 ADD CALLDATACOPY DUP3 DUP3 ADD DUP5 ADD MSTORE PUSH1 0x1F ADD PUSH1 0x1F NOT AND DUP2 ADD SUB ADD SWAP1 LOG2 JUMP JUMPDEST PUSH2 0x1A59 SWAP2 PUSH1 0x1 DUP1 DUP13 SHL SUB SWAP1 SLOAD PUSH1 0x18 SHR AND PUSH32 0x0 PUSH2 0x1B1D JUMP JUMPDEST CODESIZE DUP1 PUSH2 0x19E5 JUMP JUMPDEST PUSH2 0x1A94 SWAP1 PUSH1 0x1 DUP1 DUP14 SHL SUB PUSH1 0x3 SLOAD AND PUSH32 0x0 PUSH2 0x1B1D JUMP JUMPDEST CODESIZE PUSH2 0x19DE JUMP JUMPDEST POP POP DUP7 SLOAD PUSH3 0xFFFF00 NOT AND PUSH2 0x300 OR SWAP1 SWAP7 SSTORE POP PUSH1 0x0 DUP1 MLOAD PUSH1 0x20 PUSH2 0x1D9E DUP4 CODECOPY DUP2 MLOAD SWAP2 MSTORE SWAP5 POP SWAP1 SWAP3 POP DUP3 SWAP2 POP POP LOG2 JUMP JUMPDEST SWAP1 POP PUSH2 0x192E JUMP JUMPDEST POP POP DUP7 SLOAD PUSH3 0xFFFF00 NOT AND PUSH2 0x300 OR SWAP1 SWAP7 SSTORE POP PUSH1 0x0 DUP1 MLOAD PUSH1 0x20 PUSH2 0x1D9E DUP4 CODECOPY DUP2 MLOAD SWAP2 MSTORE SWAP5 POP PUSH1 0x0 SWAP4 POP DUP4 SWAP3 POP POP POP LOG2 JUMP JUMPDEST PUSH1 0x2 DUP1 SLOAD EQ PUSH2 0x1B0C JUMPI PUSH1 0x2 DUP1 SSTORE JUMP JUMPDEST PUSH4 0x3EE5AEB5 PUSH1 0xE0 SHL PUSH1 0x0 MSTORE PUSH1 0x4 PUSH1 0x0 REVERT JUMPDEST PUSH1 0x40 MLOAD PUSH4 0xA9059CBB PUSH1 0xE0 SHL PUSH1 0x20 DUP3 ADD MSTORE PUSH1 0x1 PUSH1 0x1 PUSH1 0xA0 SHL SUB SWAP1 SWAP3 AND PUSH1 0x24 DUP4 ADD MSTORE PUSH1 0x44 DUP1 DUP4 ADD SWAP4 SWAP1 SWAP4 MSTORE SWAP2 DUP2 MSTORE PUSH2 0x1B5D SWAP2 PUSH2 0x1B58 PUSH1 0x64 DUP4 PUSH2 0x182C JUMP JUMPDEST PUSH2 0x1D36 JUMP JUMPDEST JUMP JUMPDEST PUSH1 0xFF PUSH1 0x1 SLOAD AND PUSH2 0x1B6B JUMPI JUMP JUMPDEST PUSH4 0xD93C0665 PUSH1 0xE0 SHL PUSH1 0x0 MSTORE PUSH1 0x4 PUSH1 0x0 REVERT JUMPDEST CALLER PUSH1 0x0 SWAP1 DUP2 MSTORE PUSH32 0x8A40F0B47FDC2A0CE293B772ACFC7508C8315A4D462786C1ADC3A56F92CA2D05 PUSH1 0x20 MSTORE PUSH1 0x40 SWAP1 KECCAK256 SLOAD PUSH1 0xFF AND ISZERO PUSH2 0x1BB5 JUMPI JUMP JUMPDEST PUSH4 0xE2517D3F PUSH1 0xE0 SHL PUSH1 0x0 MSTORE CALLER PUSH1 0x4 MSTORE PUSH32 0x55435DD261A4B9B3364963F7738A7A662AD9C84396D64BE3365284BB7F0A5041 PUSH1 0x24 MSTORE PUSH1 0x44 PUSH1 0x0 REVERT JUMPDEST PUSH1 0x0 DUP2 DUP2 MSTORE PUSH1 0x20 DUP2 DUP2 MSTORE PUSH1 0x40 DUP1 DUP4 KECCAK256 CALLER DUP5 MSTORE SWAP1 SWAP2 MSTORE SWAP1 KECCAK256 SLOAD PUSH1 0xFF AND ISZERO PUSH2 0x1C11 JUMPI POP JUMP JUMPDEST PUSH4 0xE2517D3F PUSH1 0xE0 SHL PUSH1 0x0 MSTORE CALLER PUSH1 0x4 MSTORE PUSH1 0x24 MSTORE PUSH1 0x44 PUSH1 0x0 REVERT JUMPDEST PUSH1 0x0 DUP2 DUP2 MSTORE PUSH1 0x20 DUP2 DUP2 MSTORE PUSH1 0x40 DUP1 DUP4 KECCAK256 PUSH1 0x1 PUSH1 0x1 PUSH1 0xA0 SHL SUB DUP7 AND DUP5 MSTORE SWAP1 SWAP2 MSTORE SWAP1 KECCAK256 SLOAD PUSH1 0xFF AND PUSH2 0x1CAD JUMPI PUSH1 0x0 DUP2 DUP2 MSTORE PUSH1 0x20 DUP2 DUP2 MSTORE PUSH1 0x40 DUP1 DUP4 KECCAK256 PUSH1 0x1 PUSH1 0x1 PUSH1 0xA0 SHL SUB SWAP6 SWAP1 SWAP6 AND DUP1 DUP5 MSTORE SWAP5 SWAP1 SWAP2 MSTORE DUP2 KECCAK256 DUP1 SLOAD PUSH1 0xFF NOT AND PUSH1 0x1 OR SWAP1 SSTORE CALLER SWAP3 SWAP2 SWAP1 PUSH32 0x2F8788117E7EFF1D82E926EC794901D17C78024A50270940304540A733656F0D SWAP1 DUP1 LOG4 PUSH1 0x1 SWAP1 JUMP JUMPDEST POP POP PUSH1 0x0 SWAP1 JUMP JUMPDEST PUSH1 0x0 DUP2 DUP2 MSTORE PUSH1 0x20 DUP2 DUP2 MSTORE PUSH1 0x40 DUP1 DUP4 KECCAK256 PUSH1 0x1 PUSH1 0x1 PUSH1 0xA0 SHL SUB DUP7 AND DUP5 MSTORE SWAP1 SWAP2 MSTORE SWAP1 KECCAK256 SLOAD PUSH1 0xFF AND ISZERO PUSH2 0x1CAD JUMPI PUSH1 0x0 DUP2 DUP2 MSTORE PUSH1 0x20 DUP2 DUP2 MSTORE PUSH1 0x40 DUP1 DUP4 KECCAK256 PUSH1 0x1 PUSH1 0x1 PUSH1 0xA0 SHL SUB SWAP6 SWAP1 SWAP6 AND DUP1 DUP5 MSTORE SWAP5 SWAP1 SWAP2 MSTORE DUP2 KECCAK256 DUP1 SLOAD PUSH1 0xFF NOT AND SWAP1 SSTORE CALLER SWAP3 SWAP2 SWAP1 PUSH32 0xF6391F5C32D9C69D2A47EA670B442974B53935D1EDC7FD64EB21E047A839171B SWAP1 DUP1 LOG4 PUSH1 0x1 SWAP1 JUMP JUMPDEST SWAP1 PUSH1 0x0 PUSH1 0x20 SWAP2 DUP3 DUP2 MLOAD SWAP2 ADD DUP3 DUP6 GAS CALL ISZERO PUSH2 0x1D91 JUMPI PUSH1 0x0 MLOAD RETURNDATASIZE PUSH2 0x1D88 JUMPI POP PUSH1 0x1 PUSH1 0x1 PUSH1 0xA0 SHL SUB DUP2 AND EXTCODESIZE ISZERO JUMPDEST PUSH2 0x1D67 JUMPI POP JUMP JUMPDEST PUSH4 0x5274AFE7 PUSH1 0xE0 SHL PUSH1 0x0 SWAP1 DUP2 MSTORE PUSH1 0x1 PUSH1 0x1 PUSH1 0xA0 SHL SUB SWAP2 SWAP1 SWAP2 AND PUSH1 0x4 MSTORE PUSH1 0x24 SWAP1 REVERT JUMPDEST PUSH1 0x1 EQ ISZERO PUSH2 0x1D60 JUMP JUMPDEST PUSH1 0x40 MLOAD RETURNDATASIZE PUSH1 0x0 DUP3 RETURNDATACOPY RETURNDATASIZE SWAP1 REVERT INVALID 0xF9 0x2A BASEFEE PUSH4 0x55D4079C 0xD PUSH9 0x5A1AE91C99398E0E0B MOD 0xB6 0xE4 LOG4 SWAP3 0x4D REVERT DUP5 SWAP15 GT 0xD8 GT 0xE8 LOG2 PUSH5 0x6970667358 0x22 SLT KECCAK256 0xBA SWAP12 SWAP14 INVALID DUP10 PUSH26 0x3D19A97CCD3CCAE4AE63691FE6A7FB2AD0541ABCADEB9AAF5B62 PUSH5 0x736F6C6343 STOP ADDMOD SHR STOP CALLER 0x2F DUP8 DUP9 GT PUSH31 0x7EFF1D82E926EC794901D17C78024A50270940304540A733656F0D8A40F0B4 PUSH32 0xDC2A0CE293B772ACFC7508C8315A4D462786C1ADC3A56F92CA2D05FB6CFBF0A6 0xE7 PUSH30 0xFD309859BF4BAD2C7342BD2B734E42C01CBC85D3E6DD74F95E40DA0F42A6 PUSH2 0x166D SLOAD CALLVALUE 0xD4 PUSH1 0x3E 0xCB SELFDESTRUCT TIMESTAMP CALLDATASIZE CODECOPY 0xC4 PUSH31 0x2526AD0538D7C3517A623890AD3228B676F7D3CD4284A5443F17F1962B36E4 SWAP2 0xB3 EXP BLOCKHASH 0xB2 BLOCKHASH PC BLOBHASH 0xE5 SWAP8 0xBA PUSH0 0xB5 "
        },
        "methodIdentifiers": {
          "BPS_DENOMINATOR()": "e1a45218",
          "CREATOR_ROLE()": "8aeda25a",
          "DEFAULT_ADMIN_ROLE()": "a217fddf",
          "GUARDIAN_ROLE()": "24ea54f4",
          "MAX_CREATOR_FEE_BPS()": "a844a134",
          "MAX_PROTOCOL_FEE_BPS()": "6d947e4b",
          "RESOLVER_ROLE()": "78fab260",
          "claim(uint32)": "04951891",
          "createMarket((uint8,uint64,address,uint16,uint16,bytes32,bytes))": "4bea4dee",
          "finalizeFromResolver(uint32,uint8,bytes)": "4e25eba0",
          "getMarket(uint32)": "c2c79dec",
          "getRoleAdmin(bytes32)": "248a9ca3",
          "grantRole(bytes32,address)": "2f2ff15d",
          "hasRole(bytes32,address)": "91d14854",
          "markets(uint32)": "ece91e35",
          "nextMarketId()": "406ef2ef",
          "pause()": "8456cb59",
          "paused()": "5c975abb",
          "positionOf(uint32,address)": "42f9f61d",
          "renounceRole(bytes32,address)": "36568abe",
          "resolveMarket(uint32,uint8)": "1dcb66e6",
          "revokeRole(bytes32,address)": "d547741f",
          "setTreasury(address)": "f0f44260",
          "stake(uint32,uint8,uint128)": "5c837e0e",
          "stakingToken()": "72f702f3",
          "supportsInterface(bytes4)": "01ffc9a7",
          "treasury()": "61d027b3",
          "unpause()": "3f4ba83a"
        }
      }
    }
  }
}