{
  "_format": "hh-sol-artifact-1",
  "contractName": "ConvexMarketManager",
  "sourceName": "contracts/ConvexMarketManager.sol",
  "abi": [
    {
      "inputs": [
        {
          "internalType": "contract IERC20",
          "name": "stakingToken_",
          "type": "address"
        },
        {
          "internalType": "address",
          "name": "treasury_",
          "type": "address"
        }
      ],
      "stateMutability": "nonpayable",
      "type": "constructor"
    },
    {
      "inputs": [],
      "name": "AccessControlBadConfirmation",
      "type": "error"
    },
    {
      "inputs": [
        {
          "internalType": "address",
          "name": "account",
          "type": "address"
        },
        {
          "internalType": "bytes32",
          "name": "neededRole",
          "type": "bytes32"
        }
      ],
      "name": "AccessControlUnauthorizedAccount",
      "type": "error"
    },
    {
      "inputs": [],
      "name": "EnforcedPause",
      "type": "error"
    },
    {
      "inputs": [],
      "name": "ExpectedPause",
      "type": "error"
    },
    {
      "inputs": [],
      "name": "InvalidAddress",
      "type": "error"
    },
    {
      "inputs": [],
      "name": "InvalidCloseTime",
      "type": "error"
    },
    {
      "inputs": [],
      "name": "InvalidExtraData",
      "type": "error"
    },
    {
      "inputs": [],
      "name": "InvalidFees",
      "type": "error"
    },
    {
      "inputs": [],
      "name": "InvalidMarketType",
      "type": "error"
    },
    {
      "inputs": [],
      "name": "InvalidOutcome",
      "type": "error"
    },
    {
      "inputs": [],
      "name": "InvalidResolver",
      "type": "error"
    },
    {
      "inputs": [],
      "name": "MarketAlreadyResolved",
      "type": "error"
    },
    {
      "inputs": [],
      "name": "MarketNotLive",
      "type": "error"
    },
    {
      "inputs": [],
      "name": "MarketNotReady",
      "type": "error"
    },
    {
      "inputs": [],
      "name": "MarketNotResolved",
      "type": "error"
    },
    {
      "inputs": [],
      "name": "MarketTradingClosed",
      "type": "error"
    },
    {
      "inputs": [],
      "name": "NothingToClaim",
      "type": "error"
    },
    {
      "inputs": [],
      "name": "OnlyResolver",
      "type": "error"
    },
    {
      "inputs": [],
      "name": "ReentrancyGuardReentrantCall",
      "type": "error"
    },
    {
      "inputs": [
        {
          "internalType": "address",
          "name": "token",
          "type": "address"
        }
      ],
      "name": "SafeERC20FailedOperation",
      "type": "error"
    },
    {
      "inputs": [],
      "name": "ZeroAmount",
      "type": "error"
    },
    {
      "anonymous": false,
      "inputs": [
        {
          "indexed": true,
          "internalType": "uint32",
          "name": "marketId",
          "type": "uint32"
        },
        {
          "indexed": true,
          "internalType": "enum ConvexMarketManager.MarketType",
          "name": "marketType",
          "type": "uint8"
        },
        {
          "indexed": true,
          "internalType": "address",
          "name": "resolver",
          "type": "address"
        },
        {
          "indexed": false,
          "internalType": "uint64",
          "name": "closeTime",
          "type": "uint64"
        },
        {
          "indexed": false,
          "internalType": "bytes32",
          "name": "metadataHash",
          "type": "bytes32"
        }
      ],
      "name": "MarketCreated",
      "type": "event"
    },
    {
      "anonymous": false,
      "inputs": [
        {
          "indexed": true,
          "internalType": "uint32",
          "name": "marketId",
          "type": "uint32"
        },
        {
          "indexed": false,
          "internalType": "enum ConvexMarketManager.Outcome",
          "name": "outcome",
          "type": "uint8"
        },
        {
          "indexed": false,
          "internalType": "uint128",
          "name": "payoutPool",
          "type": "uint128"
        },
        {
          "indexed": false,
          "internalType": "uint128",
          "name": "totalWinningStake",
          "type": "uint128"
        },
        {
          "indexed": false,
          "internalType": "bytes",
          "name": "resolverContext",
          "type": "bytes"
        }
      ],
      "name": "MarketResolved",
      "type": "event"
    },
    {
      "anonymous": false,
      "inputs": [
        {
          "indexed": true,
          "internalType": "uint32",
          "name": "marketId",
          "type": "uint32"
        }
      ],
      "name": "MarketVoided",
      "type": "event"
    },
    {
      "anonymous": false,
      "inputs": [
        {
          "indexed": false,
          "internalType": "address",
          "name": "account",
          "type": "address"
        }
      ],
      "name": "Paused",
      "type": "event"
    },
    {
      "anonymous": false,
      "inputs": [
        {
          "indexed": true,
          "internalType": "bytes32",
          "name": "role",
          "type": "bytes32"
        },
        {
          "indexed": true,
          "internalType": "bytes32",
          "name": "previousAdminRole",
          "type": "bytes32"
        },
        {
          "indexed": true,
          "internalType": "bytes32",
          "name": "newAdminRole",
          "type": "bytes32"
        }
      ],
      "name": "RoleAdminChanged",
      "type": "event"
    },
    {
      "anonymous": false,
      "inputs": [
        {
          "indexed": true,
          "internalType": "bytes32",
          "name": "role",
          "type": "bytes32"
        },
        {
          "indexed": true,
          "internalType": "address",
          "name": "account",
          "type": "address"
        },
        {
          "indexed": true,
          "internalType": "address",
          "name": "sender",
          "type": "address"
        }
      ],
      "name": "RoleGranted",
      "type": "event"
    },
    {
      "anonymous": false,
      "inputs": [
        {
          "indexed": true,
          "internalType": "bytes32",
          "name": "role",
          "type": "bytes32"
        },
        {
          "indexed": true,
          "internalType": "address",
          "name": "account",
          "type": "address"
        },
        {
          "indexed": true,
          "internalType": "address",
          "name": "sender",
          "type": "address"
        }
      ],
      "name": "RoleRevoked",
      "type": "event"
    },
    {
      "anonymous": false,
      "inputs": [
        {
          "indexed": true,
          "internalType": "uint32",
          "name": "marketId",
          "type": "uint32"
        },
        {
          "indexed": true,
          "internalType": "address",
          "name": "account",
          "type": "address"
        },
        {
          "indexed": false,
          "internalType": "uint256",
          "name": "payout",
          "type": "uint256"
        },
        {
          "indexed": false,
          "internalType": "bool",
          "name": "wasVoid",
          "type": "bool"
        }
      ],
      "name": "StakeClaimed",
      "type": "event"
    },
    {
      "anonymous": false,
      "inputs": [
        {
          "indexed": true,
          "internalType": "uint32",
          "name": "marketId",
          "type": "uint32"
        },
        {
          "indexed": true,
          "internalType": "address",
          "name": "account",
          "type": "address"
        },
        {
          "indexed": false,
          "internalType": "enum ConvexMarketManager.Outcome",
          "name": "outcome",
          "type": "uint8"
        },
        {
          "indexed": false,
          "internalType": "uint256",
          "name": "amount",
          "type": "uint256"
        }
      ],
      "name": "StakePlaced",
      "type": "event"
    },
    {
      "anonymous": false,
      "inputs": [
        {
          "indexed": false,
          "internalType": "address",
          "name": "account",
          "type": "address"
        }
      ],
      "name": "Unpaused",
      "type": "event"
    },
    {
      "inputs": [],
      "name": "BPS_DENOMINATOR",
      "outputs": [
        {
          "internalType": "uint16",
          "name": "",
          "type": "uint16"
        }
      ],
      "stateMutability": "view",
      "type": "function"
    },
    {
      "inputs": [],
      "name": "CREATOR_ROLE",
      "outputs": [
        {
          "internalType": "bytes32",
          "name": "",
          "type": "bytes32"
        }
      ],
      "stateMutability": "view",
      "type": "function"
    },
    {
      "inputs": [],
      "name": "DEFAULT_ADMIN_ROLE",
      "outputs": [
        {
          "internalType": "bytes32",
          "name": "",
          "type": "bytes32"
        }
      ],
      "stateMutability": "view",
      "type": "function"
    },
    {
      "inputs": [],
      "name": "GUARDIAN_ROLE",
      "outputs": [
        {
          "internalType": "bytes32",
          "name": "",
          "type": "bytes32"
        }
      ],
      "stateMutability": "view",
      "type": "function"
    },
    {
      "inputs": [],
      "name": "MAX_CREATOR_FEE_BPS",
      "outputs": [
        {
          "internalType": "uint16",
          "name": "",
          "type": "uint16"
        }
      ],
      "stateMutability": "view",
      "type": "function"
    },
    {
      "inputs": [],
      "name": "MAX_PROTOCOL_FEE_BPS",
      "outputs": [
        {
          "internalType": "uint16",
          "name": "",
          "type": "uint16"
        }
      ],
      "stateMutability": "view",
      "type": "function"
    },
    {
      "inputs": [],
      "name": "RESOLVER_ROLE",
      "outputs": [
        {
          "internalType": "bytes32",
          "name": "",
          "type": "bytes32"
        }
      ],
      "stateMutability": "view",
      "type": "function"
    },
    {
      "inputs": [
        {
          "internalType": "uint32",
          "name": "marketId",
          "type": "uint32"
        }
      ],
      "name": "claim",
      "outputs": [],
      "stateMutability": "nonpayable",
      "type": "function"
    },
    {
      "inputs": [
        {
          "components": [
            {
              "internalType": "enum ConvexMarketManager.MarketType",
              "name": "marketType",
              "type": "uint8"
            },
            {
              "internalType": "uint64",
              "name": "closeTime",
              "type": "uint64"
            },
            {
              "internalType": "address",
              "name": "resolver",
              "type": "address"
            },
            {
              "internalType": "uint16",
              "name": "protocolFeeBps",
              "type": "uint16"
            },
            {
              "internalType": "uint16",
              "name": "creatorFeeBps",
              "type": "uint16"
            },
            {
              "internalType": "bytes32",
              "name": "metadataHash",
              "type": "bytes32"
            },
            {
              "internalType": "bytes",
              "name": "extraData",
              "type": "bytes"
            }
          ],
          "internalType": "struct ConvexMarketManager.CreateMarketParams",
          "name": "params",
          "type": "tuple"
        }
      ],
      "name": "createMarket",
      "outputs": [
        {
          "internalType": "uint32",
          "name": "",
          "type": "uint32"
        }
      ],
      "stateMutability": "nonpayable",
      "type": "function"
    },
    {
      "inputs": [
        {
          "internalType": "uint32",
          "name": "marketId",
          "type": "uint32"
        },
        {
          "internalType": "enum ConvexMarketManager.Outcome",
          "name": "outcome",
          "type": "uint8"
        },
        {
          "internalType": "bytes",
          "name": "resolverContext",
          "type": "bytes"
        }
      ],
      "name": "finalizeFromResolver",
      "outputs": [],
      "stateMutability": "nonpayable",
      "type": "function"
    },
    {
      "inputs": [
        {
          "internalType": "uint32",
          "name": "marketId",
          "type": "uint32"
        }
      ],
      "name": "getMarket",
      "outputs": [
        {
          "components": [
            {
              "internalType": "enum ConvexMarketManager.MarketType",
              "name": "marketType",
              "type": "uint8"
            },
            {
              "internalType": "enum ConvexMarketManager.MarketStatus",
              "name": "status",
              "type": "uint8"
            },
            {
              "internalType": "enum ConvexMarketManager.Outcome",
              "name": "winningOutcome",
              "type": "uint8"
            },
            {
              "internalType": "address",
              "name": "creator",
              "type": "address"
            },
            {
              "internalType": "address",
              "name": "resolver",
              "type": "address"
            },
            {
              "internalType": "uint64",
              "name": "closeTime",
              "type": "uint64"
            },
            {
              "internalType": "uint64",
              "name": "resolveTime",
              "type": "uint64"
            },
            {
              "internalType": "uint16",
              "name": "protocolFeeBps",
              "type": "uint16"
            },
            {
              "internalType": "uint16",
              "name": "creatorFeeBps",
              "type": "uint16"
            },
            {
              "internalType": "uint128",
              "name": "yesPool",
              "type": "uint128"
            },
            {
              "internalType": "uint128",
              "name": "noPool",
              "type": "uint128"
            },
            {
              "internalType": "uint128",
              "name": "payoutPool",
              "type": "uint128"
            },
            {
              "internalType": "uint128",
              "name": "totalWinningStake",
              "type": "uint128"
            },
            {
              "internalType": "bytes32",
              "name": "metadataHash",
              "type": "bytes32"
            }
          ],
          "internalType": "struct ConvexMarketManager.Market",
          "name": "",
          "type": "tuple"
        }
      ],
      "stateMutability": "view",
      "type": "function"
    },
    {
      "inputs": [
        {
          "internalType": "bytes32",
          "name": "role",
          "type": "bytes32"
        }
      ],
      "name": "getRoleAdmin",
      "outputs": [
        {
          "internalType": "bytes32",
          "name": "",
          "type": "bytes32"
        }
      ],
      "stateMutability": "view",
      "type": "function"
    },
    {
      "inputs": [
        {
          "internalType": "bytes32",
          "name": "role",
          "type": "bytes32"
        },
        {
          "internalType": "address",
          "name": "account",
          "type": "address"
        }
      ],
      "name": "grantRole",
      "outputs": [],
      "stateMutability": "nonpayable",
      "type": "function"
    },
    {
      "inputs": [
        {
          "internalType": "bytes32",
          "name": "role",
          "type": "bytes32"
        },
        {
          "internalType": "address",
          "name": "account",
          "type": "address"
        }
      ],
      "name": "hasRole",
      "outputs": [
        {
          "internalType": "bool",
          "name": "",
          "type": "bool"
        }
      ],
      "stateMutability": "view",
      "type": "function"
    },
    {
      "inputs": [
        {
          "internalType": "uint32",
          "name": "",
          "type": "uint32"
        }
      ],
      "name": "markets",
      "outputs": [
        {
          "internalType": "enum ConvexMarketManager.MarketType",
          "name": "marketType",
          "type": "uint8"
        },
        {
          "internalType": "enum ConvexMarketManager.MarketStatus",
          "name": "status",
          "type": "uint8"
        },
        {
          "internalType": "enum ConvexMarketManager.Outcome",
          "name": "winningOutcome",
          "type": "uint8"
        },
        {
          "internalType": "address",
          "name": "creator",
          "type": "address"
        },
        {
          "internalType": "address",
          "name": "resolver",
          "type": "address"
        },
        {
          "internalType": "uint64",
          "name": "closeTime",
          "type": "uint64"
        },
        {
          "internalType": "uint64",
          "name": "resolveTime",
          "type": "uint64"
        },
        {
          "internalType": "uint16",
          "name": "protocolFeeBps",
          "type": "uint16"
        },
        {
          "internalType": "uint16",
          "name": "creatorFeeBps",
          "type": "uint16"
        },
        {
          "internalType": "uint128",
          "name": "yesPool",
          "type": "uint128"
        },
        {
          "internalType": "uint128",
          "name": "noPool",
          "type": "uint128"
        },
        {
          "internalType": "uint128",
          "name": "payoutPool",
          "type": "uint128"
        },
        {
          "internalType": "uint128",
          "name": "totalWinningStake",
          "type": "uint128"
        },
        {
          "internalType": "bytes32",
          "name": "metadataHash",
          "type": "bytes32"
        }
      ],
      "stateMutability": "view",
      "type": "function"
    },
    {
      "inputs": [],
      "name": "nextMarketId",
      "outputs": [
        {
          "internalType": "uint32",
          "name": "",
          "type": "uint32"
        }
      ],
      "stateMutability": "view",
      "type": "function"
    },
    {
      "inputs": [],
      "name": "pause",
      "outputs": [],
      "stateMutability": "nonpayable",
      "type": "function"
    },
    {
      "inputs": [],
      "name": "paused",
      "outputs": [
        {
          "internalType": "bool",
          "name": "",
          "type": "bool"
        }
      ],
      "stateMutability": "view",
      "type": "function"
    },
    {
      "inputs": [
        {
          "internalType": "uint32",
          "name": "marketId",
          "type": "uint32"
        },
        {
          "internalType": "address",
          "name": "account",
          "type": "address"
        }
      ],
      "name": "positionOf",
      "outputs": [
        {
          "internalType": "uint128",
          "name": "yesStake",
          "type": "uint128"
        },
        {
          "internalType": "uint128",
          "name": "noStake",
          "type": "uint128"
        }
      ],
      "stateMutability": "view",
      "type": "function"
    },
    {
      "inputs": [
        {
          "internalType": "bytes32",
          "name": "role",
          "type": "bytes32"
        },
        {
          "internalType": "address",
          "name": "callerConfirmation",
          "type": "address"
        }
      ],
      "name": "renounceRole",
      "outputs": [],
      "stateMutability": "nonpayable",
      "type": "function"
    },
    {
      "inputs": [
        {
          "internalType": "uint32",
          "name": "marketId",
          "type": "uint32"
        },
        {
          "internalType": "enum ConvexMarketManager.Outcome",
          "name": "outcome",
          "type": "uint8"
        }
      ],
      "name": "resolveMarket",
      "outputs": [],
      "stateMutability": "nonpayable",
      "type": "function"
    },
    {
      "inputs": [
        {
          "internalType": "bytes32",
          "name": "role",
          "type": "bytes32"
        },
        {
          "internalType": "address",
          "name": "account",
          "type": "address"
        }
      ],
      "name": "revokeRole",
      "outputs": [],
      "stateMutability": "nonpayable",
      "type": "function"
    },
    {
      "inputs": [
        {
          "internalType": "address",
          "name": "newTreasury",
          "type": "address"
        }
      ],
      "name": "setTreasury",
      "outputs": [],
      "stateMutability": "nonpayable",
      "type": "function"
    },
    {
      "inputs": [
        {
          "internalType": "uint32",
          "name": "marketId",
          "type": "uint32"
        },
        {
          "internalType": "enum ConvexMarketManager.Outcome",
          "name": "side",
          "type": "uint8"
        },
        {
          "internalType": "uint128",
          "name": "amount",
          "type": "uint128"
        }
      ],
      "name": "stake",
      "outputs": [],
      "stateMutability": "nonpayable",
      "type": "function"
    },
    {
      "inputs": [],
      "name": "stakingToken",
      "outputs": [
        {
          "internalType": "contract IERC20",
          "name": "",
          "type": "address"
        }
      ],
      "stateMutability": "view",
      "type": "function"
    },
    {
      "inputs": [
        {
          "internalType": "bytes4",
          "name": "interfaceId",
          "type": "bytes4"
        }
      ],
      "name": "supportsInterface",
      "outputs": [
        {
          "internalType": "bool",
          "name": "",
          "type": "bool"
        }
      ],
      "stateMutability": "view",
      "type": "function"
    },
    {
      "inputs": [],
      "name": "treasury",
      "outputs": [
        {
          "internalType": "address",
          "name": "",
          "type": "address"
        }
      ],
      "stateMutability": "view",
      "type": "function"
    },
    {
      "inputs": [],
      "name": "unpause",
      "outputs": [],
      "stateMutability": "nonpayable",
      "type": "function"
    }
  ],
  "bytecode": "0x60a03461011357601f61220638819003918201601f19168301916001600160401b038311848410176101185780849260409485528339810103126101135780516001600160a01b0381169182820361011357602001516001600160a01b038116929083900361011357600160025515801561010b575b6100fa57608052600380546001600160a01b0319169190911790556100993361012e565b506100a3336101aa565b506100ad33610242565b506100b7336102da565b50604051611df39081610373823960805181818161075b015281816108c40152818161127101528181611686015281816116c101528181611a350152611a700152f35b63e6c4247b60e01b60005260046000fd5b508115610075565b600080fd5b634e487b7160e01b600052604160045260246000fd5b6001600160a01b03811660009081526000805160206121e6833981519152602052604090205460ff166101a4576001600160a01b031660008181526000805160206121e683398151915260205260408120805460ff191660011790553391906000805160206121668339815191528180a4600190565b50600090565b6001600160a01b0381166000908152600080516020612186833981519152602052604090205460ff166101a4576001600160a01b0316600081815260008051602061218683398151915260205260408120805460ff191660011790553391907f55435dd261a4b9b3364963f7738a7a662ad9c84396d64be3365284bb7f0a5041906000805160206121668339815191529080a4600190565b6001600160a01b03811660009081526000805160206121a6833981519152602052604090205460ff166101a4576001600160a01b031660008181526000805160206121a683398151915260205260408120805460ff191660011790553391907f828634d95e775031b9ff576b159a8509d3053581a8c9c4d7d86899e0afcd882f906000805160206121668339815191529080a4600190565b6001600160a01b03811660009081526000805160206121c6833981519152602052604090205460ff166101a4576001600160a01b031660008181526000805160206121c683398151915260205260408120805460ff191660011790553391907f92a19c77d2ea87c7f81d50c74403cb2f401780f3ad919571121efe2bdb427eb1906000805160206121668339815191529080a460019056fe608080604052600436101561001357600080fd5b60003560e01c90816301ffc9a71461139b5750806304951891146111c05780631dcb66e61461118a578063248a9ca31461115557806324ea54f41461111a5780632f2ff15d146110da57806336568abe146110945780633f4ba83a1461102b578063406ef2ef1461100457806342f9f61d14610fa05780634bea4dee14610ae35780634e25eba014610a6c5780635c837e0e146107f35780635c975abb146107d057806361d027b3146107a75780636d947e4b1461078a57806372f702f31461074557806378fab2601461070a5780638456cb59146106b15780638aeda25a1461067657806391d1485414610629578063a217fddf1461060d578063a844a134146105f0578063c2c79dec14610381578063d547741f1461033a578063e1a452181461031d578063ece91e35146102035763f0f442601461015357600080fd5b346101fe5760203660031901126101fe576004356001600160a01b038116908190036101fe573360009081527fad3228b676f7d3cd4284a5443f17f1962b36e491b30a40b2405849e597ba5fb5602052604090205460ff16156101e45780156101d3576bffffffffffffffffffffffff60a01b6003541617600355600080f35b63e6c4247b60e01b60005260046000fd5b63e2517d3f60e01b60005233600452600060245260446000fd5b600080fd5b346101fe5760203660031901126101fe5763ffffffff6102216113ee565b1660005260046020526101c0604060002080549060018101549060028101546001600160801b036003830154916001600160401b0360058360048701541695015495604051976102748960ff8316611417565b61028760208a0160ff8360081c16611424565b61029a60408a0160ff8360101c16611431565b60018060a01b039060181c16606089015260018060a01b038116608089015260a01c1660a08701526001600160401b03811660c087015261ffff8160401c1660e087015261ffff8160501c1661010087015260601c166101208501526001600160801b03811661014085015260801c6101608401526101808301526101a0820152f35b346101fe5760003660031901126101fe5760206040516127108152f35b346101fe5760403660031901126101fe5761037f600435610359611401565b9061037a61037582600052600060205260016040600020015490565b611bee565b611cb4565b005b346101fe5760203660031901126101fe5763ffffffff61039f6113ee565b60006101a06040516103b0816117fa565b8281528260208201528260408201528260608201528260808201528260a08201528260c08201528260e082015282610100820152826101208201528261014082015282610160820152826101808201520152166000526004602052604060002060405161041c816117fa565b81549161042c60ff84168361184d565b60ff8360081c1692602083019360048110156105da57845260ff8160101c16604084019060038110156105da5781526060840191600160a01b600190039060181c168252600183015460808501600160a01b600190038216815260a086019160a01c6001600160401b0316825260028501549160c087016001600160401b038416815260e08801918460401c61ffff1683526101008901938560501c61ffff1685526101208a019560601c6001600160801b031686526003890154976101408b01976001600160801b038a1689526101608c019960801c8a5260048b01546001600160801b03169a6101808d019b8c52600501549b6101a081019c8d526040519d8e8092519061053b91611417565b519060200161054991611424565b5160408d0161055791611431565b516001600160a01b0390811660608d015290511660808b0152516001600160401b0390811660a08b015290511660c08901525161ffff90811660e0890152905116610100870152516001600160801b039081166101208701529051811661014086015290518116610160850152905116610180830152516101a08201526101c090f35b634e487b7160e01b600052602160045260246000fd5b346101fe5760003660031901126101fe57602060405161012c8152f35b346101fe5760003660031901126101fe57602060405160008152f35b346101fe5760403660031901126101fe57610642611401565b600435600052600060205260406000209060018060a01b0316600052602052602060ff604060002054166040519015158152f35b346101fe5760003660031901126101fe5760206040517f828634d95e775031b9ff576b159a8509d3053581a8c9c4d7d86899e0afcd882f8152f35b346101fe5760003660031901126101fe576106ca611b7c565b6106d2611b5f565b600160ff19815416176001557f62e78cea01bee320cd4e420270b5ea74000d11b0c9f74754ebdbfc544b05a2586020604051338152a1005b346101fe5760003660031901126101fe5760206040517f92a19c77d2ea87c7f81d50c74403cb2f401780f3ad919571121efe2bdb427eb18152f35b346101fe5760003660031901126101fe576040517f00000000000000000000000000000000000000000000000000000000000000006001600160a01b03168152602090f35b346101fe5760003660031901126101fe5760206040516101f48152f35b346101fe5760003660031901126101fe576003546040516001600160a01b039091168152602090f35b346101fe5760003660031901126101fe57602060ff600154166040519015158152f35b346101fe5760603660031901126101fe5761080c6113ee565b6024359060038210156101fe576044356001600160801b038116908181036101fe57610836611b5f565b61083e611afd565b8115610a5b576000928415610a4c5763ffffffff16928381526004602052604081209060ff825460081c166004811015610a3857610a29576001600160401b03600183015460a01c16421015610a1a576108e86040516323b872dd60e01b6020820152336024820152306044820152856064820152606481526108c260848261182c565b7f0000000000000000000000000000000000000000000000000000000000000000611d36565b8481526005602090815260408083203384529091529020600186036109ba5760028392826001600160801b0361092761097b978261094c975416611451565b166001600160801b031982541617905501916001600160801b03835460601c16611451565b81546fffffffffffffffffffffffffffffffff60601b191660609190911b600160601b600160e01b0316179055565b6109886040518094611431565b60208301527f5b6c06a6da0b878c1cfcd312bac508d1494fe83c405f922e1273c903b292a48560403393a36001600255005b60036001600160801b03926109fa836109da87610a05965460801c611451565b81546001600160801b031660809190911b6001600160801b031916179055565b019282845416611451565b166001600160801b031982541617905561097b565b63de3952ff60e01b8152600490fd5b6307e457e160e31b8152600490fd5b634e487b7160e01b82526021600452602482fd5b63c74a206d60e01b8452600484fd5b631f2a200560e01b60005260046000fd5b346101fe5760603660031901126101fe57610a856113ee565b60243560038110156101fe57604435916001600160401b0383116101fe57366023840112156101fe578260040135916001600160401b0383116101fe5736602484860101116101fe57602461037f94610adc611b5f565b0191611859565b346101fe5760203660031901126101fe576004356001600160401b0381116101fe5760e060031982360301126101fe57610b1b611b5f565b3360009081527ffb6cfbf0a6e77dfd309859bf4bad2c7342bd2b734e42c01cbc85d3e6dd74f95e602052604090205460ff1615610f675760248101610b5f816117c3565b6001600160401b034291161115610f56576001600160a01b03610b84604484016117d7565b1615610f455760648201916101f461ffff610b9e856117eb565b16118015610f2b575b610f1a576003549163ffffffff8360a01c169263ffffffff8414610f045763ffffffff60a01b19166001840160a01b63ffffffff60a01b16176003556002600483013510156101fe5761ffff610bff604484016117d7565b9481610c13610c0d856117c3565b926117eb565b6001600160401b03610c27608488016117eb565b9360405199610c358b6117fa565b610c4389600401358c61184d565b600060208c0152600060408c01523360608c015260018060a01b031660808b01521660a0890152600060c08901521660e087015216610100850152600061012085015260006101408501526000610160850152600061018085015260a48201356101a0850152826000526004602052604060002084519460028610156105da5760009560ff8019845416911617825560208101516004811015610ef05761ff0083549160081b169061ff00191617825560408101516003811015610ef057600591610d116101a09285611471565b60608181015185546301000000600160b81b03191660189190911b6301000000600160b81b0316178555608082015160018601805460a0808601516001600160e01b03199283166001600160a01b03959095169490941793901b67ffffffffffffffff60a01b1692909217905560c083015160028701805460e0860151610100870151610120880151929095166001600160401b03949094169390931760409390931b69ffff0000000000000000169290921760509390931b61ffff60501b1692909217921b600160601b600160e01b031691909117905561014081015161016082015160801b6001600160801b0319166001600160801b03919091161760038501556001600160801b03610180820151166001600160801b036004860191166001600160801b03198254161790550151910155838260040135151580610edf575b610ed057610ecc5792827f7fdebfea0cacbb937c61589f5adba43a28d3830e4ad78db857be551a4b69efea6040602096610e98610e92604488016117d7565b916117c3565b82516001600160401b03909116815260a4870135898201526001600160a01b039190911695600401359450a4604051908152f35b8380fd5b63b7c0802f60e01b8552600485fd5b505083600183600401351415610e53565b634e487b7160e01b87526021600452602487fd5b634e487b7160e01b600052601160045260246000fd5b632d8768f960e01b60005260046000fd5b5061012c61ffff610f3e608484016117eb565b1611610ba7565b631b68fd9560e21b60005260046000fd5b6395295d1560e01b60005260046000fd5b63e2517d3f60e01b600052336004527f828634d95e775031b9ff576b159a8509d3053581a8c9c4d7d86899e0afcd882f60245260446000fd5b346101fe5760403660031901126101fe57610fb96113ee565b63ffffffff610fc6611401565b9116600052600560205260406000209060018060a01b0316600052602052604080600020548151906001600160801b038116825260801c6020820152f35b346101fe5760003660031901126101fe57602063ffffffff60035460a01c16604051908152f35b346101fe5760003660031901126101fe57611044611b7c565b60015460ff8116156110835760ff19166001557f5db9ee0a495bf2e6ff9c91a7834c1ba4fdd244a5e8aa4e537bd38aeae4b073aa6020604051338152a1005b638dfc202b60e01b60005260046000fd5b346101fe5760403660031901126101fe576110ad611401565b336001600160a01b038216036110c95761037f90600435611cb4565b63334bd91960e11b60005260046000fd5b346101fe5760403660031901126101fe5761037f6004356110f9611401565b9061111561037582600052600060205260016040600020015490565b611c29565b346101fe5760003660031901126101fe5760206040517f55435dd261a4b9b3364963f7738a7a662ad9c84396d64be3365284bb7f0a50418152f35b346101fe5760203660031901126101fe576020611182600435600052600060205260016040600020015490565b604051908152f35b346101fe5760403660031901126101fe576111a36113ee565b60243560038110156101fe5761037f916111bb611b5f565b61149f565b346101fe5760203660031901126101fe5763ffffffff6111de6113ee565b6111e6611afd565b1680600052600460205260406000209081549160ff8360081c16600481101590816105da578015801561138d575b61137c5760008481526005602090815260408083203384529091529020916105da576003149384156112de575090506001600160801b0361125c8254828160801c9116611451565b169081156112cd5760009055915b61129583337f0000000000000000000000000000000000000000000000000000000000000000611b1d565b60405192835260208301527fb2ec9c67b236a39ccca91f6c3f79a7e734543e274dea51c5f3201a42c125c7a260403393a36001600255005b6312d37ee560e31b60005260046000fd5b60101c60ff1660038110156105da5760011490811561136a576001600160801b03808254165b169182156112cd576001600160801b0392600492611337921561135f57841981541690555b600385015460801c9061143e565b9201541690811561134957049161126a565b634e487b7160e01b600052601260045260246000fd5b848154169055611329565b6001600160801b03815460801c611304565b63174b639360e11b60005260046000fd5b506000915060018114611214565b346101fe5760203660031901126101fe576004359063ffffffff60e01b82168092036101fe57602091637965db0b60e01b81149081156113dd575b5015158152f35b6301ffc9a760e01b149050836113d6565b6004359063ffffffff821682036101fe57565b602435906001600160a01b03821682036101fe57565b9060028210156105da5752565b9060048210156105da5752565b9060038210156105da5752565b81810292918115918404141715610f0457565b906001600160801b03809116911601906001600160801b038211610f0457565b9060038110156105da5762ff000082549160101b169062ff00001916179055565b91908203918211610f0457565b60038210156105da5781156117b25763ffffffff1690816000526004602052604060002060ff815460081c1660048110156105da576002146117a15760018101546001600160401b038160a01c164210611790576001600160a01b031633141580611757575b61174657600281016001600160801b03815460601c169160038101906001600160801b03825416936001600160801b0361153f8683611451565b855467ffffffffffffffff1916426001600160401b03161786551690811561171a576001600160801b03906000966001891460001461171357505b169384156116eb579161ffff60a096949261162b6001600160801b036115f77fe1694977c892cc3805a2cb2c7656ab754057a5350066e69e79cd8397d10e0e8e9b999754936115f26127106115e9818d6115d98b8b60401c168761143e565b90500498899860501c168461143e565b04968792611492565b611492565b855461ff00191661020017865561160e8a87611471565b168095906001600160801b0382549181199060801b169116179055565b6004830180546001600160801b03191686179055806116b1575b5080611674575b505061165b6040518095611431565b60208401526040830152608060608301526080820152a2565b6116aa91600180891b03905460181c167f0000000000000000000000000000000000000000000000000000000000000000611b1d565b388061164c565b6116e5906001808a1b03600354167f0000000000000000000000000000000000000000000000000000000000000000611b1d565b38611645565b5050805462ffff00191661030017905550600080516020611d9e8339815191529250819050a2565b905061157a565b5050805462ffff00191661030017905550600080516020611d9e833981519152925060009150819050a2565b632b910d6d60e11b60005260046000fd5b503360009081527f40da0f42a661166d5434d4603ecbff423639c47e2526ad0538d7c3517a623890602052604090205460ff1615611505565b6356c5d21d60e01b60005260046000fd5b63aa43cb2d60e01b60005260046000fd5b63c74a206d60e01b60005260046000fd5b356001600160401b03811681036101fe5790565b356001600160a01b03811681036101fe5790565b3561ffff811681036101fe5790565b6101c081019081106001600160401b0382111761181657604052565b634e487b7160e01b600052604160045260246000fd5b90601f801991011681019081106001600160401b0382111761181657604052565b60028210156105da5752565b60038210156105da5781156117b25763ffffffff169283600052600460205260406000209260ff845460081c1660048110156105da576002146117a15760018401546001600160401b038160a01c164210611790576001600160a01b031633036117465760028401906001600160801b03825460601c1691600386016001600160801b03815416936001600160801b036118f38683611451565b845467ffffffffffffffff1916426001600160401b031617855516908115611ace576001600160801b039060009660018a14600014611ac757505b16928315611a9a5792869491927fe1694977c892cc3805a2cb2c7656ab754057a5350066e69e79cd8397d10e0e8e9961ffff60a099956119c46001600160801b036119ad6119f39e9c9a54936115f26127108d6119a2826119948b8b60401c168761143e565b04998a9960501c168561143e565b905004968792611492565b855461ff00191661020017865561160e8d87611471565b6004830180546001600160801b0319168617905580611a60575b5080611a23575b505060405198898098611431565b602087015260408601526080606086015281608086015285850137828201840152601f01601f19168101030190a2565b611a59916001808c1b03905460181c167f0000000000000000000000000000000000000000000000000000000000000000611b1d565b38806119e5565b611a94906001808d1b03600354167f0000000000000000000000000000000000000000000000000000000000000000611b1d565b386119de565b5050865462ffff0019166103001790965550600080516020611d9e833981519152945090925082915050a2565b905061192e565b5050865462ffff0019166103001790965550600080516020611d9e8339815191529450600093508392505050a2565b6002805414611b0c5760028055565b633ee5aeb560e01b60005260046000fd5b60405163a9059cbb60e01b60208201526001600160a01b039092166024830152604480830193909352918152611b5d91611b5860648361182c565b611d36565b565b60ff60015416611b6b57565b63d93c066560e01b60005260046000fd5b3360009081527f8a40f0b47fdc2a0ce293b772acfc7508c8315a4d462786c1adc3a56f92ca2d05602052604090205460ff1615611bb557565b63e2517d3f60e01b600052336004527f55435dd261a4b9b3364963f7738a7a662ad9c84396d64be3365284bb7f0a504160245260446000fd5b60008181526020818152604080832033845290915290205460ff1615611c115750565b63e2517d3f60e01b6000523360045260245260446000fd5b6000818152602081815260408083206001600160a01b038616845290915290205460ff16611cad576000818152602081815260408083206001600160a01b0395909516808452949091528120805460ff19166001179055339291907f2f8788117e7eff1d82e926ec794901d17c78024a50270940304540a733656f0d9080a4600190565b5050600090565b6000818152602081815260408083206001600160a01b038616845290915290205460ff1615611cad576000818152602081815260408083206001600160a01b0395909516808452949091528120805460ff19169055339291907ff6391f5c32d9c69d2a47ea670b442974b53935d1edc7fd64eb21e047a839171b9080a4600190565b906000602091828151910182855af115611d91576000513d611d8857506001600160a01b0381163b155b611d675750565b635274afe760e01b60009081526001600160a01b0391909116600452602490fd5b60011415611d60565b6040513d6000823e3d90fdfef92a486355d4079c0d685a1ae91c99398e0e0b06b6e4a4924dfd849e11d811e8a2646970667358221220ba9b9dfe89793d19a97ccd3ccae4ae63691fe6a7fb2ad0541abcadeb9aaf5b6264736f6c634300081c00332f8788117e7eff1d82e926ec794901d17c78024a50270940304540a733656f0d8a40f0b47fdc2a0ce293b772acfc7508c8315a4d462786c1adc3a56f92ca2d05fb6cfbf0a6e77dfd309859bf4bad2c7342bd2b734e42c01cbc85d3e6dd74f95e40da0f42a661166d5434d4603ecbff423639c47e2526ad0538d7c3517a623890ad3228b676f7d3cd4284a5443f17f1962b36e491b30a40b2405849e597ba5fb5",
  "linkReferences": {},
  "deployedLinkReferences": {}
}